:020000040800F2
:10000000780400209D0100083D1600083115000805
:1000100039160008A90200081517000800000000A2
:10002000000000000000000000000000431600086F
:10003000BD02000800000000411600084516000837
:10004000B7010008B7010008B7010008B7010008B0
:10005000B7010008B7010008B7010008B7010008A0
:10006000B7010008B7010008B7010008B701000890
:10007000B7010008B7010008B7010008B701000880
:10008000B7010008B7010008B7010008B701000870
:10009000AD020008B7010008B7010008B701000869
:1000A000B7010008B7010008B7010008B701000850
:1000B000B7010008B7010008B7010008B701000840
:1000C000B7010008B7010008B7010008B701000830
:1000D000B7010008B7010008B7010008B701000820
:1000E000B7010008B7010008B7010008B701000810
:1000F000B7010008B7010008B7010008B701000800
:10010000B7010008B7010008B7010008B7010008EF
:10011000B7010008B7010008B7010008B7010008DF
:10012000B7010008B7010008B7010008B7010008CF
:10013000B7010008B7010008B7010008B7010008BF
:10014000B7010008B7010008B7010008B7010008AF
:10015000B7010008B7010008B7010008B70100089F
:10016000B7010008B7010008B7010008B70100088F
:10017000B7010008B7010008B7010008000000003F
:10018000B7010008B7010008DFF80CD000F07AF8DA
:10019000004800476F170008780400200648804791
:1001A00006480047FEE7FEE7FEE7FEE7FEE7FEE75C
:1001B000FEE7FEE7FEE7FEE70117000889010008F9
:1001C0002DE9F05F0546002092469B46884606468C
:1001D000814640241BE0284641464746224600F01F
:1001E00041F853465A46C01A914110D31146184659
:1001F000224600F028F82D1A67EB01084F462246E8
:100200000120002100F01FF817EB00094E41201ECD
:10021000A4F10104DFDC484631462A464346BDE8E6
:10022000F09FD2B201E000F8012B491EFBD27047CB
:100230000022F6E710B513460A4604461946FFF7B2
:10024000F0FF204610BD202A04DB203A00FA02F11C
:10025000002070479140C2F1200320FA03F31943B4
:1002600090407047202A04DB203A21FA02F0002156
:10027000704721FA02F3D040C2F1200291400843B6
:1002800019467047064C074D06E0E06840F0010350
:1002900094E8070098471034AC42F6D3FFF778FF94
:1002A0009C170008BC17000800BFFEE710B5024805
:1002B00000F06EF910BD000018000020704772B603
:1002C00000BFFEE710B5024692F82030012B01D0A6
:1002D000022B06D110684069084314686061002051
:1002E00010BD506A40F4802050620120F8E7000001
:1002F000F0B504460A46216894F82050012D01D03B
:10030000022D7ED1424901F50071086840F00100DC
:100310000860086820F47C5008600868566A40EA63
:1003200006200860107D00F01F06012000FA06F389
:10033000C8699843C861A1F50071D069C8B9D1F8FE
:100340000C029843C1F80C02908880B2968940EA6A
:10035000064601F51070576940F83760108880B282
:10036000168940EA064601F51070576900EBC70090
:100370004660D069012819D1D1F80C021843C1F8A0
:100380000C02908880B2168840EA064601F510708B
:10039000576940F83760908980B2168940EA06466E
:1003A00001F51070576900EBC7004660906928B9E5
:1003B000D1F804029843C1F8040204E0D1F8040221
:1003C0001843C1F80402106928B9D1F814029843FF
:1003D000C1F8140204E0D1F814021843C1F8140261
:1003E000106A012804D1D1F81C021843C1F81C027C
:1003F000D1F8000220F00100C1F800020020F0BD99
:10040000FFE7606A40F4802060620120F7E70000A7
:1004100000640040704770B5044694F82050012DE8
:1004200001D0022D7DD151B92068C06800F00300D1
:1004300080B9606A40F400106062012070BD2068DD
:10044000006900F0030028B9606A40F4001060629F
:100450000120F3E7206800F5D87000EB0110006878
:1004600000F004009060906840B9206800F5D870F2
:1004700000EB01100068400D106007E0206800F5F7
:10048000D87000EB01100068C0085060206800F5CB
:10049000D87000EB0110006800F00200D060206806
:1004A00000F5D87000EB0110406800F00F001061FB
:1004B000206800F5D87000EB0110406800F47F4020
:1004C000000A9061206800F5D87000EB01104068C8
:1004D000000C5061206800F5D87000EB01108068B6
:1004E0001870206800F5D87000EB0110806800F4E7
:1004F0007F40000A5870206800F5D87000EB0110AA
:10050000806800F47F00000C9870206800F5D870B7
:1005100000EB01108068000ED870206800F5D870DC
:1005200000E02FE000EB0110C0681871206800F5B2
:10053000D87000EB0110C06800F47F40000A5871C9
:10054000206800F5D87000EB0110C06800F47F004F
:10055000000C9871206800F5D87000EB0110C0689D
:10056000000ED87131B92068C06840F020002668BC
:10057000F06005E02068006940F0200026683061E6
:1005800000205BE7606A40F480206062012055E74C
:100590002DE9F05F04460025206846692068D0F800
:1005A0000490206887682068D0F80CA02068D0F8F4
:1005B00010B02068D0F8188006F00100002855D04F
:1005C00007F00100C0B101202168886007F0020037
:1005D00018B1204600F04FFA0EE007F0040010B109
:1005E00045F4006508E007F0080010B145F48055B7
:1005F00002E0204600F03EFA07F48070C8B14FF4E4
:1006000080702168886007F4007018B1204600F0FF
:1006100034FA0EE007F4806010B145F4005508E0AC
:1006200007F4006010B145F4804502E0204600F078
:1006300023FA07F48030C8B14FF480302168886015
:1006400007F4003018B1204600F019FA0EE007F464
:10065000802010B145F4004508E007F4002010B1F7
:1006600045F4803502E0204600F008FA06F0080064
:1006700038B10AF0100020B145F40075102021684F
:10068000C86006F0040040B10AF0080028B1082054
:100690002168C860204600F0A9F906F0020038B1D0
:1006A0002068C06800F0030010B1204600F0A0F9F7
:1006B00006F0400038B10BF0100020B145F4806521
:1006C00010202168086106F0200040B10BF00800FE
:1006D00028B1082021680861204600F099F906F049
:1006E000100038B12068006900F0030010B1204606
:1006F00000F08FF906F4003040B109F0100028B185
:10070000102021684860204600F084F906F480300B
:1007100040B109F0080028B108202168486020464F
:1007200000F0AEF906F4004088B309F0040078B395
:1007300006F4807020B108F0010008B145F0010511
:1007400006F4007020B108F0020008B145F002057F
:1007500006F4806020B108F0040008B145F00405FB
:1007600006F40060A0B108F0700088B108F07000D5
:10077000402817D006DC10280BD020280CD03028B9
:1007800019D10CE0502810D0602814D110E01DE0E1
:1007900019E045F008050FE045F010050CE045F0C4
:1007A000200509E045F0400506E045F0800503E03E
:1007B00045F4807500E000BF00BF2068806920F02C
:1007C0007000216888610420216848602DB1606A4A
:1007D000284360622046FFF71DFEBDE8F09F70B51C
:1007E00004460CB9012070BD94F8200010B92046D1
:1007F00000F0B0F82068006840F00100216808604F
:1008000000F038FA05460DE000F034FA401B0A28E3
:1008100008D9606A40F400306062052084F8200046
:100820000120E0E72068406800F001000028EBD0DC
:100830002068006820F002002168086000F01AFAC1
:1008400005460DE000F016FA401B0A2808D9606A38
:1008500040F400306062052084F820000120C2E7E7
:100860002068406800F002000028EBD1207E0128BB
:1008700006D12068006840F080002168086005E02B
:100880002068006820F0800021680860607E0128F0
:1008900006D12068006840F040002168086005E04B
:1008A0002068006820F0400021680860A07E0128D0
:1008B00006D12068006840F020002168086005E04B
:1008C0002068006820F0200021680860E07E012890
:1008D00006D12068006820F010002168086005E05B
:1008E0002068006840F0100021680860207F01281F
:1008F00006D12068006840F008002168086005E023
:100900002068006820F0080021680860607F0128E6
:1009100006D12068006840F004002168086005E006
:100920002068006820F0040021680860D4E9020112
:10093000084321690843616908436168491E084307
:100940002168C86100206062012084F82000002036
:1009500049E7000010B586B00446142101A8FFF74E
:1009600067FC1F492068884238D100BF00200090F2
:100970001C48006840F000701A490860084600688A
:1009800000F00070009000BF00BF00BF002000908A
:1009900014481038006840F001001249103908600E
:1009A0000846006800F00100009000BF00BF4FF44F
:1009B000C050019002200290002003900320049078
:1009C0000920059001A9084800F05CF800221146B2
:1009D000142000F0D9F9142000F0C6F906B010BDBB
:1009E00000640040403802400000024070470000B0
:1009F00010B50446044B054A00212046FFF70BFDC5
:100A000008B1FFF75CFC10BD00000020580000207A
:100A100070477047704770B5044694F8200001286D
:100A200022D1022084F820002068006820F0010014
:100A30002168086000F01EF905460DE000F01AF983
:100A4000401B0A2808D9606A40F400306062052023
:100A500084F82000012070BD2068406800F001008B
:100A60000028EBD16062F6E7606A40F40020606223
:100A70000120F0E770477047704770477047704734
:100A800070470000F8B502460B4600250024002000
:100A90000021D5E0012606FA01F51E6806EA0504E4
:100AA000AC4274D11E7906F00306012E04D01E79E3
:100AB00006F00306022E13D190684F000326BE40B5
:100AC000B0434F00DE68BE4030439060506801265E
:100AD0008E40B0431E79C6F300168E4030435060FE
:100AE0001E7906F00306032E09D0D0684F000326B6
:100AF000BE40B0434F009E68BE403043D0601E7978
:100B000006F00306022E13D1CF0802F1200656F894
:100B100027004E07F70E0F26BE40B0434F07FF0ECB
:100B20001E69BE403043CF0802F1200646F8270078
:100B300010684F000326BE40B0431E7906F003063E
:100B40004F00BE40304310605E6806F44036002E11
:100B500075D000BF002600963B4E366846F48046AE
:100B6000394F3E603E46366806F48046009600BF28
:100B700000BF364E8F0856F827008E07370F0F2616
:100B8000BE40B043324EB24202D1002624E056E0CD
:100B9000304EB24201D101261EE02F4EB24201D1A9
:100BA000022619E02D4EB24201D1032614E02C4E4C
:100BB000B24201D104260FE02A4EB24201D10526ED
:100BC0000AE0294EB24201D1062605E0274EB24284
:100BD00001D1072600E008268F073F0FBE403043B3
:100BE0001A4E8F0846F82700214E3068A0435E68F1
:100BF00006F4803606B120431D4E3060361D306845
:100C0000A0435E6806F4003606B12043184E361D38
:100C10003060361D3068A0435E6806F4801606B169
:100C20002043134E08363060361D3068A0435E689E
:100C300006F4001606B120430D4E0C363060491CF8
:100C40001029FFF427AFF8BD4438024008380140AE
:100C5000000002400004024000080240000C024074
:100C6000001002400014024000180240001C024024
:100C7000003C014001480068704700000800002067
:100C8000034800680349097808440149086070472F
:100C9000080000201000002010B50D48006840F446
:100CA00000700B4908600846006840F480600860E6
:100CB0000846006840F480700860032000F0A2F845
:100CC0000F2000F007F800F02BF8002010BD000006
:100CD000003C024070B504460E4800784FF47A712B
:100CE000B1FBF0F00C490968B1FBF0F5284600F0C3
:100CF00005FC08B1012070BD102C07D2002221464E
:100D0000501E00F041F80548046001E00120F2E7C0
:100D10000020F0E710000020140000200C0000204C
:100D200008B500BF002000900E48006840F48040E5
:100D30000C4908600846006800F48040009000BF3D
:100D400000BF00BF00200090081F006840F08050E6
:100D5000091F08600846006800F08050009000BF3E
:100D600000BF08BD4438024001460846002809DBA0
:100D700000F01F0301229A4043099B0003F1E02386
:100D8000C3F8002100BF70472DE9F05F80460D4693
:100D90001646002700F0C0FC074639462A4633466F
:100DA00001F00700C0F1070ABAF1040F02D94FF0B1
:100DB000040A01E0C0F1070AD14600F1040ABAF1C1
:100DC000070F02D24FF0000A01E0A0F1030AD44657
:100DD0004FF0010A0AFA09FAAAF1010A0AEA020A1C
:100DE0000AFA0CFA4FF0010B0BFA0CFBABF1010BFA
:100DF0000BEA030B4AEA0B042146404600F094FC40
:100E0000BDE8F09F00BF00F00702064B19684FF6DF
:100E1000FF031940044B0B4343EA0221014B1960C5
:100E200000BF70470CED00E00000FA0570B5044605
:100E30000D460CB9012070BD5848006800F007004D
:100E4000A84209D255490D700846006800F0070015
:100E5000A84201D00120EEE7207800F0020002282D
:100E60001DD1207800F00400042805D14C4800680A
:100E700040F4E0504A490860207800F00800082853
:100E800005D14748006840F460404549086044483F
:100E9000006820F0F000A16808434149086020780C
:100EA00000F00100A8B36068012807D13C48083869
:100EB0000068C0F34040B8B90120BCE76068022870
:100EC00002D06068032807D1354808380068C0F3AD
:100ED000406048B90120AEE7314808380068C0F3E7
:100EE000400008B90120A6E72D48006820F0030063
:100EF000616808432A490860FFF7BCFE064609E01E
:100F0000FFF7B8FE801B41F28831884202D90320E6
:100F100091E707E02248006800F00C006168B0EB40
:100F2000810FEDD11D48006800F00700A84209D9E3
:100F30001A490D700846006800F00700A84201D069
:100F4000012078E7207800F00400042807D1144835
:100F5000006820F4E050E1680843114908602078F7
:100F600000F00800082808D10D48006820F460400F
:100F7000216940EAC1000A49086000F019F80849EF
:100F80000968C1F30311074A515CC840064908606B
:100F900006480068FFF79EFE00204CE7003C024038
:100FA0000838024082170008140000200C000020BE
:100FB0002DE9F047002400250026A14625480068B9
:100FC00000F00C0020B1042805D008283AD105E033
:100FD000DFF8849039E0DFF8849036E01D48001F88
:100FE000006800F03F041B48001F006800F4800008
:100FF00078B11A481749091F0968C1F38811A0FB85
:1010000001700146224600233846FFF7D9F805460D
:101010000EE011480F49091F0968C1F38811A0FBB0
:1010200001700146224600233846FFF7C9F80546FD
:101030000848001F0068C0F30140401C4600B5FB93
:10104000F6F902E0DFF8109000BF00BF4846BDE8A7
:10105000F0870000083802400024F40000127A00F3
:10106000F8B504460CB90120F8BD207800F0010065
:10107000002874D0F948006800F00C0004280DD056
:10108000F648006800F00C00082813D1F348001F50
:10109000006800F48000B0F5800F0BD1EF480838ED
:1010A0000068C0F34040002859D06068002856D13D
:1010B0000120D9E700BF6068B0F5803F08D1E7485C
:1010C0000838006840F48030E449083908601EE0C0
:1010D0006068B0F5A02F0DD1E0480838006840F4F2
:1010E0008020DE49083908600846006840F48030F6
:1010F00008600CE0D9480838006820F48030D749EF
:10110000083908600846006820F48020086000BFA5
:10111000606890B1FFF7AEFD054606E0FFF7AAFD57
:10112000401B642801D903209EE7CC48083800689A
:10113000C0F340400028F1D011E0FFF79BFD0546C9
:1011400006E0FFF797FD401B642801D903208BE7D9
:10115000C24808380068C0F340400028F1D1207828
:1011600000F0020002285FD1BC48006800F00C00CB
:1011700058B1BA48006800F00C0008281CD1B748E4
:10118000001F006800F48000B0B9B4480838006857
:10119000C0F3400020B1E068012801D0012063E7DE
:1011A000AE480838006820F0F800216940EAC10024
:1011B000AA490839086037E0E06800B30120A8496F
:1011C0000860FFF757FD054606E0FFF753FD401B9B
:1011D000022801D9032047E7A04808380068C0F377
:1011E00040000028F1D09D480838006820F0F80041
:1011F000216940EAC10099490839086014E00020DB
:1012000097490860FFF736FD054606E0FFF732FD17
:10121000401B022801D9032026E7904808380068BF
:10122000C0F340000028F1D1207800F00800082821
:101230002CD16069A8B101208A490860FFF71AFD26
:10124000054606E0FFF716FD401B022801D90320E2
:101250000AE782486C300068C0F340000028F1D0F3
:1012600014E000207F490860FFF704FD054606E012
:10127000FFF700FD401B022801D90320F4E6774860
:101280006C300068C0F340000028F1D1207800F0F5
:101290000400042870D1002770483830006800F03E
:1012A000805090B900BF002000906C483830006832
:1012B00040F080506949383108600846006800F005
:1012C0008050009000BF00BF01276748006800F40D
:1012D0008070B0B96448006840F48070624908606A
:1012E000FFF7C8FC054606E0FFF7C4FC401B0228D8
:1012F00001D90320B8E65C48006800F4807000283B
:10130000F2D000BFA068012808D1544868300068B6
:1013100040F001005149683108601DE0A0680528CF
:101320000DD14E486830006840F004004B496831E8
:1013300008600846006840F0010008600CE047487B
:101340006830006820F001004449683108600846B0
:10135000006820F00400086000BFA068A8B1FFF793
:1013600089FC054609E0FFF785FC401B41F2883106
:10137000884202D9032077E626E0384868300068C2
:10138000C0F340000028EED013E0FFF773FC0546E1
:1013900008E0FFF76FFC401B41F28831884201D919
:1013A000032061E62D4868300068C0F34000002843
:1013B000EFD1012F07D129483830006820F0805044
:1013C00026493831086000BFA069002845D023486D
:1013D000006800F00C0008285DD0A069022845D103
:1013E00000201F490866FFF745FC054606E0FFF7A9
:1013F00041FC401B022801D9032035E61748083874
:101400000068C0F340600028F1D1D4E90701084327
:10141000616A40EA81110122A06AC2EB500041EAF0
:1014200000412C20005D41EA00600C49091F086062
:1014300001200B490866FFF71DFC054606E0FFF793
:1014400019FC401B022801D903200DE60348083887
:101450000068C0F340600028F1D049E0083802403D
:1014600000004742800E47420070004000202149A2
:101470000866FFF7FFFB054606E0FFF7FBFB401B96
:10148000022801D90320EFE51B480068C0F3406043
:101490000028F2D12CE0A069012800D1E4E516482B
:1014A000001D0668A069012820D006F48001E069CB
:1014B00081421BD106F03F01206A814216D147F6D6
:1014C000C0703040616AB0EB811F0FD106F440312B
:1014D0000122A06AC2EB5000B1EB004F06D106F02A
:1014E00070612C20005DB1EB006F01D00120BBE5E5
:1014F0000020B9E5000047420038024070B50446BC
:101500002546681EB0F1807F01D301200FE0681EE0
:101510004FF0E02148610F214FF0FF3000F004F957
:1015200000204FF0E021886107200861002070BD95
:1015300000BFFEE700B58BB02A482B4908600620A3
:101540004860002128488160C1604FF4C0210161DA
:101550004FF4A00141610021017601214176002173
:1015600081760121C176002101774177FFF737F9B4
:1015700008B1FEF7A4FE0120099000200690059016
:101580004FF4BB500190002002904FF4AA500390FA
:10159000002004900120079008900E200A9001A9D5
:1015A0001148FEF7A5FE08B1FEF789FE0E48FFF7C9
:1015B00032FA08B1FEF783FE02210B48FEF782FEE5
:1015C00008B1FEF77CFE0820084908610120486048
:1015D00000208860C86001200860002008750BB0FA
:1015E00000BD000000640040180000204000002002
:1015F00008B500BF002000900E48006840F0800051
:101600000C4908600846006800F08000009000BFA8
:1016100000BF00BF002000900846006840F00100B5
:1016200008600846006800F00100009000BF00BF9D
:1016300008BD00003038024000BFFEE700BFFEE7F3
:101640007047704710B5FFF71BFB10BD00B593B096
:10165000302107A8FEF7ECFD142102A8FEF7E8FDF3
:1016600000BF002001902448006840F080502249CB
:1016700008600846006800F08050019000BF00BF7D
:1016800000BF002001901D48006840F480401B49C5
:1016900008600846006800F48040019000BF00BF69
:1016A000012007900004089002200D9041050E9142
:1016B00008210F914FF4A87110910221119104217A
:1016C000129107A8FFF7CCFC08B1FEF7F8FD0F2038
:1016D000029002200390002004904FF4A050059047
:1016E0004FF480500690052102A8FFF79FFB08B138
:1016F000FEF7E5FD13B000BD403802400070004029
:101700000348006840F47000014908607047000019
:1017100088ED00E000BFFEE702480068C0F3022049
:10172000704700000CED00E010B5002804DB0A074C
:10173000130E054A135406E00A07140E034A00F07C
:101740000F031B1FD45410BD00E400E018ED00E0AF
:1017500002E008C8121F08C1002AFAD1704770477A
:10176000002001E001C1121F002AFBD17047FFF7E2
:1017700093FAFFF76BFFFFF73BFFFFF7DBFE00BFBE
:10178000FEE700000000000000000102030406075D
:10179000080900000000010203040000BC17000853
:1017A000000000201800000050170008D41700089F
:1017B000180000206004000060170008000000000E
:1017C0000000000000000000100000000100000008
:0417D0000024F400FD
:040000050800018965
:00000001FF
