:020000040800F2
:1000000010090020310200087B1C000805170008B9
:10001000791C000821070008391E000800000000B4
:100020000000000000000000000000007F1C00082D
:1000300023070008000000007D1C0008811C000848
:100040004B0200084B0200084B0200084B0200085C
:100050004B0200084B0200084B0200084B0200084C
:100060004B0200084B0200084B0200084B0200083C
:100070004B0200084B0200084B0200084B0200082C
:100080004B0200084B0200084B0200084B0200081C
:100090004B0200084B0200084B0200084B0200080C
:1000A0004B0200084B0200084B0200084B020008FC
:1000B0004B0200084B0200084B0200084B020008EC
:1000C0004B0200084B0200084B0200084B020008DC
:1000D0004B0200084B0200084B0200084B020008CC
:1000E0004B0200084B0200084B0200084B020008BC
:1000F0004B0200084B0200084B0200084B020008AC
:100100004B0200084B0200084B0200084B0200089B
:100110004B0200084B0200084B0200084B0200088B
:100120004B0200084B0200084B0200084B0200087B
:100130004B0200084B0200084B0200084B0200086B
:100140004B0200084B0200084B0200084B0200085B
:100150004B0200084B0200084B0200084B0200084B
:100160004B0200084B0200084B0200084B0200083B
:100170004B0200084B0200084B0200080000000080
:100180004B0200084B02000800F002F800F041F8B2
:100190000AA090E8000C82448344AAF10107DA45E2
:1001A00001D100F036F8AFF2090EBAE80F0013F0F3
:1001B000010F18BFFB1A43F001031847881D000008
:1001C000A81D0000103A24BF78C878C1FAD8520799
:1001D00024BF30C830C144BF04680C6070470000C1
:1001E0000023002400250026103A28BF78C1FBD840
:1001F000520728BF30C148BF0B607047782900F014
:10020000E380002070471FB501F06EFE1FBD10B5E2
:1002100010BD00F053FA1146FFF7F5FF01F030FE74
:1002200000F071FA03B4FFF7F2FF03BC01F01CFE0B
:100230000948804709480047FEE7FEE7FEE7FEE77A
:10024000FEE7FEE7FEE7FEE7FEE7FEE704480549B6
:10025000054A064B704700001D1D00088901000873
:1002600010030020100900201005002010050020B8
:10027000704753EA020C00F069802DE9F04B4FF013
:100280000006002B1FBFB3FA83F503FA05F424FA26
:1002900005F65E4012BF1643B2FA82F502FA05F483
:1002A000C5F120051EBF22FA05FC44EA0C042035E6
:1002B00056EA044C4FEA144418BF641C4FF000087F
:1002C0004FF00009904271EB030C39D3002919BF9C
:1002D000B1FA81F701FA07F6B0FA80F700FA07F6EB
:1002E000C7F120071EBF20FA07FC46EA0C0620379C
:1002F000B6FBF4FCA7EB0507103F07F01F0BCBF193
:1003000020060CFA0BFB2CFA06F644BFB346002677
:10031000202FA4BF5E464FF0000B5BEA060C08BF1F
:100320004FF0010B19EB0B09ABFB027C48EB060805
:10033000C01B06FB02CC0BFB03CC71EB0C01C1E72D
:100340000B46024641464846BDE8F08B13B54FF0D8
:1003500000004FF00001AFF30080BDE81C40704783
:100360000FB4044910B503AA029800F079F910BC43
:100370005DF814FB0001002070B504468569006833
:10038000C10601D5302600E02026C00707D070BD89
:10039000D4E9012130469047206A401C20626D1E3E
:1003A000F6D570BD70B5044685690078C00707D1E1
:1003B00070BDD4E9012120209047206A401C2062B2
:1003C0006D1EF6D570BD000070B504460D46214681
:1003D0001068AFF300802188090502D50F4A7A44DE
:1003E00002E00E4A7A440E32002104F1240305E0B3
:1003F00000F00F060009965D5E54491C0028F7D1F5
:1004000020780023000704D5702D02D009B1022303
:1004100011322046BDE8704000F0C9B8281B00002A
:100420002DE9F05F894604464FF0000ADFF824B159
:10043000FB44C0F820A02046E168884700287DD012
:10044000252806D0D4E901219047206A401C20626B
:10045000F1E700255F462046E168884720280646E8
:1004600007DB312E05D2B81910F8200C08B105436E
:10047000F1E7A80701D525F00405C4F81CA0002762
:10048000C4F818A02A2E09D0304601F0E6FC38B393
:1004900004EB8708303EC8F8186019E059F8041BCF
:1004A000204604EB87029161E1688847012F0646E8
:1004B00018D1E069002820DA25F020051DE0D8F8E1
:1004C000180000EB800006EB40003038C8F8180038
:1004D0002046E1688847064601F0BFFC0028EED1BF
:1004E000012F0AD02E2E08D12046E16888477F1CB4
:1004F0000646022F45F02005C4DBA069002803DA78
:10050000404245F00105A061E80701D025F0100543
:10051000A6B1A6F14100192802D8203645F400659D
:100520004A463146204625604D46FFF767FE60B1DA
:10053000012807D0ED1D25F0070000E007E000F1DD
:10054000080978E705F1040975E730467AE7206A7B
:10055000BDE8F09FFE1A00004FF0000200B5134600
:1005600094469646203922BFA0E80C50A0E80C50D3
:10057000B1F12001BFF4F7AF090728BFA0E80C5084
:1005800048BF0CC05DF804EB890028BF40F8042B7D
:1005900008BF704748BF20F8022B11F0804F18BFEA
:1005A00000F8012B704770477047704770472DE97E
:1005B000F0470D4699469246044600F1240801682A
:1005C000880604D5E06921F01001216000E00120D7
:1005D000A84201DD471B00E00027A1697A1902EB60
:1005E0000900081AA0612078C00602D42046FFF74F
:1005F000C3FE002608E0D4E901211AF8060090475E
:10060000206A401C761C20624E45F4DB2078C00630
:100610000AD52046FFF7B0FE06E0D4E901213020DC
:100620009047206A401C2062381EA7F10107F4DCC5
:1006300007E0D4E9012118F805009047206A401C22
:100640002062281EA5F10105F3DC2046FFF7AAFE73
:100650002078000602D50220BDE8F0870120FBE7E4
:10066000074B70B50D467B4400F011F80446284650
:1006700000F020F810B14FF0FF3070BD204670BD83
:100680000318000001694A1C02610878704700B530
:100690008FB0CDE901310021059105497944CDE9BB
:1006A000031011466846FFF7BBFE0FB000BD000007
:1006B000E5FFFFFF007B00F080007047754600F00B
:1006C0002BF8AE4605006946534620F007008546E4
:1006D00018B020B5FFF7BAFDBDE820404FF0000686
:1006E0004FF000074FF000084FF0000B21F007011A
:1006F000AC46ACE8C009ACE8C009ACE8C009ACE85D
:10070000C0098D46704710B50446AFF300802046FF
:10071000BDE81040FFF786BD00487047AC020020DE
:10072000FEE7704772B6FEE72DE9F84FDFF8BCA18F
:10073000002201250AF1040B03264FF00F090BF1EB
:10074000040E00BF0B6805FA02F42340A34270D1E7
:100750000F7907F00307012F01D0022F16D1876808
:100760004FEA420806FA08FC27EA0C07D1F80CC049
:100770000CFA08FC4CEA070CC0F808C04768A7430D
:100780000C79C4F3001494403C4344600C79E44376
:10079000A4070AD0C4684FEA420C06FA0CF7BC431F
:1007A0008F6807FA0CF72743C7600C7904F003043D
:1007B000022C12D1D40800EB840CDCF8204057073F
:1007C000FF0E09FA07F824EA0804D1F8108008FAA5
:1007D00007F848EA0408CCF8208004684FEA420C85
:1007E00006FA0CF7BC430F7907F0030707FA0CF77A
:1007F000274307604C6814F4403F70D03C4C276896
:1008000047F480472760246822F0030704F48044FB
:100810000094384C07EB040CDCF8084897074FEAC3
:10082000177809FA08F7BC43334FB84202D10027C2
:1008300024E054E0314FB84201D101271EE0304F8F
:10084000B84201D1022719E02E4FB84201D1032747
:1008500014E02D4FB84201D104270FE02B4FB842CE
:1008600001D105270AE02A4FB84201D1062705E049
:10087000284FB84201D1072700E0082707FA08F7F8
:100880002743CCF80878DAF800405746D1F804C07E
:100890009C435FEACC3C00D51C433C60DBF8004045
:1008A0005F46D1F804C09C435FEA8C3C00D51C43F2
:1008B0003C60DEF800407746D1F804C09C435FEA14
:1008C000CC2C00D51C433C60084F0C373C68D1F859
:1008D00004C09C435FEA8C2C00D51C433C60521C36
:1008E000102AFFF42FAFBDE8F88F0000003C014054
:1008F0004438024000300140000002400004024041
:1009000000080240000C02400010024000140240A7
:1009100000180240001C0240014880687047000037
:100920000401002090F83D007047000070B50400FD
:1009300025D094F83D00002520B984F83C5020468D
:1009400000F002FB242084F83D002068016821F0BB
:10095000010101602068016841F4004101602068E4
:10096000016821F40041016000F04AFC4D4A6168D1
:10097000914201D84C4900E04C49884201D2012003
:1009800070BD4B492368B0FBF1F15E6826F03F066D
:100990000E435E606368934206D94FF496735943E1
:1009A0004FF47A73B1FBF3F12368491C1E6A26F0F9
:1009B0003F06314319626168914210D84900401ED8
:1009C000B0FBF1F2521CC2F30B02042A01D2042044
:1009D00022E0B0FBF1F0401CC0F30B001CE0A26869
:1009E000F2B301EBC10303EB0116431EB3FBF6F3B5
:1009F0005B1C43F480431B0549D092B301EBC10259
:100A000002EB0111401EB0FBF1F0401CC0F30B00E3
:100A100040F4804040F400402168CA694CF6FF73FE
:100A20009A431043C861D4E9071001432068026863
:100A300022F0C00211430160D4E9030101432068A0
:100A4000826848F2FF339A4311438160D4E905017B
:100A500008432168CA6822F0FF021043C86001E021
:100A60000EE016E02068016841F001010160256494
:100A7000202084F83D00256384F83E50002070BD9E
:100A800001EB4106431EB3FBF6F35B1CB3E7012009
:100A9000C2E701EB4101401EB0FBF1F0401CC0F386
:100AA0000B00B7E7A086010080841E0000093D000E
:100AB00040420F002DE9FF4F81B089460446FFF701
:100AC0002BFF054694F83D004FF0010820287DD10A
:100AD0001923012250492046009500F09BFF002871
:100AE00074D194F83C00012870D0012084F83C00B7
:100AF00020680168C90703D1016841F00101016064
:100B00002068016821F400610160242084F83D0020
:100B1000002626644148E0624FF0011B2027206830
:100B2000016841F480710160009500225946204619
:100B3000049B00F06FFF50B120680068C00502D52B
:100B40004FF400702064032005B0BDE8F08F2168E9
:100B500009F0FE000861FFF7DFFE216805464869DD
:100B60004969C0F34000C1F380214FF0A00A0FE0B3
:100B7000FFF7D2FE411B0498814200D808B984F8DF
:100B80003DA0216848694969C0F34000C1F3802154
:100B900094F83D20A02A02D008B90029E8D084F8B2
:100BA0003D7020684169C943890716D4016841F442
:100BB000007101602068416980691923012216498A
:100BC0002046009500F026FFB8B900E021E084F847
:100BD0003D7084F83C600020B6E7016841F4007184
:100BE000016021686FF480604861192301220A497D
:100BF0002046009500F00EFF08B10120A4E70398FD
:100C000008F1010880458AD384F83D7084F83C607F
:100C1000F3E7022098E70000020010000000FFFF49
:100C20002DE9FF4F83B09A46DDE9119793460446BC
:100C3000DDF84080FFF770FE054694F83D0020285F
:100C400070D11923012271492046009500F0E2FE7F
:100C50000028F5D194F83C00012863D0012084F8E5
:100C60003C0020680168C90703D1016841F0010117
:100C700001602068016821F400610160222084F88D
:100C80003D00402084F83E0000262664C4F82480FD
:100C9000A4F82A90608D20855D48E062CDE900755A
:100CA00053465A462046049900F0BCFD00287CD1EA
:100CB000208DD0B1012821D00228206824D041699C
:100CC00080690090208D032869D801282BD05149D4
:100CD00002283B464FF00002009559D08846204636
:100CE00000F098FE002860D13CE0206841698169ED
:100CF0000091016841F40071016077E020680168AB
:100D000021F480610160F0E7016821F480610160F5
:100D10002068016841F400610160206841698069D0
:100D2000009063E06FE02A463946204600F0F1FE6D
:100D300098BB20680069616A08704EE0206801680D
:100D400041F40071016020680069616A0870606A9E
:100D5000401C6062218D491E2185618D491E61857F
:100D6000216838E02068016821F480610160206812
:100D70000069616A0870606A401C6062208D401ED4
:100D80002085608D401E60853B46002241460095CF
:100D9000204600F03FFE00B9D0E706E0FFE72A4614
:100DA0003946204600F0B5FE18B1012007B0BDE875
:100DB000F08F20680069616A0870606A401C606298
:100DC000218D491E2185618D491E618521684A69F1
:100DD000D24352070AD409690170606A401C6062FC
:100DE000208D401E2085608D401E6085208D00284E
:100DF0007FF468AF202084F83D0084F83E6084F8DA
:100E00003C600020D2E70220D0E700000200100082
:100E10000000FFFF040001002DE9FF4F83B09A4658
:100E2000DDE9119793460446DDF84080FFF774FD35
:100E3000054694F83D0020287FD11923012240491E
:100E40002046009500F0E6FD002876D194F83C009D
:100E5000012872D0012084F83C0020680168C9078D
:100E600003D1016841F0010101602068016821F4AB
:100E700000610160212084F83D00402084F83E009C
:100E800000262664C4F82480A4F82A90608D20856A
:100E90002C48E062CDE9007553465A462046049935
:100EA00000F03EFD70B930E02A463946204600F099
:100EB00063FE58B1206C042804D12068016841F415
:100EC00000710160012007B0BDE8F08F606A216801
:100ED00000780861606A401C6062218D491E89B2F9
:100EE0002185628D521E628522685369DB435B0750
:100EF0000BD469B100781061606A401C6062208D7B
:100F0000401E2085608D401E6085208D0028CBD13D
:100F10002A463946204600F057FD0028CAD154F829
:100F20003D0B016841F400710160202004F81E09A6
:100F3000E67766770020C6E7FFE70220C3E70000F8
:100F4000020010000000FFFF10B586B00446142117
:100F50006846FFF701FB14492068884221D11348F5
:100F60000021026842F002020260006800F0020004
:100F700005904FF4407000901220CDE9010103204C
:100F800003900420049069460948FFF7CDFB074809
:100F90001030016841F400110160006800F4001095
:100FA000059006B010BD00000054004030380240EB
:100FB0000004024002488168027811448160704751
:100FC000040100200B4810B5016841F40071016074
:100FD000016841F480610160016841F48071016041
:100FE000032000F061F80F2000F006F800F024F86C
:100FF000002010BD003C024070B50D4D04464FF47A
:101000007A712878B1FBF0F00A490968B1FBF0F079
:1010100000F0FCFA48B9102C07D200222146501EDD
:1010200000F022F800206C6070BD012070BD00004F
:1010300004010020100100200A4808B5016841F4AD
:1010400080410160006800F4804000900548001F66
:10105000016841F080510160006800F0805000900C
:1010600008BD000044380240F0B40E4B1B680C462B
:10107000C3F30223C3F10705042D00D90425191D6C
:10108000072901D2002300E0DB1E012606FA05F144
:10109000491E214099409E40761E16403143F0BCC7
:1010A00000F0CBBE0CED00E0064900F00702086836
:1010B0004FF6FF03184040EA0220034A104308603D
:1010C000704700000CED00E00000FA052DE9F04744
:1010D0000E46050065D0DFF81481D8F80000F7B29D
:1010E00000F00700B04207D288F80070D8F800007E
:1010F00000F00700B04254D128683D4C810712D55A
:10110000400703D5206840F4E050206028780007AD
:1011100003D5206840F4604020602068A96820F072
:10112000F000084320602878C0072DD03049686857
:101130000839012812D0022813D0032811D00968D9
:10114000890700292DDA216821F00301014321607C
:10115000FFF7E2FB814641F2883A0EE00968890315
:10116000EFE709688901ECE7FFF7D6FBA0EB09017F
:10117000514502D90320BDE8F0872068696800F076
:101180000C00B0EB810FEFD1D8F80010404601F011
:101190000701B14207D90770006800F00700B042AC
:1011A00001D00120E7E72878400705D52068E968E5
:1011B00020F4E050084320602878000706D5206816
:1011C000296920F4604040EAC100206000F038F84E
:1011D0002168084AC1F30311515CC8400649086000
:1011E00006480068FFF708FF0020C4E7003C024003
:1011F00008380240F21E00081001002008010020FB
:101200000448054900680968044AC1F38221515C19
:10121000C84070471001002008380240021F000833
:101220000448054900680968044AC1F34231515C29
:10123000C84070471001002008380240021F000813
:10124000154810B5006810F00C02144813D0411076
:10125000042A0FD0082A0ED10F4C241F22682368BD
:1012600002F03F025B0207D52068C0F38810A0FBA4
:10127000010106E0084610BD2168C1F38811A1FBF9
:1012800000010023FEF7F5FF2168C1F30141491C6D
:101290004900B0FBF1F010BD083802400024F40012
:1012A0002DE9F84F04006ED02078DFF84C93C0078A
:1012B000A9F104054AD009F104000168C1F38101D4
:1012C000012908D00068C0F3810002280AD1D9F8AA
:1012D0000000400206D52868800337D560680028E2
:1012E000E1D033E06068B0F5803F10D0B0F5A02FBA
:1012F000286810D020F480302860286820F48020EE
:1013000028606068A8B1FFF707FB06460DE0286873
:1013100040F48030F4E740F480202860F7E700BF15
:10132000FFF7FAFA801B642873D828688003F7D582
:101330000CE0FFF7F1FA064605E000BFFFF7ECFA14
:10134000801B6428F0D828688003F7D42078DFF861
:10135000AC8280074FF0000A3ED5A748001D016807
:1013600011F00C0F08D00068C0F3810002280BD1E7
:10137000D9F80000400207D42868800716D5E06835
:10138000012800D112E033E1E068B8B10120C8F8CB
:101390000000FFF7C1FA064605E000BFFFF7BCFA00
:1013A000801B0228C0D828688007F7D528682169E3
:1013B00020F0F80040EAC10028600DE0C8F800A065
:1013C000FFF7AAFA064604E0FFF7A6FA801B0228F8
:1013D0001FD828688007F7D42078000722D5864FC9
:1013E00087486169703771B101210160FFF794FA94
:1013F000064604E0FFF790FA801B022809D83868F7
:101400008007F7D50EE0C0F800A0FFF785FA064682
:1014100005E082E0FFF780FA801B02287DD838685B
:101420008007F7D42078400768D5DFF8CCB10027D3
:101430000BF13C0BDBF80000C0000BD4DBF8001014
:1014400041F08051CBF80010DBF80000012700F0DC
:10145000805000906B4E3068C00510D4306840F466
:1014600080703060FFF758FA009005E0FFF754FAFB
:101470000099401A022850D83068C005F6D55E4E53
:10148000A0686C3601280FD00528306810D020F0F5
:1014900001003060306820F004003060A068B8B10E
:1014A000FFF73AFA00900FE0306840F00100F4E7EF
:1014B00040F004003060F7E7FFF72EFA0099411A78
:1014C00041F28830814266D830688007F4D50EE05A
:1014D000FFF722FA009007E0FFF71EFA0099411A81
:1014E00041F28830814256D830688007F4D42FB159
:1014F000DBF8001021F08051CBF80010A069C8B3D0
:101500003D49091D0968C1F3810102294AD0022819
:10151000504607D0C8F8600000E03CE0FFF7FCF957
:1015200004463BE04746C8F86000FFF7F5F9064679
:1015300005E000BFFFF7F0F9801B02282BD82868D0
:101540008001F7D4D4E907010843A16A2E4A49086B
:1015500002EB0141626A41EA8211084394F82C10BF
:1015600040EA0161C9F8001001203866FFF7D4F99C
:10157000044606E03EE000BFFFF7CEF9001B02285C
:1015800009D828688001F7D534E000BFFFF7C4F917
:10159000001B022802D90320BDE8F88F28688001CB
:1015A000F4D427E00128F7D0D9F80000E26900F46C
:1015B000800191421CD1226A00F03F01914217D173
:1015C00047F6C071626A0140B1EB821F10D1A26A76
:1015D0004FF0FF3300F4403103EB5202B1EB024F06
:1015E00006D194F82C1000F07060B0EB016F01D0C0
:1015F0000120D1E70020CFE7043802400000474235
:10160000800E4742007000400000FFFF10B5401EF2
:10161000B0F1807F01D3012010BD4FF0E024606164
:101620000F21601700F009FC0020A0610720206155
:10163000002010BD70B5040004D094F83D000025D2
:1016400010B106E0012070BD84F83C50204600F047
:1016500023F8242084F83D002068C16821F400515B
:10166000C160204600F062FB2068016921F49041CE
:1016700001612068416921F02A0141612068C16847
:1016800041F40051C1602564202084F83D0084F8B5
:101690003E00002070BD000010B586B00446142145
:1016A0006846FEF759FF14492068884221D1134843
:1016B0000021026842F010020260006800F0100091
:1016C00005900E481438026842F00102026000687A
:1016D00000F0010005904FF4C06000900220CDE9B9
:1016E0000101032003900720049069460448FFF796
:1016F0001BF806B010BD0000001001404438024045
:1017000000000240FEE700000EB54FF47A738DE84A
:101710000D000A460123A0210148FFF781FA0EBD02
:10172000140200202DE9F041064611F007000C4696
:1017300002F00701C0F10807C2F3C70588460FD0C1
:101740007DB1D01BC0F3C70500F0070847B33A4688
:101750002146304600F02AF8E019C4B23E441FE0AA
:101760004DB90A460EE008222146304600F01EF828
:101770000834E4B208366D1EEDB2F4D2B8F10000C0
:1017800012D0024621463046BDE8F04100F00EB8C6
:1017900008222146304600F009F80834E4B2083641
:1017A0006D1EEDB2F4D2E9E7BDE8F0813EB56423E9
:1017B0008DE80D000A460123A0210D48FFF72CFB00
:1017C00004460B48FFF7AEF82028FAD14FF496757F
:1017D0002A462B46A0210648FFF76CF90328F7D0CC
:1017E0000348FFF79FF82028FAD120463EBD0000AD
:1017F0001402002001684A69D24352050FD46FF4E5
:1018000080624A61002140F8301F202242738173B8
:10181000026942F004020261017301207047002056
:10182000704700002DE9F84F0446006889460B9D7B
:1018300001689846174641F480610160206801689C
:1018400041F48071016000954FF0011B0022594660
:1018500020460A9B00F0DEF84FF4007A40B1206881
:101860000068C00501D5C4F840A00320BDE8F88F8A
:10187000216809F0FE0008612B46284920460A9A93
:1018800000F0FCF8F0BB20684169806900902A46AE
:1018900020460A9900F070F940B1206C04283AD132
:1018A0002068016841F40071016034E0FEB2B8F1D3
:1018B000010F09D02168380A08612A4620460A9992
:1018C00000F05AF90028E8D1206806612A4620462F
:1018D0000A9900F051F90028DFD12068016841F42D
:1018E0008071016000950022594620460A9B00F055
:1018F00091F80028B3D1216809F0FF0040F0010001
:10190000086100E007E02B46044920460A9A00F0EF
:10191000B5F80028AAD00120A8E7000002000100C5
:101920002DE9F843044600680D46DDE90897016893
:101930009846164641F4807101604B4600224FF0F4
:1019400001112046009700F065F848B12068006852
:10195000C00502D54FF4007020640320BDE8F88371
:10196000216805F0FE0008613B464A4615492046BD
:1019700000F084F888B920684169806900903A468F
:101980004946204600F0F8F848B1206C042804D1FC
:101990002068016841F4007101600120DEE7F5B2C2
:1019A000B8F1010F09D02168300A08613A4649466A
:1019B000204600F0E1F80028E7D12068056100200A
:1019C000CCE700000200010070B516460D46044643
:1019D0000DE02046FFF70EFF08B1012070BD681C26
:1019E00005D0FEF799FF801BA84207D835B12068C3
:1019F0004069C0434007ECD4002070BD002044F88B
:101A0000300F20216173A073216941F02001216111
:101A10002073E2E72DE9F0471E4690460D46044646
:101A2000C1F30747DDF8209008E0701C06D0FEF7F0
:101A300073FFA0EB0900B0420FD876B12068012FE8
:101A400018D0806925EA00000004000C14D00021A1
:101A50004145EAD00020BDE8F087002044F8300F6F
:101A600020216173A073216941F02001216120735D
:101A70000120F0E74069E5E70121E9E72DE9F047BA
:101A80009A4691460E46044600254FF02008C1F3C1
:101A9000074725E020684069C043400514D420680A
:101AA000016841F40071016021686FF48060486151
:101AB000256384F83D8084F83E50206C40F004009B
:101AC000206484F83C501FE0B9F1FF3F08D0FEF7D6
:101AD00023FFA0EB0A0149450CD8B9F1000F09D04A
:101AE0002068012F13D0806926EA00000004000C52
:101AF0000BD0CFE744F8305F84F80D80A5732069E0
:101B000040F02000206125730120BDE8F087406986
:101B1000EAE72DE9F041002590460E4604462027CD
:101B200017E04069C043C0060CD454F8301B6FF076
:101B30001000486144F810596777A577206A206241
:101B4000257717E0FEF7E8FEA0EB0800B04208D8C2
:101B50003EB120684169C9434906E2D40020BDE88E
:101B6000F08144F8305F6773A573206940F020006E
:101B7000206125730120F2E770B516460D46044634
:101B80000DE02046FFF736FE08B1012070BD681C4D
:101B900005D0FEF7C1FE801BA84207D835B12068EA
:101BA0004069C0430006ECD4002070BD002044F81A
:101BB000300F20216173A073216941F02001216160
:101BC0002073E2E70D4808B5016841F0800101602B
:101BD000016801F080010091016841F0010101609C
:101BE000016801F001010091016841F0020101600A
:101BF000006800F00200009008BD0000303802408C
:101C00000D4810B50B4901600C49416000214FF4AB
:101C100080428160C0E9031241618161C16101625A
:101C2000FEF784FE002803D0BDE81040FEF77ABD21
:101C300010BD00000054004014020020A0860100E6
:101C40000C4810B50A4901604FF4E13141600021B0
:101C500081600C22C160C0E904128161C161FFF79B
:101C6000E9FC002803D0BDE81040FEF75BBD10BDC5
:101C70000010014068020020FEE7FEE77047704751
:101C8000FFF798B930B593B030216846FEF764FC91
:101C900014210CA8FEF760FC1E480025016841F0E5
:101CA00080510160006800F0805011901A4801686E
:101CB00041F4804101600068022400F480401190EA
:101CC00001200090000401908001CDE90640082029
:101CD00008904FF4A870CDE9090404200B906846E1
:101CE000FFF7DEFA08B172B6FEE70CA90F2081E813
:101CF00031004FF4A0500F904FF480501090052108
:101D00000CA8FFF7E3F9002801D072B6FEE713B084
:101D100030BD0000403802400070004002480168B9
:101D200041F470010160704788ED00E070B5044631
:101D300000680169E26821F44051114301612169A1
:101D4000A068E26908436169114308432168CA68D1
:101D500049F20C639A430243CA6020684169A26950
:101D600021F440711143416131492068884202D019
:101D70003049884202D1FFF753FA01E0FFF740FAF9
:101D8000E2690023192164253226B2F5004F62680A
:101D900028D0A0FB0101930F9200FEF76AFA0146DA
:101DA000B0FBF5F06FF01802504301EB800006EB3A
:101DB0000010B0FBF5F000F0F002B1FBF5F002EB23
:101DC0000012B1FBF5F06FF01803584301EB8000EF
:101DD00006EB0010B0FBF5F000F00F002168104496
:101DE000886070BDA0FB010192185B41FEF741FACB
:101DF0000146B0FBF5F00201B1FBF5F06FF01803FE
:101E0000584301EB800006EBC000B0FBF5F000F09A
:101E1000F80002EB4002B1FBF5F0584301EB800003
:101E200006EBC000B0FBF5F000F00700D6E70000BD
:101E30000010014000140140FEE70907090E0028C8
:101E400004DB00F1E02080F80014704700F00F0080
:101E500000F1E02080F8141D704730380A2801D2C4
:101E600001207047002070477047000003490A684E
:101E70005206FCD5C2B24A60704700000010014013
:101E8000FFF7A0F8FFF7FEFEFFF79CFEFFF7B8FE96
:101E9000FFF7D6FE0E4D0024E1B229550DA0FEF746
:101EA0005FFAE043000702D10DA0FEF759FA641C67
:101EB000A4B2FF2CF0D94FF48074224600210448CC
:101EC000FFF730FC224600210648FFF71DFCFEE725
:101ED00000000020307825303258200D0A00000024
:101EE0000D0A0000140100204FF04070E1EE100ACE
:101EF0007047000000000000000001020304060714
:101F00000809000000000102030430313233343587
:101F10003637383941424344454640305800303125
:101F20003233343536373839616263646566403040
:101F3000780004000008000000000000000200011A
:101F400000001000641F00080000002014010000C1
:101F5000C40100087820000814010020FC070000DC
:101F6000E001000868656C6C6C6C6C6C6F000000C4
:101F70000000000000000000000000000000000061
:101F80000000000000000000000000000000000051
:101F90000000000000000000000000000000000041
:101FA0000000000000000000000000000000000031
:101FB0000000000000000000000000000000000021
:101FC0000000000000000000000000000000000011
:101FD0000000000000000000000000000000000001
:101FE00000000000000000000000000000000000F1
:101FF00000000000000000000000000000000000E1
:1020000000000000000000000000000000000000D0
:1020100000000000000000000000000000000000C0
:1020200000000000000000000000000000000000B0
:1020300000000000000000000000000000000000A0
:102040000000000000000000000000000000000090
:102050000000000000000000000000000000000080
:10206000000000000000000001000000100000005F
:08207000000000000024F40050
:040000050800018965
:00000001FF
