:020000040800F2
:100000000014002039020008351B00088118000880
:10001000311B0008C90700087D200008000000000F
:10002000000000000000000000000000A51C000807
:10003000CD07000800000000391B0008A71C0008BD
:10004000530200085302000853020008530200083C
:10005000530200085302000853020008530200082C
:10006000530200085302000853020008530200081C
:10007000530200085302000853020008530200080C
:1000800053020008530200085302000853020008FC
:1000900053020008530200085302000853020008EC
:1000A00053020008530200085302000853020008DC
:1000B00053020008530200085302000853020008CC
:1000C00053020008530200085302000853020008BC
:1000D00053020008530200085302000853020008AC
:1000E000530200085302000853020008530200089C
:1000F000530200085302000853020008530200088C
:10010000530200085302000853020008530200087B
:10011000530200085302000853020008530200086B
:10012000530200085302000853020008530200085B
:10013000530200085302000853020008530200084B
:10014000530200085302000853020008530200083B
:10015000530200085302000853020008530200082B
:10016000530200085302000853020008530200081B
:100170005302000853020008530200080000000068
:10018000530200085302000800F002F800F044F89F
:100190000AA090E8000C82448344AAF10107DA45E2
:1001A00001D100F039F8AFF2090EBAE80F0013F0F0
:1001B000010F18BFFB1A43F001031847F02B000092
:1001C000102C0000103A24BF78C878C1FAD8520722
:1001D00024BF30C830C144BF04680C6070470000C1
:1001E0000023002400250026103A28BF78C1FBD840
:1001F000520728BF30C148BF0B607047642900F028
:10020000E980732900F09482002070471FB502F046
:10021000B3FD1FBD10B510BD00F0A4FA1146FFF7E5
:10022000F5FF02F00FF900F0C2FA03B4FFF7F2FF96
:1002300003BC01F048FF0000094880470948004717
:10024000FEE7FEE7FEE7FEE7FEE7FEE7FEE7FEE786
:10025000FEE7FEE704480549054A064B70470000E3
:10026000651D000889010008000E00200014002010
:100270000010002000100020704753EA020C00F02C
:1002800069802DE9F04B4FF00006002B1FBFB3FA39
:1002900083F503FA05F424FA05F65E4012BF16430F
:1002A000B2FA82F502FA05F4C5F120051EBF22FA62
:1002B00005FC44EA0C04203556EA044C4FEA144489
:1002C00018BF641C4FF000084FF00009904271EB1A
:1002D000030C39D3002919BFB1FA81F701FA07F6E7
:1002E000B0FA80F700FA07F6C7F120071EBF20FA20
:1002F00007FC46EA0C062037B6FBF4FCA7EB050723
:10030000103F07F01F0BCBF120060CFA0BFB2CFA69
:1003100006F644BFB3460026202FA4BF5E464FF02A
:10032000000B5BEA060C08BF4FF0010B19EB0B0941
:10033000ABFB027C48EB0608C01B06FB02CC0BFBA8
:1003400003CC71EB0C01C1E70B460246414648461F
:10035000BDE8F08B13B54FF000004FF00001AFF394
:100360000080BDE81C4070470FB4044910B503AAD3
:10037000029800F0E1F910BC5DF814FB00000020C9
:1003800070B50C460546012A05D02878800600D5B0
:10039000EA69002302E0012305E05B1C934202D2DC
:1003A000E05C0028F9D1A869E618C01AA861286A9B
:1003B000184428622846AFF3008004E0D5E9012103
:1003C00014F8010B9047B442F8D32846AFF30080ED
:1003D00070BD00002DE9F041064600241068752923
:1003E000314616A510D0AFF30080002802DA404253
:1003F00013A507E031688A0701D512A502E0490775
:1004000004D511A5012401E0AFF3008000210A22E8
:1004100006F1240709E0B0FBF2FCB0FBF2F302FBAB
:100420001C00303078541846491C0028F3D123466C
:100430002A463046BDE8F04100F0F7B80000000061
:100440002D0000002B000000200000002DE9F05FCF
:10045000894604464FF0000ADFF874B1FB44C0F847
:1004600020A02046E1688847002874D0252806D0BF
:10047000D4E901219047206A401C2062F1E7002660
:100480005F462046E16888472028054607DB312D76
:1004900005D2781910F8200C08B10643F1E7B0072F
:1004A00001D526F00406C4F81CA00027C4F818A043
:1004B0002A2D09D0284601F0FFFD38B304EB870848
:1004C000303DC8F8185019E059F8041B204604EBD9
:1004D00087029161E1688847012F054618D1E069DC
:1004E000002820DA26F020061DE0D8F8180000EBDE
:1004F000800005EB40003038C8F818002046E1685D
:100500008847054601F0D8FD0028EED1012F0AD01A
:100510002E2D08D12046E16888477F1C0546022F12
:1005200046F02006C4DBA069002803DA404246F00A
:100530000106A061F00701D026F010066C2D0BD04B
:10054000682D09D04C2D39D06A2D35D0742D35D079
:100550007A2D33D016E038E0E1682F4620468847F0
:10056000B842054609D16C2F26D04FF48060E1686F
:10057000064320468847054604E06C2F1AD04FF406
:10058000807006430DB3A5F14100192802D820352B
:1005900046F400664A462946204626604E46FFF746
:1005A0002DFE80B101280BD0F61D26F0070000F1CA
:1005B000080956E74020E4E78020D8E70020D6E786
:1005C00006F104094DE7284652E7206ABDE8F09F8E
:1005D0003A2900004FF0000200B5134694469646B3
:1005E000203922BFA0E80C50A0E80C50B1F1200146
:1005F000BFF4F7AF090728BFA0E80C5048BF0CC0F4
:100600005DF804EB890028BF40F8042B08BF704751
:1006100048BF20F8022B11F0804F18BF00F8012BC3
:10062000704770477047704770472DE9F0470D4697
:1006300099469246044600F124080168880604D5CC
:10064000E06921F01001216000E00120A84201DDF5
:10065000471B00E00027A1697A1902EB0900081A7C
:10066000A0612078C00602D42046AFF300800026A7
:1006700008E0D4E901211AF806009047206A401CDE
:10068000761C20624E45F4DB2078C0060AD5204651
:10069000AFF3008006E0D4E9012130209047206AC2
:1006A000401C2062381EA7F10107F4DC07E0D4E902
:1006B000012118F805009047206A401C2062281E7E
:1006C000A5F10105F3DC2046AFF300802078000699
:1006D00002D50220BDE8F0870120FBE701694A1C32
:1006E00002610878704700B58FB0CDE90131002173
:1006F000059105497944CDE9031011466846FFF795
:10070000A5FE0FB000BD0000E5FFFFFF10B5436977
:1007100013B1AFF3008001E0FFF732FE012010BDFE
:10072000127800F124010A7000224A700122EDE7DC
:1007300011684FF0FF32E9E7074B70B50D467B4477
:10074000FFF7D1FF0446284600F008F810B14FF03B
:10075000FF3070BD204670BDBF1B0000007B00F065
:1007600080007047754600F02BF8AE4605006946DC
:10077000534620F00700854618B020B5FFF76AFD04
:10078000BDE820404FF000064FF000074FF0000892
:100790004FF0000B21F00701AC46ACE8C009ACE813
:1007A000C009ACE8C009ACE8C0098D46704710B577
:1007B0000446AFF300802046BDE81040FFF735BD8A
:1007C000004870479C0D002000BFFEE7704772B6DE
:1007D00000BFFEE7F8B502460B46002500240020C6
:1007E0000021D5E0012606FA01F51E6806EA050497
:1007F000AC4274D11E7906F00306012E04D01E7996
:1008000006F00306022E13D190684F000326BE4067
:10081000B0434F00DE68BE40304390605068012610
:100820008E40B0431E79C6F300168E4030435060B0
:100830001E7906F00306032E09D0D0684F00032668
:10084000BE40B0434F009E68BE403043D0601E792A
:1008500006F00306022E13D1CF0802F1200656F847
:1008600027004E07F70E0F26BE40B0434F07FF0E7E
:100870001E69BE403043CF0802F1200646F827002B
:1008800010684F000326BE40B0431E7906F00306F1
:100890004F00BE40304310605E6806F44036002EC4
:1008A00075D000BF002600963B4E366846F4804661
:1008B000394F3E603E46366806F48046009600BFDB
:1008C00000BF364E8F0856F827008E07370F0F26C9
:1008D000BE40B043324EB24202D1002624E056E080
:1008E000304EB24201D101261EE02F4EB24201D15C
:1008F000022619E02D4EB24201D1032614E02C4EFF
:10090000B24201D104260FE02A4EB24201D105269F
:100910000AE0294EB24201D1062605E0274EB24236
:1009200001D1072600E008268F073F0FBE40304365
:100930001A4E8F0846F82700214E3068A0435E68A3
:1009400006F4803606B120431D4E3060361D3068F7
:10095000A0435E6806F4003606B12043184E361DEB
:100960003060361D3068A0435E6806F4801606B11C
:100970002043134E08363060361D3068A0435E6851
:1009800006F4001606B120430D4E0C363060491CAB
:100990001029FFF427AFF8BD443802400838014061
:1009A000000002400004024000080240000C024027
:1009B000001002400014024000180240001C0240D7
:1009C000003C01400AB1816101E00B048361704782
:1009D00001480068704700000400002003480068D8
:1009E0000349097808440149086070470400002061
:1009F0000C00002010B50D48006840F400700B4951
:100A000008600846006840F4806008600846006896
:100A100040F480700860032000F092F80F2000F08E
:100A200007F800F02BF8002010BD0000003C024049
:100A300070B504460E4800784FF47A71B1FBF0F0BF
:100A40000C490968B1FBF0F5284600F0D8FD08B163
:100A5000012070BD102C07D200222146501E00F04C
:100A600031F80548046001E00120F2E70020F0E7DA
:100A70000C000020100000200800002008B500BF76
:100A8000002000900E48006840F480400C49086047
:100A90000846006800F48040009000BF00BF00BF1F
:100AA00000200090081F006840F08050091F086077
:100AB0000846006800F08050009000BF00BF08BDED
:100AC000443802402DE9F05F80460D461646002767
:100AD00001F0D6FA074639462A46334601F00700A8
:100AE000C0F1070ABAF1040F02D94FF0040A01E07D
:100AF000C0F1070AD14600F1040ABAF1070F02D289
:100B00004FF0000A01E0A0F1030AD4464FF0010AB9
:100B10000AFA09FAAAF1010A0AEA020A0AFA0CFA1E
:100B20004FF0010B0BFA0CFBABF1010B0BEA030BC3
:100B30004AEA0B042146404601F0AAFABDE8F09FBC
:100B400000BF00F00702064B19684FF6FF0319407B
:100B5000044B0B4343EA0221014B196000BF70476D
:100B60000CED00E00000FA0570B504460D460CB926
:100B7000012070BD5848006800F00700A84209D263
:100B800055490D700846006800F00700A84201D0E2
:100B90000120EEE7207800F0020002281DD1207825
:100BA00000F00400042805D14C48006840F4E050EF
:100BB0004A490860207800F00800082805D1474815
:100BC000006840F46040454908604448006820F0EF
:100BD000F000A168084341490860207800F0010056
:100BE000A8B36068012807D13C4808380068C0F302
:100BF0004040B8B90120BCE76068022802D06068B4
:100C0000032807D1354808380068C0F3406048B968
:100C10000120AEE7314808380068C0F3400008B949
:100C20000120A6E72D48006820F003006168084312
:100C30002A490860FFF7CCFE064609E0FFF7C8FE28
:100C4000801B41F28831884202D9032091E707E0F6
:100C50002248006800F00C006168B0EB810FEDD114
:100C60001D48006800F00700A84209D91A490D7014
:100C70000846006800F00700A84201D0012078E78C
:100C8000207800F00400042807D11448006820F4FC
:100C9000E050E168084311490860207800F008003E
:100CA000082808D10D48006820F46040216940EA16
:100CB000C1000A49086000F03FF808490968C1F31B
:100CC0000311074A515CC84006490860064800689D
:100CD000FFF7AEFE00204CE7003C0240083802401F
:100CE000822D000810000020080000200148006844
:100CF000704700001000002000B5FFF7F7FF04491F
:100D00000968C1F38221034A515CC84000BD00005C
:100D100008380240922D000800B5FFF7E7FF0449AC
:100D20000968C1F34231034A515CC84000BD00006C
:100D300008380240922D00082DE9F04700240025D4
:100D40000026A1462548006800F00C0020B10428C8
:100D500005D008283AD105E0DFF8849039E0DFF8C3
:100D6000849036E01D48001F006800F03F041B48D7
:100D7000001F006800F4800078B11A481749091F65
:100D80000968C1F38811A0FB0170014622460023C7
:100D90003846FFF772FA05460EE011480F49091F61
:100DA0000968C1F38811A0FB0170014622460023A7
:100DB0003846FFF762FA05460848001F0068C0F38E
:100DC0000140401C4600B5FBF6F902E0DFF8109048
:100DD00000BF00BF4846BDE8F08700000838024069
:100DE0000024F40000127A00F8B504460CB9012082
:100DF000F8BD207800F00100002874D0F9480068A0
:100E000000F00C0004280DD0F648006800F00C003B
:100E1000082813D1F348001F006800F48000B0F5E3
:100E2000800F0BD1EF4808380068C0F3404000281D
:100E300059D06068002856D10120D9E700BF60680A
:100E4000B0F5803F08D1E7480838006840F48030AA
:100E5000E449083908601EE06068B0F5A02F0DD1A4
:100E6000E0480838006840F48020DE49083908600E
:100E70000846006840F4803008600CE0D948083823
:100E8000006820F48030D7490839086008460068B7
:100E900020F48020086000BF606890B1FFF798FDE3
:100EA000054606E0FFF794FD401B642801D90320A6
:100EB0009EE7CC4808380068C0F340400028F1D0D5
:100EC00011E0FFF785FD054606E0FFF781FD401BB9
:100ED000642801D903208BE7C24808380068C0F3B2
:100EE00040400028F1D1207800F0020002285FD1B4
:100EF000BC48006800F00C0058B1BA48006800F027
:100F00000C0008281CD1B748001F006800F48000BE
:100F1000B0B9B44808380068C0F3400020B1E068B8
:100F2000012801D0012063E7AE480838006820F0AE
:100F3000F800216940EAC100AA490839086037E091
:100F4000E06800B30120A8490860FFF741FD0546AD
:100F500006E0FFF73DFD401B022801D9032047E7CB
:100F6000A04808380068C0F340000028F1D09D4830
:100F70000838006820F0F800216940EAC10099496A
:100F80000839086014E0002097490860FFF720FD49
:100F9000054606E0FFF71CFD401B022801D903208F
:100FA00026E7904808380068C0F340000028F1D1D7
:100FB000207800F0080008282CD16069A8B1012031
:100FC0008A490860FFF704FD054606E0FFF700FDCB
:100FD000401B022801D903200AE782486C300068D0
:100FE000C0F340000028F1D014E000207F490860E1
:100FF000FFF7EEFC054606E0FFF7EAFC401B02287F
:1010000001D90320F4E677486C300068C0F3400053
:101010000028F1D1207800F00400042870D10027C6
:1010200070483830006800F0805090B900BF002050
:1010300000906C483830006840F080506949383181
:1010400008600846006800F08050009000BF00BFB4
:1010500001276748006800F48070B0B964480068F0
:1010600040F4807062490860FFF7B2FC054606E074
:10107000FFF7AEFC401B022801D90320B8E65C480C
:10108000006800F480700028F2D000BFA06801283A
:1010900008D154486830006840F001005149683177
:1010A00008601DE0A06805280DD14E486830006832
:1010B00040F004004B49683108600846006840F081
:1010C000010008600CE047486830006820F001002B
:1010D0004449683108600846006820F00400086050
:1010E00000BFA068A8B1FFF773FC054609E0FFF751
:1010F0006FFC401B41F28831884202D9032077E619
:1011000026E0384868300068C0F340000028EED080
:1011100013E0FFF75DFC054608E0FFF759FC401BB4
:1011200041F28831884201D9032061E62D486830B8
:101130000068C0F340000028EFD1012F07D12948F3
:101140003830006820F0805026493831086000BFF0
:10115000A069002845D02348006800F00C0008284A
:101160005DD0A069022845D100201F490866FFF71D
:101170002FFC054606E0FFF72BFC401B022801D997
:10118000032035E6174808380068C0F3406000289F
:10119000F1D1D4E907010843616A40EA81110122D3
:1011A000A06AC2EB500041EA00412C20005D41EAF8
:1011B00000600C49091F086001200B490866FFF711
:1011C00007FC054606E0FFF703FC401B022801D997
:1011D00003200DE6034808380068C0F3406000288B
:1011E000F1D049E00838024000004742800E4742F3
:1011F00000700040002021490866FFF7E9FB054622
:1012000006E0FFF7E5FB401B022801D90320EFE5CC
:101210001B480068C0F340600028F2D12CE0A069B0
:10122000012800D1E4E51648001D0668A0690128E0
:1012300020D006F48001E06981421BD106F03F0115
:10124000206A814216D147F6C0703040616AB0EB27
:10125000811F0FD106F440310122A06AC2EB500079
:10126000B1EB004F06D106F070612C20005DB1EBB0
:10127000006F01D00120BBE50020B9E50000474226
:101280000038024010B504460CB9012010BD606A58
:1012900038B96068B0F5827F00D105E00021E161D6
:1012A00002E00021216161610021A16294F85100F6
:1012B00028B9002084F85000204600F047F80220AA
:1012C00084F851002068006820F040002168086020
:1012D000A08800F48270218901F404410843A189A7
:1012E00001F400610843217C01F002010843217DE3
:1012F00001F001010843218B01F400710843217FB3
:1013000001F0380108432021095D01F08001084304
:10131000218D01F400510843216808600421A0696F
:1013200001EA104094F8241001F0100108432168EC
:1013300048602068C06920F400602168C86100200E
:101340006065012084F8510000209FE710B586B049
:101350000446142101A8FFF73DF91B492068884283
:101360002FD100BF002000901848006840F4805042
:10137000164908600846006800F48050009000BFDD
:1013800000BF00BF0020009010481438006840F0F3
:1013900002000E49143908600846006800F0020097
:1013A000009000BF00BF3820019002200290002072
:1013B0000390032004900520059001A90448FFF73D
:1013C00009FA06B010BD0000003001404438024068
:1013D000000402402DE9FF5F0446884691461D4601
:1013E0000E9E012002900020019000BF94F8500052
:1013F000012803D1022004B0BDE8F09F012084F849
:10140000500000BFFFF7E4FA074694F851B0606857
:101410000390AA46BBF1010F0BD00398B0F5827F71
:1014200004D1A06810B9BBF1040F02D002200190D2
:10143000DBE0B8F1000F03D0B9F1000F00D015B90F
:1014400001200190D1E094F85100042802D0052039
:1014500084F8510000206065C4F83890E587A587BE
:10146000C4F83080E586A586206460642068006842
:1014700000F04000402805D02068006840F040009F
:1014800021680860E068B0F5006F4AD1606810B16B
:10149000BAF1010F09D1206B00882168C860206B68
:1014A000801C2063E08E401EE08633E02068806868
:1014B00000F00200022810D1E08E70B102980128DD
:1014C0000BD1206B00882168C860206B801C2063D2
:1014D000E08E401EE086002002902068806800F0C8
:1014E000010068B1E08F58B12068C068A16B088026
:1014F000A06B801CA063E08F401EE087012002905B
:10150000FFF766FAC01BB04204D3701C10B1032071
:1015100001906AE0E08E0028C8D1E08F0028C5D194
:101520004AE0606810B1BAF1010F09D1206B007870
:1015300021680873206B401C2063E08E401EE0860B
:1015400034E02068806800F00200022810D1E08EAC
:1015500070B1029801280BD1206B007821680873C4
:10156000206B401C2063E08E401EE086002002902D
:101570002068806800F0010068B1E08F58B12068F1
:10158000C068A16B0870A06B401CA063E08F401E78
:10159000E08701200290FFF71BFAC01BB04201D385
:1015A000701C00B916B9032001901EE0E08E0028DF
:1015B000C7D1E08F0028C4D13A463146204600F01A
:1015C000BDFA20B101200190202060650DE0A068E7
:1015D00050B900BF002000902068C06800902068CB
:1015E0008068009000BF00BF00BF012084F8510058
:1015F00000BF002084F8500000BF0198FBE670B5E2
:1016000004462546681EB0F1807F01D301200FE01B
:10161000681E4FF0E02148610F214FF0FF3000F0CD
:1016200037FD00204FF0E02188610720086100208D
:1016300070BD000030B502460B4600BF92F83C007A
:10164000012801D1022030BD012082F83C0000BFFA
:10165000022082F83D00106844681068816824F018
:1016600070041868044310684460184D1068A8425C
:101670001BD01068B0F1804F17D0154D1068A842EC
:1016800013D0144D1068A8420FD0134D1068A84213
:101690000BD0124D1068A84207D0114D1068A84217
:1016A00003D0104D1068A84205D121F08001586880
:1016B000014310688160012082F83D0000BF0020D6
:1016C00082F83C0000BF00BFBDE700000000014001
:1016D0000004004000080040000C004000040140ED
:1016E000004001400018004010B504460CB901202C
:1016F00010BD94F83D0028B9002084F83C00204635
:1017000000F026F8022084F83D00211D206800F03A
:1017100033FB012084F8460000BF84F83E0001211D
:101720003F200155402001554120015500BF00BF19
:10173000012084F8420043200155442001554520F2
:10174000015500BF012084F83D000020D0E70000D3
:1017500008B50A4A016891420FD100BF00210091EB
:101760000749096841F02001054A116011460968DE
:1017700001F02001009100BF00BF08BD001400402F
:101780004038024010B504460CB9012010BDA069D4
:1017900000B100E000BF94F83D0028B9002084F8B3
:1017A0003C00204600F028F8242084F83D00206802
:1017B000C06820F400502168C860204600F048FB53
:1017C0002068006920F49040216808612068406921
:1017D00020F02A00216848612068C06840F4005069
:1017E0002168C86000202064202084F83D0084F82F
:1017F0003E000020CAE7000010B586B00446142160
:1018000001A8FEF7E7FE1B492068884230D100BFDF
:10181000002000901848006840F010001649086049
:101820000846006800F01000009000BF00BF00BF35
:101830000020009010481438006840F001000E4964
:10184000143908600846006800F00100009000BFED
:1018500000BF4FF4C060019002200290002003906E
:10186000032004900720059001A90448FEF7B2FF69
:1018700006B010BD00100140443802400000024094
:1018800000BFFEE770B50446002500F0D0FDC4F3AC
:10189000074000F010F8C4F3072000F00CF804F043
:1018A000F80000F008F8002000F005F8054600F008
:1018B000C3FD284670BD10B50446204600F074F9FB
:1018C00010BD70B504460D4600F0B1FDC4F30740ED
:1018D000FFF7F1FFC4F30720FFF7EDFF04F0F80175
:1018E000091DC8B2FFF7E7FF2846FFF7E4FF00F045
:1018F000A3FD70BD00B587B0142102A8FEF76AFEF3
:1019000000BF002001905248006840F0100050498C
:1019100008600846006800F01000019000BF00BF9A
:1019200000BF002001900846006840F020000860D9
:101930000846006800F02000019000BF00BF00BF13
:10194000002001900846006840F0800008600846CA
:10195000006800F08000019000BF00BF00BF0020C1
:1019600001900846006840F00100086008460068E1
:1019700000F00100019000BF00BF00BF00200190F7
:101980000846006840F0400008600846006800F023
:101990004000019000BF00BF00BF0020019008463A
:1019A000006840F0020008600846006800F002008D
:1019B000019000BF00BF182002900120039000207A
:1019C0000490059002A92348FEF704FF012002902D
:1019D000039004900320059002A91F48FEF7FAFE29
:1019E0000220029000200390049002A91A48FEF7FA
:1019F000F1FE102002900120039004900020059039
:101A000002A91648FEF7E6FE4FF40070029001208E
:101A1000039000200490059002A91148FEF7DAFE19
:101A2000002218210B48FEF7CDFF012211460A487B
:101A3000FEF7C8FF012210210848FEF7C3FF00226D
:101A40004FF400710648FEF7BDFF07B000BD00006F
:101A500030380240001002400014024000000240F2
:101A60000018024010B50F480F4908604FF482700B
:101A7000486000210C488160C160022101610121A0
:101A80004161490281610821C16100210162416215
:101A900081620A21C162FFF7F5FB08B1FEF797FEEC
:101AA00010BD000000300140540000201CB5002093
:101AB000009001900E480F490860532048600021B3
:101AC0000C4881604FF6FF71C16000218161FFF712
:101AD0000BFE08B1FEF77BFE0020009001906946E6
:101AE0000448FFF7A7FD08B1FEF771FE1CBD00001A
:101AF00000140040AC00002010B50B480B490860F2
:101B00004FF4E1304860002108488160C160016104
:101B10000C21416100218161C161FFF733FE08B1F1
:101B2000FEF755FE10BD000000100140F40000203B
:101B300000BFFEE700BFFEE7704700007CB504462B
:101B40000D461646164800681821B0FBF1F01549FD
:101B5000B0FBF1F04FF47A71484301906068B0F542
:101B6000827F0DD12B46002280212046009600F076
:101B70002DF898B1606D40F02000606503207CBDB9
:101B800000BF019800B908E00198401E019020684C
:101B90008068C0F3C0100028F3D100BF0020EEE73A
:101BA0001000002040420F0001B582B000200190DB
:101BB000C820012301AA02A900900348FFF70AFCEC
:101BC0009DF804000EBD0000540000202DE9F84FE0
:101BD00004460D4690461E46DDF82890FEF7F8FEB6
:101BE000A0EB0900371AFEF7F3FE82462C48006886
:101BF000C0F3CB307843009045E0701C002842D001
:101C0000FEF7E6FEA0EB0A00B84200D2A7BB2068B0
:101C1000406820F0E000216848606068B0F5827F8D
:101C20000DD1A068B0F5004F03D0A068B0F5806F6B
:101C300005D12068006820F0400021680860A06A93
:101C4000B0F5005F0DD100BF2068006820F400509F
:101C5000216808602068006840F40050216808602E
:101C600000BF012084F8510000BF002084F850001C
:101C700000BF0320BDE8F88FFFE7009800B90027F8
:101C80000098401E0090206880682840A84201D13A
:101C9000012000E000204045AFD10020EAE700002D
:101CA00010000020704710B5FEF798FE10BD000030
:101CB00000B593B0302107A8FEF78CFC142102A8D0
:101CC000FEF788FC00BF002001902448006840F027
:101CD0008050224908600846006800F0805001905A
:101CE00000BF00BF00BF002001901D48006840F405
:101CF00080401B4908600846006800F4804001905D
:101D000000BF00BF012007900004089002200D9042
:101D100041050E9108210F914FF4A87110910221F5
:101D200011910421129107A8FFF75EF808B1FEF7A0
:101D30004EFD0F20029002200390002004904FF4EB
:101D4000A05005904FF480500690052102A8FEF7A0
:101D50000BFF08B1FEF73BFD13B000BD4038024059
:101D6000007000400348006840F4700001490860BA
:101D70007047000088ED00E010B50268294B9842DA
:101D80000ED0B0F1804F0BD0274B984208D0274B94
:101D9000984205D0264B984202D0264B984203D158
:101DA00022F070024B681A431E4B984220D0B0F1CB
:101DB000804F1DD01C4B98421AD01C4B984217D014
:101DC0001B4B984214D01B4B984211D01A4B98428F
:101DD0000ED01A4B98420BD0194B984208D0194B91
:101DE000984205D0184B984202D0184B984203D124
:101DF00022F44072CB681A4322F080034C6943EA14
:101E0000040202608B68C3620B688362054B9842D0
:101E100002D0084B984201D10B690363012343614F
:101E200010BD000000000140000400400008004018
:101E3000000C00400004014000400140004401400B
:101E40000048014000180040001C004000200040F5
:101E50002DE9F84F04462068006920F44050E168FD
:101E60000843216808612169A06808436169084343
:101E7000E169084300902068C06849F20C6188431A
:101E8000009908432168C8602068406920F44070C8
:101E9000A16908432168486176492068884203D0D7
:101EA00075492068884203D1FEF736FF814602E07B
:101EB000FEF722FF8146E069B0F5004F6CD10220A9
:101EC0006168A0FB015003461920A9FB0070014680
:101ED0002A463846FEF7D1F96421B0FBF1F04FEA0B
:101EE000001A02206168A0FB01510B461920A9FBD2
:101EF00000712A463846FEF7C0F983460220616821
:101F0000A0FB015003461920A9FB00712A46384660
:101F1000FEF7B3F96421B0FBF1F000EBC00101EB77
:101F20000010ABEB8000322101EBC0006421B0FB5C
:101F3000F1F000F0F8000AEB400A02206168A0FB13
:101F4000015003461920A9FB007001462A46384675
:101F5000FEF793F9834602206168A0FB0150034617
:101F60001920A9FB00712A463846FEF786F964213C
:101F7000B0FBF1F000EBC00101EB0010ABEB800017
:101F8000322101EBC0006421B0FBF1F000F007004A
:101F90005044216888606AE004206168A0FB015019
:101FA00003461920A9FB007001462A463846FEF771
:101FB00064F9824604206168A0FB015003461920A1
:101FC000A9FB007001462A463846FEF756F96421FF
:101FD000B0FBF1F000EBC00101EB0010AAEB8000B8
:101FE000322101EB00106421B0FBF1F000F0F00AA7
:101FF00004206168A0FB017003461920A9FB005171
:102000003A462846FEF739F96421B0FBF1F00AEBB5
:10201000001A04206168A0FB01510B461920A9FB9E
:1020200000712A463846FEF728F983460420616885
:10203000A0FB015003461920A9FB007001462A4667
:102040003846FEF71AF96421B0FBF1F000EBC0014D
:1020500001EB0010ABEB8000322101EB001064219A
:10206000B0FBF1F000F00F00504421688860BDE83B
:10207000F88F0000001001400014014000BFFEE78F
:1020800002480068C0F30220704700000CED00E039
:1020900010B5002804DB0A07130E054A135406E0A6
:1020A0000A07140E034A00F00F031B1FD45410BD7F
:1020B00000E400E018ED00E030380A2801D20120E9
:1020C00070470020704700BF704710B504464FF4BA
:1020D000847101EB44101021FFF7F3FB00BF4FF4B4
:1020E000847101EB4410FFF7CDFB0028F7D14FF4CA
:1020F000027101EB4410FF21FFF7E3FB10BD2DE956
:10210000F04105460C4616462078FF2808D1607835
:10211000FF2805D1A078FF2802D1E078FF2808D059
:10212000207828B9607818B9A07808B9E07800B1AB
:102130000EB900275CE00127217840F6084202EB47
:102140004510FFF7BEFB617840F6085202EB4510E0
:10215000FFF7B7FBA17840F6086202EB4510FFF7E6
:10216000B0FBE17840F6087202EB4510FFF7A9FBDF
:10217000310A41F2080202EB4510FFF7A2FBF1B26F
:1021800041F2081202EB4510FFF79BFB4FF48471FC
:1021900001EB45100421FFF794FB00BF4FF484715D
:1021A00001EB4510FFF76EFB0028F7D117E04FF465
:1021B000427101EB4510FFF765FB172800D116E0CF
:1021C000284600F0CDF800F0080040B14FF402714D
:1021D00001EB45100821FFF774FB002707E04FF4DF
:1021E000427101EB4510FFF74DFB1528DFD100BF11
:1021F0003846BDE8F08130B50446002504E04FF4D0
:102200007A7000F005F86D1CA542F8D330BD0000CF
:1022100070B5034600224FF0E02675690D4E367802
:1022200003FB06F44FF0E026B16910E04FF0E02622
:10223000B06988420BD0884202D20E1A324402E0C2
:102240002E1A0E4432440146A24200D300E0EDE7CC
:1022500000BF70BD1400002010B50024012000F064
:10226000B2F830B1132810D0172815D01C2838D157
:1022700033E01D4802880088401C1B4B1880202337
:102280000121084600F050FC2BE01848028818494C
:102290000120FFF734FF24E0012000F061F800F096
:1022A000010018B10121084600F0E3FA012000F016
:1022B00060F80446002C0FDD22460E49012000F094
:1022C00074F900200B4908550BA0FEF74DF8224683
:1022D0000849012000F0EAF903E00120FFF7F5FECC
:1022E00000BF00BF10BD00003E00002044000020E1
:1022F000400000204E05002025730D0A000000005C
:1023000000BF054A126802F04002002AF9D0C2B2AA
:10231000014B5A60704700000010014010B50446A0
:1023200004222146900100F0B9FC10BD014602488C
:1023300030F81100704700004E0D002010B5044623
:10234000042221464FF4706000F0A8FC10BD10B5C7
:102350000446042221464FF4A06000F09FFC10BD0B
:1023600010B504464FF4027101EB4410FFF78AFAEE
:1023700010BD70B504460025002600BF42F208617A
:1023800001EB4410FFF77EFA064642F2087101EBBA
:102390004410FFF777FA00EB062086B27EB142F2D6
:1023A000086101EB4410FFF76DFA054642F208712F
:1023B00001EB4410FFF766FA00EB052085B2B54249
:1023C000DCD1284670BD10B504464FF4427101EBD4
:1023D0004410FFF757FA10BD70B5044600250026DB
:1023E00000BF42F2080101EB4410FFF74BFA06462A
:1023F00042F2081101EB4410FFF744FA00EB06200B
:1024000086B27EB142F2080101EB4410FFF73AFABE
:10241000054642F2081101EB4410FFF733FA00EBD6
:10242000052085B2B542DCD1284670BD704710B595
:10243000002000F01FFC10BD10B5012000F01AFCB8
:1024400010BD000008B5FEF7D5FAFFF731FCFFF725
:1024500051FAFFF707FBFFF729FBFFF74DFB15A02C
:10246000FDF782FFFFF7E2FF00F00AF900F046FBFC
:1024700000F00AFA1A491B4800F0B8FB1AA0FDF751
:1024800073FF2648C078009024488378427801780A
:1024900023A0FDF769FF2848018828A0FDF764FF05
:1024A0002AA0FDF761FF38A0FDF75EFF01E0FFF70E
:1024B000D3FEFCE72020D2B0BBF0CDF8C2E7CACAF9
:1024C000C5E4B0E620CDF8C2E7B3F5CABCBBAF2087
:1024D00044656D6F2056312E30200D0A000000003B
:1024E0001D0000201500002020B5E7C4D4D7F7CE8A
:1024F000AA544350B7FECEF1C6F72CC8C3573535A2
:102500003030D7F7CEAA20544350BFCDBBA7B6CBAF
:10251000C8A5C1ACBDD3200D0A00000040000020BA
:1025200020B7FECEF1C6F749503A25642E25642E19
:1025300025642E25640D0A004400002020BCE0CC58
:10254000FDB6CBBFDA3A2564200D0A0020C1ACBD30
:10255000D3B3C9B9A6BAF3A3ACB7FECEF1C6F7B7E9
:10256000A2CBCDCAFDBEDDB8F85735353030A3ACAF
:102570005735353030BDABB7B5BBD8B6D4D3A6CA06
:10258000FDBEDD200D0A000020D3A6D3C3B3CCD0FE
:10259000F2D6B4D0D0D6D0A1ADA1AD0D0A000000C6
:1025A00010B50A20FFF734FE10BD2DE9F0410446B6
:1025B0000E4615460027002D15DD2A4631462046D9
:1025C00000F014F84FF4847101EB44104021FFF740
:1025D00078F900BF4FF4847101EB4410FFF752F912
:1025E0000028F7D12F463846BDE8F0812DE9F041AB
:1025F00004460F4616460025A8462EB9214618A0C7
:10260000FDF7B2FEBDE8F08142F6080101EB44108F
:10261000FFF738F9054642F6081101EB4410FFF7C1
:1026200031F900EB052085B2280200EB441000F1DF
:10263000180832463946404600F030FBA81985B2EA
:10264000290A42F6080202EB4410FFF73AF9E9B210
:1026500042F6081202EB4410FFF733F900BFD1E74E
:1026600043483A20256420556E657870656374652B
:102670006432206C656E67746820300D0A000000BB
:1026800010B5002201210848FEF79CF90220FFF74F
:10269000BFFD012211460448FEF794F94FF4C860CB
:1026A000FFF7A9FD10BD0000001402402DE9F0471E
:1026B00004468846164600250027A9462046FFF70F
:1026C00035FEB04204DA2046FFF730FE074600E050
:1026D000374600BF2046FFF77FFE81464FF4427128
:1026E00001EB4410FFF7CEF80546172D03D01C2D43
:1026F00001D0002701E0B945ECDB00BF3A46414676
:10270000204600F049F84FF4847101EB4410202179
:10271000FFF7D7F800BF4FF4847101EB4410FFF7C7
:10272000B1F80028F7D113E04FF4427101EB4410E7
:10273000FFF7A8F80546172D0AD01C2D08D011A0C8
:10274000FDF712FE2046FFF7C0FC0020BDE8F08731
:102750004FF4027101EB4410FFF794F800F0100001
:102760001028E1D14FF4027101EB44101021FFF762
:10277000A8F84FF4027101EB44101021FFF7A1F803
:102780003846E3E753454E445F4F4B2050726F622B
:102790006C656D21210D0A002DE9F04104460F46BC
:1027A00016460025A8462EB9214618A0FDF7DCFDE7
:1027B000BDE8F08142F2084101EB4410FFF762F8F6
:1027C000054642F2085101EB4410FFF75BF800EBBD
:1027D000052085B2280200EB441000F110083246B3
:1027E0003946404600F08EFAA81985B2290A42F20D
:1027F000084202EB4410FFF764F8E9B242F20852D3
:1028000002EB4410FFF75DF800BFD1E743483A20E0
:10281000256420556E657870656374656431206C3D
:10282000656E67746820300D0A00000010B504461C
:1028300004222146900100F065FA10BD10B504464F
:10284000062221464FF4106000F05CFA10BD10B56E
:102850000446042221464FF4706000F053FA10BD84
:1028600010B50446042221464FF4A06000F04AFA55
:1028700010BD70B504460D464FF4027101EB4410D3
:102880002946FFF71EF870BD08B5534853490A683A
:1028900002608988818052490968C0F80610514950
:1028A0000968C0F80A1050490968C0F80E104F496D
:1028B0000968C0F812104E48007810B94DA0FDF715
:1028C00053FD4B480078022825D1FFF769FE514897
:1028D0000078D8B94F484078082817D14D488078FB
:1028E000DC2813D14CA0FDF73FFD3B484949D1F806
:1028F0000610C0F806104749D1F80A10C0F80A10AF
:102900004449D1F80E10C0F80E1004E047A0FDF7BE
:102910002BFD00F02BFA36480078012822D15148CF
:102920000078012818D150A0FDF71EFD2A48524911
:10293000D1F80610C0F806104F49D1F80A10C0F8B7
:102940000A104D49D1F80E10C0F80E104A49D1F8BE
:102950001210C0F8121005E048A0FDF705FD25A0F3
:10296000FDF702FD01201C49887600211A48C17636
:102970000A30FFF775FF18480E30FFF757FF16486B
:10298000801DFFF764FF1648FFF7D8FC1448C07895
:102990000090134883784278017840A0FDF7E4FC6A
:1029A0001048FFF7D4FC0F48C07800900D4883789A
:1029B0004278017841A0FDF7D7FC0B48FFF7AEFC49
:1029C0000948C0780090084883784278017843A08D
:1029D000FDF7CAFC08BD00006E0D00202800002095
:1029E0002E00002032000020360000203A00002097
:1029F0004600002020CAB9D3C3B6A8D2E5B5C44961
:102A000050D0C5CFA2C5E4D6C357353530300D0AF6
:102A1000000000008A0D00202049502066726F6D72
:102A200020454550524F4D0D0A00000020454550AD
:102A3000524F4DCEB4C5E4D6C32CCAB9D3C3B6A841
:102A4000D2E5B5C44950D0C5CFA2C5E4D6C35735E9
:102A50003530302CB2A2D0B4C8EB454550524F4D62
:102A60000D0A0000470000202049502066726F6D5B
:102A700020444843500D0A003801002020444843B8
:102A800050D7D3B3CCD0F2CEB4D4CBD0D02CBBF271
:102A9000D5DFB2BBB3C9B9A60D0A00002057353542
:102AA0003030204950B5D8D6B72020203A202564B0
:102AB0002E25642E25642E25640D0A0020573535F9
:102AC000303020D7D3CDF8D1DAC2EB203A202564BC
:102AD0002E25642E25642E25640D0A0020573535D9
:102AE000303020CDF8B9D820202020203A2025648D
:102AF0002E25642E25642E25640D0A0010B5074886
:102B000007490A68026089888180FFF797FE0548B7
:102B100003490A6802608988818010BD6E0D00201B
:102B200028000020380100202DE9F04104460D4620
:102B30001646984605F00F0001280FD005F00F004B
:102B400002280BD005F00F00032807D005F00F0076
:102B5000042803D005F00F00052841D12046FFF7D7
:102B6000B4FA45EA0801082202EB4410FEF7A9FE78
:102B700076B1310A4FF4816202EB4410FEF7A1FEF8
:102B8000F1B24FF4A16202EB4410FEF79AFE15E099
:102B900015480088401C144908800A461288110A0A
:102BA0004FF4816202EB4410FEF78BFE0E4A11785F
:102BB0004FF4A16202EB4410FEF783FE4FF48471E0
:102BC00001EB44100121FEF77CFE00BF4FF484713D
:102BD00001EB4410FEF756FE0028F7D1012700E074
:102BE00000273846BDE8F0813E0000202DE9F04185
:102BF00005460E460027B846002433E0295D41F61D
:102C0000087202EB4410FEF75CFE315D41F608628B
:102C100002EB4410FEF755FE0020144921F8140081
:102C2000134921F81400B7F5804F07DC285D4FF6F3
:102C3000FF7101EA80200D4921F81400B8F5804F9A
:102C400007DC305D4FF6FF7101EA8020084921F86A
:102C50001400064830F814000744054830F8140002
:102C60008044641C082CC9DBBDE8F0814E0D0020B7
:102C70005E0D002010B504462CB900221021064834
:102C8000FDF7A0FE06E0012C04D10122102102482C
:102C9000FDF798FE10BD0000000002402DE9F04154
:102CA00004460F461546002615B910A0FDF75CFB3B
:102CB000FFF7BDFBC4F30740FEF7FDFDC4F307209B
:102CC000FEF7F9FD04F0F800FEF7F5FD002605E03B
:102CD0000020FEF7F0FDB855701C86B2AE42F7DB5F
:102CE000FFF7AAFB2846BDE8F0810000556E657825
:102CF00070656374656432206C656E67746820303B
:102D00000D0A00002DE9F04104460F461546002645
:102D100015B910A0FDF728FBFFF789FBC4F30740A6
:102D2000FEF7C9FDC4F30720FEF7C5FD04F0F80166
:102D3000091DC8B2FEF7BFFD002604E0B85DFEF72E
:102D4000BAFD701C86B2AE42F8DBFFF775FB284671
:102D5000BDE8F081556E65787065637465643220F6
:102D60006C656E67746820300D0A000010B5002491
:102D70000A20FFF740FA10BD4FF04070E1EE100A54
:102D80007047000000000000000001020304060775
:102D9000080900000000010203040400000800000C
:102DA000000000000002000100001000CC2D00080F
:102DB0000000002054000000C4010008202E00087C
:102DC00054000020AC130000E001000800000000E7
:102DD0000000000010000000010000000024F400CA
:102DE00000020202020202020202020202020202C5
:102DF000020000000008DC111111C0A80258FFFFFA
:102E0000FF00C0A80201727272728813C0A8020B80
:102E10008813000000000000000000000000000017
:040000050800018965
:00000001FF
