:020000040800F2
:10000000184A0020290200083F150008490300088B
:100010003D15000845070008ED1900080000000024
:100020000000000000000000000000003B0200088B
:10003000470700080000000097020008611600084A
:10004000430200084302000843020008430200087C
:10005000430200084302000843020008430200086C
:10006000430200084302000843020008430200085C
:10007000430200084302000843020008430200084C
:10008000430200084302000843020008430200083C
:10009000430200084302000843020008430200082C
:1000A00043020008951700084302000843020008B5
:1000B000430200084302000843020008430200080C
:1000C00043020008430200084302000843020008FC
:1000D00043020008430200084302000843020008EC
:1000E00043020008430200084302000843020008DC
:1000F00043020008430200084302000843020008CC
:1001000043020008430200084302000843020008BB
:1001100043020008430200084302000843020008AB
:10012000430200084302000843020008430200089B
:10013000430200084302000843020008430200088B
:10014000430200084302000843020008430200087B
:10015000430200084302000843020008430200086B
:10016000430200084302000843020008430200085B
:100170004302000843020008430200080000000098
:10018000430200084302000800F002F800F03CF8C7
:100190000AA090E8000C82448344AAF10107DA45E2
:1001A00001D100F031F8AFF2090EBAE80F0013F0F8
:1001B000010F18BFFB1A43F001031847685E0000E7
:1001C000885E0000103A24BF78C878C1FAD8520778
:1001D00024BF30C830C144BF04680C6070470000C1
:1001E0000023002400250026103A28BF78C1FBD840
:1001F000520728BF30C148BF0B6070471FB505F0DC
:1002000080FA1FBD10B510BD00F05EFA1146FFF771
:10021000F5FF00F092FA00F07CFA03B4FFF7F2FF6A
:1002200003BC00F083FA00000948804709480047F2
:10023000FEE7FEE7FEE7FEE7FEE7FEE7FEE7FEE796
:10024000FEE7FEE704480549054A064B70470000F3
:10025000851700088901000818440020184A00206A
:100260001846002018460020EFF3108072B6704741
:1002700080F310887047424A1368012B04D04FF076
:10028000010313603F4A10603F4A11603F484FF03E
:10029000805101607047EFF3108272B638480168F0
:1002A00051B34FF0000101603648016891B1EFF39E
:1002B00009811EF0100F08BF21ED108B21E9F00F0E
:1002C0004FF000041EF0100F08BF012441F8044D48
:1002D000006801602C490968096808C9B1E8F00F95
:1002E000002B18BFB1EC108B81F309884EF0100E73
:1002F000002B18BF2EF0100E82F310884EF0040E63
:10030000704721490860EFF3148222F0040282F35F
:1003100014881C494FF00000086019494FF0010093
:1003200008601B481B49D0F8002041EA0201016027
:1003300016484FF08051016017480068006880F34C
:10034000088861B662B670471EF0040F0CBFEFF369
:100350000880EFF3098020E9F00F40F804ED40F841
:1003600004ED1EF0040F0CBF80F3088880F30988A9
:1003700000B502F0F9FF5DF804EB4EF0040E704793
:10038000B4000020AC000020B000002004ED00E02C
:1003900020ED00E00000FFFF08ED00E053EA020C52
:1003A00000F069802DE9F04B4FF00006002B1FBFD5
:1003B000B3FA83F503FA05F424FA05F65E4012BF9A
:1003C0001643B2FA82F502FA05F4C5F120051EBF04
:1003D00022FA05FC44EA0C04203556EA044C4FEAA4
:1003E000144418BF641C4FF000084FF000099042FD
:1003F00071EB030C39D3002919BFB1FA81F701FA67
:1004000007F6B0FA80F700FA07F6C7F120071EBF1B
:1004100020FA07FC46EA0C062037B6FBF4FCA7EBF3
:100420000507103F07F01F0BCBF120060CFA0BFB62
:100430002CFA06F644BFB3460026202FA4BF5E4622
:100440004FF0000B5BEA060C08BF4FF0010B19EBF5
:100450000B09ABFB027C48EB0608C01B06FB02CC79
:100460000BFB03CC71EB0C01C1E70B460246414686
:100470004846BDE8F08B13B54FF000004FF0000187
:10048000AFF30080BDE81C40704710B5431C02E08C
:1004900010F8011B71B18107FAD14FF0013202C887
:1004A0008C1A8C4314EAC211F9D0C01A0A0603D080
:1004B000C01E10BDC01A10BD0A0401D0801E10BDA0
:1004C0000902FCD0401E10BD40EA010370B59B0735
:1004D0002ED14FF00136042A2AD308C810C99D1B1B
:1004E0009D43121F15EAC61517D0D8B2E1B2401AC3
:1004F00050EA056110D198B2A1B2401A50EA054104
:100500000AD123F07F4024F07F41401A50EA0521B0
:1005100002D1180EA0EB146070BDA342DBD018BA54
:1005200021BA884201D9012070BD4FF0FF3070BD63
:100530000AB9002070BD10F8013B11F8014B63B1FE
:10054000A3420AD1521E08D010F8013B11F8014B0A
:100550001BB1A34201D1521EEDD1181B70BD421E2A
:1005600012F8013F002BFBD111F8013B002B02F8E0
:10057000013BF9D1704710B5203AC0F00B80B1E8CB
:100580001850203AA0E81850B1E81850A0E81850C8
:10059000BFF4F5AF5FEA027C24BFB1E81850A0E8D1
:1005A000185044BF18C918C0BDE810405FEA827CEB
:1005B00024BF51F8043B40F8043B08BF7047D20702
:1005C00028BF31F8023B48BF11F8012B28BF20F8A3
:1005D000023B48BF00F8012B70474FF0000204298E
:1005E000C0F0128010F0030C00F01B80CCF1040C62
:1005F000BCF1020F18BF00F8012BA8BF20F8022B96
:10060000A1EB0C0100F00DB85FEAC17C24BF00F83B
:10061000012B00F8012B48BF00F8012B70474FF069
:10062000000200B5134694469646203922BFA0E842
:100630000C50A0E80C50B1F12001BFF4F7AF09074E
:1006400028BFA0E80C5048BF0CC05DF804EB89003F
:1006500028BF40F8042B08BF704748BF20F8022B82
:1006600011F0804F18BF00F8012B704710B50446F9
:1006700010F0030F08BF11F0030F40F015804FF08A
:10068000013E121FC0F20E8051F8043BA3EB0E0C8A
:100690002CEA030C1CEACE1C08BF40F8043BF0D047
:1006A000A1F1040102F10402521E08DB11F8013B22
:1006B000002B00F8013BF7D11146FFF78EFF2046D3
:1006C00010BD704770477047754600F02BF8AE4676
:1006D00005006946534620F00700854618B020B54E
:1006E000FFF7B0FDBDE820404FF000064FF00007D7
:1006F0004FF000084FF0000B21F00701AC46ACE8CA
:10070000C009ACE8C009ACE8C009ACE8C0098D4636
:10071000704710B50446AFF300802046BDE8104096
:10072000FFF77BBD00487047B44300200149182003
:10073000ABBEFEE726000200704710B504F0FAFEDB
:10074000002010BDFEE7704772B6FEE72DE9F84FB6
:10075000DFF8BCA1002201250AF1040B03264FF0AB
:100760000F090BF1040E00BF0B6805FA02F42340D9
:10077000A34270D10F7907F00307012F01D0022F98
:1007800016D187684FEA420806FA08FC27EA0C07E8
:10079000D1F80CC00CFA08FC4CEA070CC0F808C0F1
:1007A0004768A7430C79C4F3001494403C43446069
:1007B0000C79E443A4070AD0C4684FEA420C06FA55
:1007C0000CF7BC438F6807FA0CF72743C7600C7916
:1007D00004F00304022C12D1D40800EB840CDCF8E2
:1007E00020405707FF0E09FA07F824EA0804D1F859
:1007F000108008FA07F848EA0408CCF8208004685A
:100800004FEA420C06FA0CF7BC430F7907F00307D6
:1008100007FA0CF7274307604C6814F4403F70D088
:100820003C4C276847F480472760246822F0030780
:1008300004F480440094384C07EB040CDCF80848BE
:1008400097074FEA177809FA08F7BC43334FB842C5
:1008500002D1002724E054E0314FB84201D10127F2
:100860001EE0304FB84201D1022719E02E4FB842A6
:1008700001D1032714E02D4FB84201D104270FE026
:100880002B4FB84201D105270AE02A4FB84201D1C7
:10089000062705E0284FB84201D1072700E00827C6
:1008A00007FA08F72743CCF80878DAF800405746EB
:1008B000D1F804C09C435FEACC3C00D51C433C60AB
:1008C000DBF800405F46D1F804C09C435FEA8C3CF3
:1008D00000D51C433C60DEF800407746D1F804C0E8
:1008E0009C435FEACC2C00D51C433C60084F0C377E
:1008F0003C68D1F804C09C435FEA8C2C00D51C43B3
:100900003C60521C102AFFF42FAFBDE8F88F0000A6
:10091000003C0140443802400030014000000240E9
:100920000004024000080240000C02400010024097
:100930000014024000180240001C0240426921EAF3
:1009400002030A4043EA0241816170470AB18161B2
:1009500070470904FBE70000014880687047000009
:1009600014000020024881680278114481607047B9
:10097000140000200B4810B5016841F400710160BB
:10098000016841F480610160016841F48071016097
:10099000032000F089F80F2000F006F800F03EF880
:1009A000002010BD003C024010B5014688B0002276
:1009B000192000F059F8192000F048F813480024D5
:1009C000016841F001010160006805A900F0010023
:1009D0000690684600F014F900F048F90C49400010
:1009E000B0FBF1F10C480B4A491E026040F2E732BD
:1009F000C0E90324C0E9011400F044FB10B1012058
:100A000008B010BD044800F06BFBF9E74438024021
:100A100040420F0000000140140100200A4808B5C0
:100A2000016841F480410160006800F4804000905A
:100A30000548001F016841F080510160006800F026
:100A40008050009008BD000044380240002809DBB7
:100A500000F01F02012191404009800000F1E020D8
:100A6000C0F8001170470000F0B40E4B1B680C4634
:100A7000C3F30223C3F10705042D00D90425191D72
:100A8000072901D2002300E0DB1E012606FA05F14A
:100A9000491E214099409E40761E16403143F0BCCD
:100AA00000F0A5BF0CED00E0064900F00702086861
:100AB0004FF6FF03184040EA0220034A1043086043
:100AC000704700000CED00E00000FA052DE9F0474A
:100AD0000E46050065D0DFF81481D8F80000F7B2A3
:100AE00000F00700B04207D288F80070D8F8000084
:100AF00000F00700B04254D128683D4C810712D560
:100B0000400703D5206840F4E050206028780007B3
:100B100003D5206840F4604020602068A96820F078
:100B2000F000084320602878C0072DD0304968685D
:100B30000839012812D0022813D0032811D00968DF
:100B4000890700292DDA216821F003010143216082
:100B5000FFF702FF814641F2883A0EE009688903F7
:100B6000EFE709688901ECE7FFF7F6FEA0EB090162
:100B7000514502D90320BDE8F0872068696800F07C
:100B80000C00B0EB810FEFD1D8F80010404601F017
:100B90000701B14207D90770006800F00700B042B2
:100BA00001D00120E7E72878400705D52068E968EB
:100BB00020F4E050084320602878000706D520681C
:100BC000296920F4604040EAC100206000F05EF82E
:100BD0002168084AC1F30311515CC8400649086006
:100BE00006480068FFF7E0FE0020C4E7003C024032
:100BF000083802400C570008200000201800002090
:100C00000F2202600C4A136803F003034360136869
:100C100003F0F0038360136803F4E053C3601268C9
:100C20004FF4E05303EAD20202610448006800F086
:100C3000070008607047000008380240003C02408E
:100C40000148006870470000200000200448054962
:100C500000680968044AC1F38221515CC8407047AA
:100C600020000020083802401C57000804480549AD
:100C700000680968044AC1F34231515CC8407047BA
:100C800020000020083802401C570008154810B505
:100C9000006810F00C02144813D04110042A0FD041
:100CA000082A0ED10F4C241F2268236802F03F024D
:100CB0005B0207D52068C0F38810A0FB010106E0A5
:100CC000084610BD2168C1F38811A1FB0001002373
:100CD000FFF764FB2168C1F30141491C4900B0FBE7
:100CE000F1F010BD083802400024F4002DE9F84F5F
:100CF00004006ED02078DFF84C93C007A9F10405FA
:100D00004AD009F104000168C1F38101012908D02A
:100D10000068C0F3810002280AD1D9F8000040021F
:100D200006D52868800337D560680028E1D033E015
:100D30006068B0F5803F10D0B0F5A02F286810D0C3
:100D400020F480302860286820F4802028606068C3
:100D5000A8B1FFF701FE06460DE0286840F4803098
:100D6000F4E740F480202860F7E700BFFFF7F4FDC8
:100D7000801B642873D828688003F7D50CE0FFF740
:100D8000EBFD064605E000BFFFF7E6FD801B64288B
:100D9000F0D828688003F7D42078DFF8AC82800789
:100DA0004FF0000A3ED5A748001D016811F00C0F56
:100DB00008D00068C0F3810002280BD1D9F80000E8
:100DC000400207D42868800716D5E068012800D1C2
:100DD00012E033E1E068B8B10120C8F80000FFF785
:100DE000BBFD064605E000BFFFF7B6FD801B0228ED
:100DF000C0D828688007F7D52868216920F0F80056
:100E000040EAC10028600DE0C8F800A0FFF7A4FD8B
:100E1000064604E0FFF7A0FD801B02281FD82868C3
:100E20008007F7D42078000722D5864F874861696C
:100E3000703771B101210160FFF78EFD064604E0B5
:100E4000FFF78AFD801B022809D838688007F7D58C
:100E50000EE0C0F800A0FFF77FFD064605E082E047
:100E6000FFF77AFD801B02287DD838688007F7D409
:100E70002078400768D5DFF8CCB100270BF13C0B98
:100E8000DBF80000C0000BD4DBF8001041F080510B
:100E9000CBF80010DBF80000012700F08050009034
:100EA0006B4E3068C00510D4306840F480703060FC
:100EB000FFF752FD009005E0FFF74EFD0099401A44
:100EC000022850D83068C005F6D55E4EA0686C3652
:100ED00001280FD00528306810D020F001003060C4
:100EE000306820F004003060A068B8B1FFF734FD2E
:100EF00000900FE0306840F00100F4E740F004009B
:100F00003060F7E7FFF728FD0099411A41F2883079
:100F1000814266D830688007F4D50EE0FFF71CFDEB
:100F2000009007E0FFF718FD0099411A41F2883060
:100F3000814256D830688007F4D42FB1DBF8001016
:100F400021F08051CBF80010A069C8B33D49091DBC
:100F50000968C1F3810102294AD00228504607D00E
:100F6000C8F8600000E03CE0FFF7F6FC04463BE018
:100F70004746C8F86000FFF7EFFC064605E000BFF3
:100F8000FFF7EAFC801B02282BD828688001F7D4E1
:100F9000D4E907010843A16A2E4A490802EB01413E
:100FA000626A41EA8211084394F82C1040EA016118
:100FB000C9F8001001203866FFF7CEFC044606E0B1
:100FC0003EE000BFFFF7C8FC001B022809D82868D4
:100FD0008001F7D534E000BFFFF7BEFC001B0228FC
:100FE00002D90320BDE8F88F28688001F4D427E0F7
:100FF0000128F7D0D9F80000E26900F4800191429D
:101000001CD1226A00F03F01914217D147F6C0710E
:10101000626A0140B1EB821F10D1A26A4FF0FF3328
:1010200000F4403103EB5202B1EB024F06D194F8C9
:101030002C1000F07060B0EB016F01D00120D1E7FF
:101040000020CFE70438024000004742800E4742AC
:10105000007000400000FFFF10B5401EB0F1807F1F
:1010600001D3012010BD4FF0E02460610F21601713
:1010700000F0BDFC0020A06107202061002010BD11
:101080007047704710B5040003D094F83D0010B1CC
:1010900007E0012010BD002084F83C00204600F04D
:1010A0001EF8022084F83D00211D206800F078FB26
:1010B000012084F8460084F83E0084F83F0084F85C
:1010C000400084F8410084F8420084F8430084F82A
:1010D000440084F8450084F83D00002010BD7047AE
:1010E00090F83D10012901D001207047022180F8BD
:1010F0003D100168CA6842F00102CA6000681149E7
:10110000884214D0B0F1804F11D00F4988420ED0E0
:101110000E4988420BD00E49884208D00D498842BA
:1011200005D00D49884202D00C49884204D181681B
:1011300001F00701062903D0016841F001010160B7
:1011400000207047000001400004004000080040FB
:10115000000C004000040140004001400018004025
:10116000704770B50446006801694FF00005C94337
:10117000890715D4C168C943890711D4E91E0161E3
:1011800001202077206880698007204602D0FFF781
:10119000E7FF04E000F098F8204600F096F8257785
:1011A00020680169C943490717D4C168C943490781
:1011B00013D46FF004010161022020772068806958
:1011C00010F4407F204602D0FFF7CAFF04E000F091
:1011D0007BF8204600F079F8257720680169C9433B
:1011E000090716D4C168C943090712D46FF0080172
:1011F0000161042020772068C0698007204602D062
:10120000FFF7AEFF04E000F05FF8204600F05DF865
:10121000257720680169C943C90617D4C168C94345
:10122000C90613D46FF010010161082020772068EF
:10123000C06910F4407F204602D0FFF791FF04E020
:1012400000F042F8204600F040F825772068016958
:10125000C943C90708D1C168C943C90704D1891E58
:101260000161204600F032F820680169C94309068F
:1012700009D4C168C943090605D46FF08001016132
:101280002046FFF7FDFE20680169C943490609D4DD
:10129000C168C943490605D46FF040010161204689
:1012A00000F01EF820680169C94389060BD4C168A3
:1012B000C943890607D46FF0200101612046BDE8CB
:1012C0007040FFF7DEBE70BD70477047006803498D
:1012D000884201D1FFF746BB704700000000014083
:1012E000704770B5040004D094F83D00002510B19B
:1012F00006E0012070BD84F83C50204600F022F842
:10130000242084F83D002068C16821F40051C160A8
:10131000204600F0A9FA2068016921F4904101619A
:101320002068416921F02A0141612068C16841F4C7
:101330000051C1602564202084F83D0084F83E00FF
:10134000002070BD10B586B0044614216846FFF732
:1013500066F914492068884221D1134800210268A7
:1013600042F010020260006800F0100005900E4884
:101370001438026842F001020260006800F00100C7
:1013800005904FF4C06000900220CDE901010320D8
:1013900003900720049069460448FFF7D7F906B088
:1013A00010BD00000010014044380240000002401F
:1013B0002DE9F843044690F83D001F4616460D46B9
:1013C00020284CD1C5B1BEB194F83C00012846D0CC
:1013D000012084F83C004FF00008C4F84080212030
:1013E00084F83D00FFF7B8FAA6848146E684A06839
:1013F000B0F5805F03D004E00120BDE8F8832069E8
:1014000028B12E465FF0000584F83C800EE00026EF
:10141000FAE78021204600F0ADFAA0B9AEB116F887
:10142000010B21684860E08C401EE084E08C4B4654
:101430004FF0000200970028EBD14FF0400120460A
:1014400000F098FA30B10320D7E735F8020BC0F36B
:101450000800E6E7202084F83D000020CDE70220C8
:10146000CBE70000F0B587B014216846FFF7D7F846
:1014700021480024016841F010010160016801F079
:1014800010010591016841F080010160016801F0DF
:1014900080010591016841F001010160016801F0DE
:1014A00001010591016841F04001016000680125DA
:1014B00000F04000059018200090CDE901540F4F36
:1014C000694638460394FFF741F96E020096CDE96C
:1014D000015403940A4C69462046FFF737F901226C
:1014E00018213846FFF732FA012231462046FFF72D
:1014F0002DFA07B0F0BD0000303802400010024065
:10150000001802400C4810B50A4901604FF4E1315F
:101510004160002181600C22C160C0E90412816138
:10152000C161FFF7DEFE002803D0BDE81040FFF7E1
:101530000BB910BD00100140D0000020FEE7FEE70F
:1015400010B506A002F06AF8094C206802F0D4FF3A
:101550002069BDE8104002F089BC00005357207498
:10156000696D65722074696D656F75740A0000009D
:10157000000000202DE9FC410022114622A002F0CB
:10158000EBFB254C206110B124A002F047F80120AC
:101590001425CDE90005460233460022234924A044
:1015A00002F07AFF4FF0FF37206058B303F098F94C
:1015B0000220CDE90005334600221F491FA002F09A
:1015C0006BFF6060F0B103F08BF90320CDE90005FB
:1015D000334600221B491CA002F05EFFA06088B1C8
:1015E00003F07EF9042000904FF4FA6300221849BA
:1015F00018A003F0E7FBE06020B103F0BBFC002083
:10160000BDE8FC813846FBE773656D5F636C6F7303
:10161000655F6C65643300000000002073656D2019
:10162000697320637265617465640A004D22000865
:101630006C65643100000000692200086C6564324A
:1016400000000000852200086C6564330000000083
:101650004115000853575F74696D65720000000002
:1016600010B501F0B3FF03F0B5FABDE8104001F08A
:10167000C7BF000030B593B030216846FEF7CFFFFA
:1016800014210CA8FEF7CBFF1E480025016841F08D
:1016900080510160006800F0805011901A48016884
:1016A00041F4804101600068022400F48040119000
:1016B00001200090000401908001CDE9064008203F
:1016C00008904FF4A870CDE9090404200B906846F7
:1016D000FFF70CFB08B172B6FEE70CA90F2081E8FA
:1016E00031004FF4A0500F904FF48050109005211E
:1016F0000CA8FFF7EBF9002801D072B6FEE713B093
:1017000030BD0000403802400070004070B5194CF8
:101710002068194A10F00C01184804D0551004290B
:1017200003D0082903D002601BE0056019E01149CD
:10173000091F0B68C3F380560B6803F03F0316B113
:10174000B5FBF3F201E0B2FBF3F20B680968C3F3F7
:1017500088135A43C1F30141491C4900B2FBF1F11E
:1017600001602168064AC1F30311515C0268CA4056
:10177000026070BD083802400024F4002000002000
:101780000C5700080248016841F47001016070477D
:1017900088ED00E00148FFF7E4BC000014010020E0
:1017A000F0B50268254C264D264E274F274B4FF0AB
:1017B000804CA04209D0604507D0A84205D0B04275
:1017C00003D0B84201D0984204D122F0700E4A688A
:1017D00042EA0E02A0421BD0604519D0A84217D0A1
:1017E000B04215D0B84213D0984211D0184DA8423B
:1017F0000ED0184DA8420BD0174DA84208D0174D57
:10180000A84205D0164DA84202D0164DA84203D1D9
:1018100022F44075CA682A434D6922F080022A43A7
:1018200002608A68C2620A688262A04201D098425D
:1018300001D10969016301214161F0BD000001404E
:101840000004004000080040000C0040000401407B
:1018500000400140004401400048014000180040A1
:10186000001C00400020004070B50446006801697B
:10187000E26821F44051114301612169A068E269E5
:1018800008436169114308432168CA6849F20C633F
:101890009A430243CA6020684169A26921F44071F9
:1018A0001143416131492068884202D03049884261
:1018B00002D1FFF7DBF901E0FFF7C8F9E269002385
:1018C000192164253226B2F5004F626828D0A0FBAA
:1018D0000101930F9200FEF761FD0146B0FBF5F0A8
:1018E0006FF01802504301EB800006EB0010B0FBD4
:1018F000F5F000F0F002B1FBF5F002EB0012B1FBE5
:10190000F5F06FF01803584301EB800006EB001070
:10191000B0FBF5F000F00F0021681044886070BD46
:10192000A0FB010192185B41FEF738FD0146B0FBB8
:10193000F5F00201B1FBF5F06FF01803584301EB2D
:10194000800006EBC000B0FBF5F000F0F80002EB01
:101950004002B1FBF5F0584301EB800006EBC000FC
:10196000B0FBF5F000F00700D6E7000000100140E2
:10197000001401402DE9F041984617460E460446F2
:10198000069D27E0681C25D02DB1FEF7E5FFA0EBF2
:101990000800A8421ED920680C3050E8001F21F42E
:1019A000D07140E80012002AF5D12068143050E8C8
:1019B000001F21F0010140E80012002AF5D120208B
:1019C00084F83D0084F83E00002084F83C000320A9
:1019D000BDE8F0812068006836EA000004D00020ED
:1019E000B842CFD00020F3E70120F9E7FEE709076E
:1019F000090E002804DB00F1E02080F80014704795
:101A000000F00F0000F1E02080F8141D7047000086
:101A1000002807D00F4910F0FF0F05D0C0B2085CB6
:101A2000401C70470020704710F47F4F04D0C0F373
:101A30000720085C0930704710F47F0F04D0C0F312
:101A40000740085C1130704701EB106000781930D6
:101A5000704700009A570008F0B589B005460F4658
:101A600016460024002D05D140F237121D491EA054
:101A700001F06CFA3EB94FF49C721A491BA001F0B8
:101A800065FA00E0641C295D202903D0092901D0F2
:101A9000BC42F7D3D4B12146284601F027F80446CA
:101AA000C4B100210091019102910391049105912B
:101AB000069107916A463946284601F085F868B1D3
:101AC0006946A047306009B00020F0BD09B04FF072
:101AD000FF30F0BD09B04FF0FF30F0BD09B04FF05E
:101AE000FF30F0BD305B0008636D64007265747098
:101AF0000000000010B50446002C04D1502211490A
:101B000011A001F023FAA06A0178232906D1E16926
:101B1000814203D9E26A02448A420AD221460FA0D6
:101B200001F07CFD00F02CFDFEF79EFB0028FDD1AE
:101B300010BD20308142FBD82146BDE810400EA0E8
:101B400001F06CBD785900087468726561642021E9
:101B50003D2052545F4E554C4C0000007468726535
:101B600061643A257320737461636B206F766572CC
:101B7000666C6F770A0000007761726E696E673A73
:101B800020257320737461636B20697320636C6F0D
:101B9000736520746F20656E64206F6620737461B6
:101BA000636B20616464726573732E0A0000000029
:101BB00070B582B011469C46099E089D069B079A07
:101BC000044604F11400406000602162C4F824C09F
:101BD000A362E2622321184601F05FFEE16AA06A77
:101BE000134B0844021F616A206A01F0CDFCE061DA
:101BF000202D04D3A7220F490FA001F0A7F984F8E4
:101C0000365084F835500020A063E66326642063D4
:101C100084F83400206760670090019023460F4AE3
:101C2000214604F1440003F067F902B0002070BDC2
:101C3000E5450008C65900087072696F72697479C9
:101C4000203C2052545F5448524541445F50524911
:101C50004F524954595F4D4158000000294A00082D
:101C6000DDF800C02CF0010C80F809C0C1610262EF
:101C700000218162436200EBC102143252601260A3
:101C8000491C0129F7DB704770B50446FEF7ECFAF2
:101C90000546216F09B1204688472846BDE87040B7
:101CA000FEF7E6BA10B51DA001F0B8FC1E4C217875
:101CB0001EA001F0B3FC207810F0010F02D021A08B
:101CC00001F0ACFC207810F0020F02D020A001F04F
:101CD000A5FC207810F0040F02D020A001F09EFC9B
:101CE000207810F0080F02D020A001F097FC207897
:101CF00010F0100F02D020A001F090FC207810F01E
:101D0000800F06D01E480168BDE810401DA001F0FC
:101D100085BCBDE810401FA001F080BC6275732037
:101D20006661756C743A0A0029ED00E05343425F26
:101D3000434653525F424653523A30782530325828
:101D40002000000049425553455252200000000037
:101D5000505245434953455252200000494D50527C
:101D6000454349534552522000000000554E5354FC
:101D70004B4552522000000053544B455252200014
:101D800038ED00E05343422D3E424641523A253061
:101D900038580A000A00000010B500F00DFB0020C2
:101DA00010BD10B500F0ECFB002010BD70B514485C
:101DB000144C4FF00005416991F8211011F0020F09
:101DC00007D0016941B180222046FEF74FFC204632
:101DD00070BD25700B4870BD00F0F4FE20B10AA064
:101DE00000682060257105E009A0016821608088F5
:101DF000A080A57108A10348FEF7B1FB014870BDA2
:101E0000B8000020304300206D73682000000000FF
:101E100066696E73682000003E00000001F06CBA35
:101E200070B50446084D6969002904D1A422074908
:101E300007A001F08BF8696991F8210064F3410073
:101E400081F8210070BD0000B8000020665B00082A
:101E50007368656C6C20213D2052545F4E554C4C8C
:101E600000000000014A106051607047B800002077
:101E700030B583B016491748FFF7F4FF78210120E9
:101E800001F09CF8144D6861D8B10A201521009129
:101E900001904FF480630022104911A002F0FCFA77
:101EA000044600231A4610A1686901F0A7FF01202B
:101EB000FFF7B6FF14B1204602F012FD03B0002078
:101EC00030BD0BA001F0AAFB03B04FF0FF3030BDD6
:101ED000246000087C5F0008B8000020091F00088B
:101EE000747368656C6C00007368727800000000A1
:101EF0006E6F206D656D6F727920666F72207368EA
:101F0000656C6C0A000000009F4E706990F821100B
:101F100041F0010180F82110FFF748FF01F07EFB3E
:101F200001274FF002080025FFF778FF0446200044
:101F3000FAD41B2C07D0736993F82000012806D02F
:101F400002280CD015E0706980F82070ECE75B2C5B
:101F500002D083F820500CE083F82080E4E783F877
:101F60002050412CE0D0422CDED0442C46D0432CD3
:101F700052D0002CD8D0FF2CD6D0092C5FD07F2C8B
:101F80007CD0082C7AD00D2C76D00A2C74D0B3F8E3
:101F90007200502801D3A3F87250B3F87400B3F85C
:101FA0007210884269D20A1A03F1220101442333D4
:101FB000184401F057FC7069B0F8741022300C54CA
:101FC000706990F8211011F0010F06D0B0F874106C
:101FD000223001446DA001F021FB7069B0F874401B
:101FE000B0F87200A0427DDD69A001F017FB641C0F
:101FF0007069B0F87200A042F6DCB1E0B3F874008A
:10200000002891D062A001F009FB7069B0F874104B
:10201000491EA0F8741087E7B3F87400B3F8721083
:10202000884281D203F12201415C5AA001F0F6FA04
:102030007069B0F87410491CA0F8741074E700249B
:10204000B3F87400002808DD51A001F0E7FA641C21
:102050007069B0F87400A042F6DC7069223003F0B9
:102060007FFA70692230FEF710FA7169A1F87200E8
:10207000A1F8740058E701E043E064E0B3F87400AD
:1020800000283FF451AFB3F87210491E89B2A3F88B
:102090007210401E80B2A3F87400814228D90A1A37
:1020A00003F1230101442233184401F0DBFB706982
:1020B000B0F8721022300D547069B0F874102230EC
:1020C000014435A001F0AAFA7069B0F87440B0F884
:1020D0007200A042FFF628AF2DA001F09FFA641C09
:1020E000706900E03CE0B0F87200A042F4DA1BE74F
:1020F0002BA001F093FA7069B0F8721022300D54E1
:1021000012E700F05FFD01280ED1706990F8210000
:1021100010F0010F02D023A001F080FA7069B0F82E
:102120007210223000F0B0FCFFF740FE01F076FAAA
:10213000706950212230FEF750FA7069A0F8725091
:10214000A0F87450F0E603F122000C54706990F886
:10215000210010F0010F03D021460EA001F05EFA1D
:102160007069B0F87210491C89B2A0F87210B0F80A
:102170007420521CA0F874205029FFF4D5AEA0F8AA
:102180007250A0F87450CFE6B8000020257300000C
:1021900008000000256300000825732020080000C7
:1021A000082008000A00000010B5124C206810F04A
:1021B000020F02D010A001F031FA206810F0804F19
:1021C0000ED01348007808B1FFF76CFD1148007875
:1021D00008B100F093FB1048008808B103F01EFA24
:1021E000206810F0004F04D0BDE810400BA001F0B3
:1021F00015BA10BD2CED00E06661696C656420764F
:102200006563746F722066657463680A000000007D
:1022100029ED00E028ED00E02AED00E0646562753C
:1022200067206576656E740A0000000010B502A094
:1022300001F0F4F9002010BD48656C6C6F20525419
:102240002D546872656164210A000000054C4FF44A
:10225000FA7508212046FEF771FB284602F049F97D
:10226000F7E7000000100240054C4FF47A7510218A
:102270002046FEF763FB284602F03BF9F7E7000033
:1022800000100240094C0A4F4FF0FF354FF4007622
:102290004FF4FA682946206901F034FE3146384689
:1022A000FEF74CFB404602F024F9F3E70000002063
:1022B0000018024070B50DA001F0B0F91048046894
:1022C000104D286884420ED202220FA12068FEF72A
:1022D000FBF820B10DA06268216801F09FF90C3471
:1022E00028688442F0D3002070BD00002D2D467573
:1022F0006E6374696F6E204C6973743A0A00000053
:10230000B8000020BC0000205F5F0000252D3136A2
:1023100073202D2D2025730A000000002DE9F041C7
:1023200004460D4616461F46284601F0C3FB001D15
:10233000206025726660E76000202061BDE8F081C2
:102340002DE9F0410D46002600212961E9680029A8
:1023500009D0297A39B12F6840B10446FDF784FFCE
:10236000014636B113E00020BDE8F0813C4601266D
:10237000F4E7A4F10C002A7A007A20F08000904261
:1023800005D00846FDF774FF0020BDE8F081002667
:1023900068682468BC4201D1002405E0761C40F83E
:1023A000044BEA68B242F4D10846FDF761FF2E61A2
:1023B0002046BDE8F081000010B5074C07A0E16899
:1023C00001F02CF90AA0216901F028F96169BDE842
:1023D00010400CA001F022B934000020746F746129
:1023E0006C206D656D6F72793A2025640A000000DB
:1023F00075736564206D656D6F7279203A20256470
:102400000A0000006D6178696D756D20616C6C6FFC
:102410006361746564206D656D6F72793A2025641F
:102420000A0000002DE9F04190B000273BA40823EA
:1024300002AA02210AA8FFF771FF4FF008082246FE
:10244000414639A001F0EAF807243E4801F0E6F8D9
:10245000641EFAD23CA001F0E1F802AE0AA93846A7
:10246000FFF76EFF074600250E98002833DD56F86B
:102470002500A0F10C04FDF7F7FE217A9DF830202D
:1024800021F08001914202D0FDF7F2FE1FE0FDF73E
:10249000EFFE04F11400D0F800C0844501D1012002
:1024A00000E00020E8B104F1140100200A468C4548
:1024B00004D01268401C13688B42FAD1A18B0091A2
:1024C000019023460822414625A001F0A7F86D1C83
:1024D0000E98A842CBDC002FC0D110B00020BDE880
:1024E000F08104F1140000230246844504D01268F0
:1024F0005B1C11688142FAD1A08B019300902346A6
:10250000082241461AA001F089F804F1140003F0F2
:1025100043F80BA001F082F8D9E7000073656D6104
:1025200070686F7265000000252D2A2E73207620BA
:10253000202073757370656E6420746872656164C1
:102540000A000000AC260008202D2D2D202D2D2D59
:102550002D2D2D2D2D2D2D2D2D2D2D0A0000000082
:10256000252D2A2E2A7320253033642025640A0065
:10257000252D2A2E2A7320253033642025643A0025
:102580002DE9F043ADB0002745A4082320AA01217E
:1025900028A8FFF7C3FE4FF00808224641464248EC
:1025A00001F03CF8072441A001F038F8641EFAD28B
:1025B0003FA001F033F820AE28A93846FFF7C0FE4F
:1025C000074600252C98002864DD56F82500A0F168
:1025D0000C04FDF749FE8146207A9DF8A81020F0F2
:1025E0008000884203D04846FDF742FE4EE0782244
:1025F000214602A8FDF7BFFF4846FDF739FE94F8D3
:102600003500009023460822414639A001F006F823
:1026100094F8340000F00F01012907D0022909D0F5
:1026200061B104290ED0032910D012E033A000F0CC
:10263000F5FF0EE034A000F0F1FF0AE035A000F055
:10264000EDFF06E036A000F0E9FF02E037A000F061
:10265000E5FFA16A8C469CF80000232803D11CF8F2
:10266000010F2328FBD0E26AACEB0100101A6423AF
:102670005843B0FBF2FC236B206C01930090E0699F
:102680006346081A81182CA000F0C8FF6D1C2C9816
:10269000A8429ADC002F8FD12DB00020BDE8F08336
:1026A0007468726561640000145D00082D0000000C
:1026B000202D2D2D20202D2D2D2D2D2D2D202D2D7E
:1026C0002D2D2D2D2D2D2D2D202D2D2D2D2D2D2D47
:1026D0002D2D2D20202D2D2D2D2D2D20202D2D2D5E
:1026E0002D2D2D2D2D2D2D202D2D2D0A00000000FE
:1026F000252D2A2E2A73202533642000207265613F
:1027000064792020000000002073757370656E648A
:102710000000000020696E69742020200000000085
:1027200020636C6F73652020000000002072756EBE
:102730006E696E6700000000203078253038782000
:102740003078253038782020202025303264252527
:1027500020202030782530387820253033640A0056
:102760002DE9F04190B000272BA4082302AA0A21EA
:102770000AA8FFF7D3FD4FF008082246414628A0DB
:1027800000F04CFF0724304800F048FF641EFAD2E6
:102790002EA000F043FF02AE0AA93846FFF7D0FD95
:1027A000074600240E9800282ADD56F82400A0F1E0
:1027B0000C05FDF759FD297A9DF8302021F08001A4
:1027C000914202D0FDF754FD16E0FDF751FDA96AD4
:1027D000686A019100902B460822414624A000F02F
:1027E0001DFF687A10F0010F03D027A000F016FF3C
:1027F00002E028A000F012FF641C0E98A042D4DC76
:10280000002FC9D102F0E0F9014626A000F006FF32
:1028100010B00020BDE8F08174696D6572000000A1
:10282000252D2A2E732020706572696F64696320DC
:10283000202074696D656F75742020202020202071
:10284000666C61670A000000AC260008202D2D2D63
:102850002D2D2D2D2D2D2D202D2D2D2D2D2D2D2DB5
:102860002D2D202D2D2D2D2D2D2D2D2D2D2D0A00F5
:10287000252D2A2E2A73203078253038782030787C
:1028800025303878200000006163746976617465D2
:10289000640A000064656163746976617465640A42
:1028A0000000000063757272656E74207469636B5A
:1028B0003A3078253038780A0000000010B5FEF76D
:1028C000D1FDFEF71FFEFEF755FE10B902A000F085
:1028D000A5FE002010BD0000746872656164206967
:1028E0007320637265617465643B0A0010B500F083
:1028F00099FBBDE81040FFF7E1BF000010B51AA03A
:1029000000F08CFE1D4C21781DA000F087FE207881
:1029100010F0010F02D020A000F080FE207810F00F
:10292000020F02D01FA000F079FE207810F0080FEF
:1029300002D01FA000F072FE207810F0100F02D01D
:102940001EA000F06BFE207810F0800F06D01E480D
:102950000168BDE810401DA000F060BEBDE8104059
:102960001EA000F05BBE00006D656D206D616E61A4
:102970006765206661756C743A0A000028ED00E016
:102980005343425F434653525F4D4653523A307869
:1029900025303258200000004941434356494F4CEE
:1029A000200000004441434356494F4C20000000A2
:1029B0004D554E53544B4552522000004D53544BED
:1029C000455252200000000034ED00E05343422DF8
:1029D0003E4D4D41523A253038580A000A00000059
:1029E0002DE9F04781460025002699F800000028CF
:1029F0000ED020480468DFF88080D8F800008442B8
:102A00002DD206221DA12068FDF75EFD10BB05E05A
:102A1000BDE8F0470021084600F096B82068871D01
:102A20004846FDF732FD024639464846FDF74CFD63
:102A300080B925B93E463046FDF727FD05463946A3
:102A4000304602F0C1FDA84200DA054639460DA025
:102A500000F0E4FD0C34D8F800008442D1D3002EFD
:102A600006D02A4631464846BDE8F04701F00EBC84
:102A7000BDE8F087B8000020BC0000205F5F636DF8
:102A8000645F000025730A0038B5054601E06D1C3F
:102A9000491E21B128782028F9D00928F7D031B172
:102AA0006A462846FEF7D8FF18B12C4604E00020FD
:102AB00038BD009838BD641C2078202801D000283B
:102AC000F9D100202070294602A000F0A7FD4FF0A8
:102AD000FF3038BD25733A20636F6D6D616E6420E1
:102AE0006E6F7420666F756E642E0A002DE9F047D4
:102AF00081468846002610480468104F3868844292
:102B000015D208F1060506220DA12068FDF7DCFCB0
:102B100048B920684246801D4946FDF7D5FC10B9EA
:102B20002068405D30B10C3438688442EBD33046C5
:102B3000BDE8F087A668FAE7B8000020BC000020D6
:102B40005F5F636D645F000070B50FA000F066FD0D
:102B500014480468144D286884420FD2062213A139
:102B60002068FDF7B1FC28B920686268811D11A0BA
:102B700000F054FD0C3428688442EFD310A000F01C
:102B80004DFD002070BD000052542D5468726561E7
:102B900064207368656C6C20636F6D6D616E647327
:102BA0003A0A0000B8000020BC0000205F5F636D9F
:102BB000645F0000252D313673202D2025730A0017
:102BC0000A0000000120704770B51546002300245C
:102BD000002950D9002602E00670401C5B1C90F8CA
:102BE00000C0BCF1200F02D0BCF1090F01D18B4213
:102BF000F2D3082C0FD321A000F010FD002627A04F
:102C000055F8261000F00AFD761CA642F7D322A044
:102C100000F004FD2FE08B422DD20278222A03D04F
:102C200045F82400641C1BE0401C5B1C45F8240094
:102C3000641C08E05C2A04D14278222A01D1401C9D
:102C40005B1C401C5B1C0278222A01D08B42F1D312
:102C50008B4210D20670401C5B1C0AE0401C5B1CBF
:102C60000278202A03D0092A01D08B42F6D38B4266
:102C700001D28B42B3D3204670BD0000546F6F2049
:102C80006D616E7920617267732021205765206F16
:102C90006E6C79205573653A0A0000002573200098
:102CA00070B504461F4D2868844204D2A1221E49F3
:102CB0001EA000F04BF96868844204D3A2221A498E
:102CC00022A000F043F9608820B1A32216492AA06F
:102CD00000F03CF960682968084484420FD04288BB
:102CE0006AB96A6890420AD0AA68824200D1AC6090
:102CF00042686260406801F10803621AC250A0682D
:102D00000844A0420CD04288002A09D1AA68A242F5
:102D100000D1A86062684260401A62680831505071
:102D200070BD000034000020C45800082872745F91
:102D300075696E74385F74202A296D656D203E3D7B
:102D400020686561705F7074720000002872745FA3
:102D500075696E74385F74202A296D656D203C207A
:102D60002872745F75696E74385F74202A296865EB
:102D700061705F656E6400006D656D2D3E757365F5
:102D800064203D3D203000002DE9F04F86B0DDF895
:102D90003CC0109D119CA846CDF800C014F0400F17
:102DA00002D0DFF848A101E0DFF844A114F0100FD1
:102DB00001D024F0010414F0010F02D04FF03009CB
:102DC00001E04FF02009002614F0020F0DD0002A78
:102DD00002DA2D26524208E014F0040F01D02B260F
:102DE00003E014F0080F00D020264FF0000C0DF186
:102DF000040B2AB930224FF0010C8DF804200DE0AD
:102E00000A2B16D002F00F0712091AF807E06746DE
:102E10000CF1010C0BF807E0002AF1D1AC4500DD04
:102E20006546009A521B14F0110F4FF020070DD089
:102E30001CE0304FA7FB02E74FEAD70ECEF10007A8
:102E400007EB870702EB47077246DEE716B1002A59
:102E500000DD521E131EA2F1010207DD884200D2DE
:102E60000770401C131EA2F10102F7DC26B1884254
:102E700000D20670521E401C14F0100F0CD1131E0D
:102E8000A2F1010208DD884201D280F80090401CC6
:102E9000131EA2F10102F6DC6B1E65450FDD302426
:102EA000884200D20470401C1D465B1E6545F7DC5D
:102EB00005E0884202D21BF80C300370401CBCF1C4
:102EC0000003ACF1010C02DDB8F1000FF1D1531E8B
:102ED000002A07DD884200D20770401C1A1EA3F1A9
:102EE0000103F7DC06B0BDE8F08F0000AB58000826
:102EF0009A580008CDCCCCCC10B582B014200A2151
:102F0000009101904FF480630022084908A001F06D
:102F1000C3FA044624B9C522074908A000F016F8F0
:102F200002B02046BDE8104001F0DABCED280008F0
:102F30006D61696E000000001C5B0008746964200C
:102F4000213D2052545F4E554C4C000038B50C4684
:102F5000002100910A49D1F804C0BCF1000F04D04F
:102F600001B02146BDE83040604713460146224685
:102F700004A000F053FB9DF800000028FBD038BDF2
:102F80002C000020282573292061737365727469F1
:102F90006F6E206661696C65642061742066756E71
:102FA0006374696F6E3A25732C206C696E65206EB0
:102FB000756D6265723A2564200A000070B5484359
:102FC000044600F03DFB0546280003D022460021C0
:102FD00000F063FC284670BD70B5094C094DAC4249
:102FE0000CD209A0216800F019FB606880470146F7
:102FF00009A000F013FB0834AC42F2D370BD00000E
:10300000545F0008645F0008696E697469616C69E7
:103010007A652025730000003A256420646F6E6590
:103020000A00000070B50AA000F0F8FA104C114D2B
:10303000AC420CD210A0216800F0F0FA6068804722
:10304000014611A000F0EAFA0834AC42F2D370BD98
:10305000646F20636F6D706F6E656E747320696E40
:10306000697469616C697A6174696F6E2E0A000017
:10307000645F0008745F0008696E697469616C6957
:103080007A652025730000003A256420646F6E6520
:103090000A00000010B5FDF7E7F804494A88521C01
:1030A0004A80BDE81040FDF7E3B800007C00002036
:1030B00010B5FDF7D9F80B4C6188491E09B2618043
:1030C00000290ADC00216180FDF7D2F86068002841
:1030D00007D0BDE8104000F08DBDBDE81040FDF701
:1030E000C7B810BD7C00002070B50446002C6DD020
:1030F000FDF7BAF8054600F077FA48B1344935A033
:1031000000F08CFA4FF40B7231493CA0FFF71EFF20
:103110002846FDF7ADF814F0030F05D040F22E223B
:103120002B4937A0FFF712FF414D2868844202D394
:103130006868844205D340F22F2225493D48FFF7B5
:1031400005FF2868844241D3686884423ED20C3C23
:103150004FF0FF31384800F0D5FE608818B1208864
:10316000B0F5F55F08D035A000F058FA23886288E2
:10317000214639A000F052FA608828B940F24E2268
:10318000134941A0FFF7E2FE2088B0F5F55F05D0B6
:1031900040F24F220E493FA0FFF7D8FE002060808A
:1031A0004FF4F5502080A868844200D2AC602968B2
:1031B0006068611A401A2969081A28612046FFF7D9
:1031C0006FFDBDE870401C4800F050BE70BD0000AF
:1031D000BC58000846756E6374696F6E5B25735D3D
:1031E000207368616C6C206E6F742062652075734B
:1031F000656420696E204953520A000030000000C7
:1032000028282872745F75626173655F7429726D16
:10321000656D292026202852545F414C49474E5F56
:1032200053495A45202D20312929203D3D20300089
:1032300034000020305C000854030020746F2066C6
:10324000726565206120626164206461746120623E
:103250006C6F636B3A0A00006D656D3A203078251B
:103260003038782C207573656420666C61673A206D
:1032700025642C206D6167696320636F64653A2063
:103280003078253034780A006D656D2D3E75736594
:10329000640000006D656D2D3E6D61676963203DC2
:1032A0003D20484541505F4D4147494300000000E3
:1032B00000487047EC06002000487047EC420020B0
:1032C00010B5FDF757FBFEF7D5F9FEF71FFAFDF72E
:1032D000B7FC4FF47A71B0FBF1F0FDF7BDFEFFF7DC
:1032E0007BFEFFF7E9FF0446FFF7E2FF2146BDE85A
:1032F000104000F0E1BF000010B54FF0FF34074868
:103300000068016811F0200F02D04068C4B202E0EA
:103310000A2001F04FFAE0B210BD0000EC4200209C
:10332000F8B5054600240D2000900E49002081F8D4
:103330003C00284600F0A2FF0646300011D0285D70
:103340000A2805D101231A4669460648FEF730F8D7
:10335000012329191A460348FEF72AF8641CB442CF
:10336000EDD3F8BDEC42002070B5054605F128000C
:103370002C1D31490968002902D08847002859D0FE
:103380002EA0216C00F04AF930A0616A00F046F9E5
:1033900032A0A16A00F042F934A0E16A00F03EF9DF
:1033A00036A0216B00F03AF938A0616800F036F9D8
:1033B0003AA0A16800F032F93CA0E16800F02EF9D3
:1033C0003EA0216900F02AF940A0616900F026F9C9
:1033D00042A0A16900F022F944A0E16900F01EF9C1
:1033E00046A0216A00F01AF948A0616B00F016F9B6
:1033F0004AA0A16B00F012F94CA0E16B00F00EF9AD
:10340000287810F0040F08D001F022FA01464BA0F2
:1034100000F004F9FFF7B4F802E050A000F0FEF865
:10342000287810F0100F02D153A000F0F7F8FEF743
:10343000BBFEFEE770BD0000A80000207073723A6A
:10344000203078253038780A000000007230303A99
:10345000203078253038780A000000007230313A88
:10346000203078253038780A000000007230323A77
:10347000203078253038780A000000007230333A66
:10348000203078253038780A000000007230343A55
:10349000203078253038780A000000007230353A44
:1034A000203078253038780A000000007230363A33
:1034B000203078253038780A000000007230373A22
:1034C000203078253038780A000000007230383A11
:1034D000203078253038780A000000007230393A00
:1034E000203078253038780A000000007231303AF8
:1034F000203078253038780A000000007231313AE7
:10350000203078253038780A000000007231323AD5
:10351000203078253038780A00000000206C723A9C
:10352000203078253038780A000000002070633A97
:10353000203078253038780A000000006861726415
:10354000206661756C74206F6E20746872656164AA
:103550003A2025730D0A0D0A0000000068617264AC
:10356000206661756C74206F6E2068616E646C6596
:10357000720D0A0D0A0000004650552061637469FF
:103580007665210D0A00000030B40546101D20F0BC
:103590000700A0F1440420460022DFF82CC040F8C8
:1035A00022C0521C112AFAD3416200218162C162F9
:1035B000016341638363C5634FF0807202640160FD
:1035C000204630BC70470000EFBEADDE10B5FCF702
:1035D0004BFE04490A78521C0A70BDE81040FCF703
:1035E00047BE00002800002010B5FCF73DFE03494F
:1035F0000C78FCF73DFE204610BD0000280000209E
:1036000010B5FCF731FE04490A78521E0A70BDE875
:103610001040FCF72DBE0000280000200FB408B5B4
:1036200003AB00937F210548029A01F0E5FD0348B2
:10363000FFF776FE01B05DF814FB0000D402002015
:103640002DE9F0470446002C1CD0FCF70DFE054682
:10365000FFF7CAFF48B15D495DA0FFF7DFFF4FF4F8
:103660008C725A4964A0FFF771FC2846FCF700FEF3
:10367000E01C20F00305614EF068854205D900206A
:10368000BDE8F0870020BDE8F0870C2D00D20C25A6
:103690004FF0FF315A4800F035FCD6F808C03168C9
:1036A000ACEB0100F7687B1B83427CD90C18628865
:1036B000002A79D16268121A0C3AAA427CD3626855
:1036C00005F11803121A0C3A4FF001094FF4F5589E
:1036D0009A4223D3421902F10C03CA18A2F80080BF
:1036E0004FF0000AA2F802A0D4F804A0C2F804A087
:1036F00090606360A4F80290506807F10C02904259
:1037000002D001F1080283503069324628440C305F
:103710003061536983420DD250610BE0A4F80290EE
:103720006068621A801A326910443061726982429C
:1037300000D27061A4F80080644514D1726802E080
:1037400040680844B060B06843880BB19042F7D13C
:10375000B168914207D0408828B14FF4C1721B492B
:1037600028A0FFF7F3FB264800F080FB6019716882
:103770000C30884205D94FF4C37214492B48FFF727
:10378000E5FB04F10C0010F0030F05D040F28712A6
:103790000E492748FFF7DAFB14F0030F08D04FF467
:1037A000C4720A4901E00BE006E022A0FFF7CEFB5D
:1037B00004F10C00BDE8F087606883423FF676AF05
:1037C0000F4800F053FB0020BDE8F087E3580008E5
:1037D00046756E6374696F6E5B25735D20736861F7
:1037E0006C6C206E6F74206265207573656420694F
:1037F0006E204953520A00003000000034000020BF
:103800005403002028286C66726565203D3D2068C1
:103810006561705F656E6429207C7C2028216C6660
:103820007265652D3E757365642929008C5C0008FE
:10383000E45B000828282872745F75626173655F15
:1038400074296D656D292026202852545F414C490A
:10385000474E5F53495A45202D20312929203D3DAF
:10386000203000000346184681420DD201EB020CC5
:103870009C4509D99918521E05D31CF8013D01F841
:10388000013D521EF9D27047521EFCD311F801CBF4
:1038900003F801CB521EF9D27047034601F0FF0C2A
:1038A000042A1CD310F0030F19D101464CEA0C2353
:1038B00043EA0343102A0AD341F8043B41F8043B8E
:1038C00041F8043B41F8043B103A102AF4D2042A90
:1038D00004D341F8043B121F042AFAD20B46511EAE
:1038E00005D30CF0FF0203F8012B491EFBD27047F1
:1038F0002DE9F04106460F46FCF7B6FC0446FFF7FB
:1039000073FE48B11E491FA0FFF788FE4FF4C37233
:103910001B4926A0FFF71AFB2046FCF7A9FC3046FE
:1039200000F0C8F805462DB94FF4C572144920A01F
:10393000FFF70CFBE868FFF783FE0446E4B10021C3
:103940002046EA68FFF7A9FF26720020607208226D
:103950003946204600F09AFCFCF786FC291D04F14C
:103960000C020B685A600B6813600A605160FCF728
:103970007FFC2046BDE8F0810020BDE8F08100001A
:103980001859000846756E6374696F6E5B25735D28
:10399000207368616C6C206E6F7420626520757393
:1039A000656420696E204953520A0000300000000F
:1039B000696E666F726D6174696F6E20213D205271
:1039C000545F4E554C4C000010B50446002C05D1F8
:1039D0004FF4DD72114912A0FFF7B8FA207A10F007
:1039E000800F05D040F2BB120C4912A0FFF7AEFACF
:1039F00000202072FCF738FC04F10C010B684A68C7
:103A00005A604B680A681A6049600960FCF730FC2C
:103A10002046BDE81040FFF767BB00002B590008A7
:103A20006F626A65637420213D2052545F4E554C8D
:103A30004C00000021286F626A6563742D3E747922
:103A4000706520262052545F4F626A6563745F433D
:103A50006C6173735F5374617469632900000000C3
:103A600010B50446002C05D14FF4B3720B490CA0DD
:103A7000FFF76CFA00202072FCF7F6FB014604F118
:103A80000C00036842685A60436802681A6040602C
:103A90000060BDE810400846FCF7EABB0759000883
:103AA0006F626A65637420213D2052545F4E554C0D
:103AB0004C0000000021074A02EB01131B788342EF
:103AC00002D102EB01107047491C0329F4DB0020EE
:103AD000704700004C00002010B50446002C05D1B2
:103AE00040F2EF12034904A0FFF730FA207A20F0E9
:103AF000800010BD565900086F626A65637420210A
:103B00003D2052545F4E554C4C0000002DE9F047CB
:103B10000546884691464046FFF7CCFF06463000F2
:103B200005D140F23312194919A0FFF70FFAFFF738
:103B3000B1FA7468371DBC420DD0A4F10C0038B145
:103B4000A84205D140F24312104917A0FFF7FEF931
:103B50002468BC42F1D1FFF7ABFA48F0800028722C
:103B600008224946284600F091FBFCF77DFB0246FF
:103B7000301D05F10C010368596003680B6001609A
:103B80004860BDE8F0471046FCF772BBF8580008E3
:103B9000696E666F726D6174696F6E20213D20528F
:103BA000545F4E554C4C00006F626A20213D206FDF
:103BB000626A65637400000010B50446002C05D1EC
:103BC0004FF4EE72054906A0FFF7C0F9207A10F015
:103BD000800F01D0012010BD002010BD3C5900080D
:103BE0006F626A65637420213D2052545F4E554CCC
:103BF0004C0000002DE9F041FCF736FB0746164E5D
:103C00007088C8B9B068FDF703FF401E134951F82A
:103C10003010A1F114047568AC420DD0307074609E
:103C20002046FDF767FF0E48007850B104F11C01F3
:103C300005F11C00FCF71FFB3846BDE8F041FCF71E
:103C400017BB04F11C0105F11C00FCF714FB3846FE
:103C5000BDE8F041FCF70CBB7C00002074030020A1
:103C60002800002010B50446002C05D140F21712A0
:103C7000124913A0FFF76AF9FCF7F6FA024694F826
:103C8000340020F00F0040F0010084F8340094F874
:103C90003500104901EBC00104F114004B681860B5
:103CA0004B684360486001600B48A16B836819430F
:103CB0008160BDE810401046FCF7DABA925900085E
:103CC00074687265616420213D2052545F4E554CEA
:103CD0004C000000740300207C00002010B5044656
:103CE000002C05D140F24512134914A0FFF72EF91C
:103CF000FCF7BAFA024604F114010B6848685860F0
:103D00004B68086818604960096094F835001049EC
:103D100001EBC0000168814201D1012000E00020D8
:103D200028B10C48A16B836823EA01018160BDE8DA
:103D300010401046FCF79CBAAC59000874687265D4
:103D4000616420213D2052545F4E554C4C000000D0
:103D5000740300207C0000202DE9F04106460C464B
:103D60001546FCF781FA0746FFF73EFC48B11249B9
:103D700012A0FFF753FC40F20D120F4919A0FFF7F4
:103D8000E5F83846FCF774FAB4F5803F05D34FF4F4
:103D90008772094914A0FFF7D9F831460220FFF7CE
:103DA000A7FD002805D000F1140149600960848353
:103DB0004572BDE8F08100005457000846756E63F7
:103DC00074696F6E5B25735D207368616C6C206E27
:103DD0006F74206265207573656420696E20495395
:103DE000520A00003000000076616C7565203C20AE
:103DF0003078313030303055000000002DE9F0418E
:103E000004460F4615461E46002C04D1D2220D4909
:103E10000DA0FFF79BF8B5F5803F04D3D3220949E5
:103E20000DA0FFF793F83A4602212046FFF76EFEF9
:103E300004F1140040600060A58366720020BDE8B4
:103E4000F08100003A57000873656D20213D205233
:103E5000545F4E554C4C000076616C7565203C20DB
:103E600030783130303030550000000070B50446F5
:103E7000002C05D140F2B7121C491DA0FFF766F8CF
:103E80002046FFF729FE022805D04FF4DC721749BF
:103E90001B48FFF75BF80025FCF7E6F9064604F13E
:103EA00014000168814201D1012000E0002038B1F6
:103EB000A08B4FF6FF7188420DD2401CA08304E016
:103EC000A1F1140000F07EFC01253046FCF7D0F98A
:103ED000012D06D007E03046FCF7CAF96FF002006A
:103EE00070BDFFF787FE002070BD00007C57000802
:103EF00073656D20213D2052545F4E554C4C00009F
:103F00009C5B00082DE9F3410546002D05D14FF4D7
:103F1000A6724F494FA0FFF719F82846FFF7DCFDBE
:103F2000022805D040F24D1249494E48FFF70EF8DD
:103F3000FCF79AF90746A88B28B1401EA88338469B
:103F4000FCF796F97FE0019830B1FCF78DF9044653
:103F500000F07EFC40B111E03846FCF789F96FF0C3
:103F6000010002B0BDE8F08139493FA0FFF756FBE0
:103F700040F26D1236494AA0FEF7E8FFFCF774F9EB
:103F80000646FFF731FB48B1314946A0FFF746FB33
:103F900040F26D122E4942A0FEF7D8FF3046FCF7E2
:103FA00067F92046FCF764F900F052FC0646002051
:103FB000306305F114046D7A304600F0F1FC15B160
:103FC000012D2BD108E006F11400616808606168DA
:103FD00041606060046021E02068A04214D096F83F
:103FE0003520A0F1140191F835309A4209D21431EC
:103FF00006F114024B681A604B6853604A60116006
:1040000002E00068A042ECD1A04207D106F1140002
:104010006168086061684160606004600198002820
:1040200009DD01AA002106F1440000F063FE06F15B
:10403000440000F09FFF3846FCF71AF9FFF7DAFD5D
:10404000306B00288DD102B00020BDE8F081000067
:104050007057000873656D20213D2052545F4E5506
:104060004C4C00009C5B000846756E6374696F6E73
:104070005B25735D207368616C6C206E6F742062C9
:10408000652075736564206265666F726520736371
:10409000686564756C65722073746172740A0000DF
:1040A0003000000046756E6374696F6E5B25735D4A
:1040B000207368616C6C206E6F742062652075736C
:1040C000656420696E204953520A000008B509A0B2
:1040D000FFF7A4FA0AA0FFF7A1FA12A000900523A7
:1040E0000122032112A0FFF799FABDE8084018A0A9
:1040F000FFF794BA0A205C207C202F0A0000000001
:104100002D205254202D20202020205468726561DB
:1041100064204F7065726174696E6720537973749F
:10412000656D0A004D617920323420323032320020
:10413000202F207C205C202020202025642E256438
:104140002E2564206275696C642025730A000000C6
:104150002032303036202D203230323020436F7004
:104160007972696768742062792072742D7468723C
:10417000656164207465616D0A0000002DE9F047F7
:1041800082B0684601900090FCF76EF882463A488B
:104190000168814201D1012000E00020002864D1A3
:1041A000354E6FF0004780464FF00109A6F110052B
:1041B0003068A0F1140400F007FDA16A401AB8426B
:1041C00053D2002004EBC00114310B684A685A60D6
:1041D0004B680A681A6049600960401C0128F1DBDD
:1041E000607A10F0020F02D120F00100607269467F
:1041F00004F11400009A5060009A0260009041603F
:1042000085F800805046FCF733F8E169206A88475A
:10421000FCF72AF8824685F80090684600998142AA
:1042200001D1012000E00020B0B904F114000268BF
:104230004168516042680168116040600060607AC6
:1042400010F0020F08D010F0010F05D020F001008F
:104250006072204600F08EFE07480168814201D15D
:10426000012000E000200028A2D05046FCF700F812
:1042700002B0BDE8F0870000A0000020014600E089
:10428000491C0A78002AFBD1081A7047002A09D075
:10429000034611F801CB03F801CBBCF1000F02D0AB
:1042A000521EF6D17047511EFCD0002203F8012B9C
:1042B000491EFBD1704700002DE9F04106460F462C
:1042C000F01C20F0030427F00305FBF7CDFF804628
:1042D000FFF78AF940B11C491CA0FFF79FF9D222D1
:1042E000194924A0FEF732FE4046FBF7C1FF182D06
:1042F00022D9A5F11800A0421ED3281B1E4D183844
:10430000E8602C604FF4F552228000F10C016160EE
:104310000020A06060806068204468600280012204
:10432000428041608160002314A11648FFF766FDBA
:104330002868A860BDE8F0813A463146BDE8F04102
:1043400011A0FFF76BB90000CF58000846756E63E7
:1043500074696F6E5B25735D207368616C6C206E91
:104360006F74206265207573656420696E204953FF
:10437000520A0000300000003400002068656170BF
:1043800000000000540300206D656D20696E6974A3
:104390002C206572726F7220626567696E2061649D
:1043A000647265737320307825782C20616E6420E8
:1043B000656E64206164647265737320307825785B
:1043C0000A0000000B4B4FF0000CA3F802C00020C5
:1043D000094A02EBC00149600960401C2028F8DB53
:1043E0001F201870C3F804C0C3F808C00348406019
:1043F000006070477C0000207403002088000020CB
:1044000010B5074CA068FDF703FB401E054951F8A5
:10441000300014386060BDE810401C30FBF771BFFD
:104420007C000020740300200020044A02EBC0013D
:1044300049600960401C0028F8D0704798000020AF
:1044400000B585B000200E4A02EBC001496009604A
:10445000401C0028F8D00421CA010A20094B00930F
:104460000192029103900023074A08A1094800F035
:1044700061F905B007485DF804EB00F031BA0000BF
:10448000A0000020EC040020ED4A000874696D656E
:1044900072000000740400202DE9F04784B08046CB
:1044A0000D9D0C9C894692461E4641460120FFF711
:1044B0001FFA0746380011D03046FFF7C1F888B11F
:1044C000009053464A464146019603950294384669
:1044D000FDF76EFB04B03846BDE8F08704B000205D
:1044E000BDE8F0873846FFF76FFA04B00020BDE85A
:1044F000F08700F0B3B9000010B50446002C05D1D8
:104500004FF4CF72204921A0FEF720FD2046FFF78F
:10451000E3FA012805D040F29F121B492048FEF71C
:1045200015FD2046FFF748FB28B14FF4D07216491D
:104530001CA0FEF70BFD94F8340000F00F010429D5
:1045400020D010F00F0F02D02046FFF7C7FB204607
:10455000FDF79AFB04F1440000F04EFCFBF784FEEB
:104560000246042084F834001D4804F11401036855
:10457000596003680B60016048601046FBF778FEE5
:10458000002010BD002010BD085A00087468726534
:10459000616420213D2052545F4E554C4C00000078
:1045A000D05C000872745F6F626A6563745F6973E0
:1045B0005F73797374656D6F626A656374282872BE
:1045C000745F6F626A6563745F7429746872656191
:1045D0006429203D3D2052545F46414C5345000024
:1045E0008800002070B515480468FBF73DFE0546BD
:1045F0002046FDF749FB2046FFF770FB042084F8B6
:10460000340004F1440000F0F7FB2046FFF7D4FA31
:1046100001280FD00A4904F114000A6850600A68A2
:10462000026008604160FFF7E5FA2846BDE8704087
:10463000FBF71EBE2046FFF713FAF4E780000020C8
:104640008800002000F002F8FCE7000070B5FBF7DE
:104650000BFE0446FEF7C8FF40B1194919A0FEF74A
:10466000DDFF9322164921A0FEF770FC2046FBF7E0
:10467000FFFD1F4C17E0012100E00021D9B12168A6
:10468000A1F114060A68486850604A68086810601A
:1046900049600960B06AFEF727FD3046FFF794F9DC
:1046A0002846FBF7E5FDFBF7DFFD054610490868E6
:1046B0008842E2D0DFE72846BDE87040FBF7D8BD6E
:1046C0002457000846756E6374696F6E5B25735DD1
:1046D000207368616C6C206E6F7420626520757346
:1046E000656420696E204953520A000030000000C2
:1046F0008800002000B585B02020C2001F21084B93
:1047000000930192029103900023064A06A10848F3
:1047100000F010F805B006485DF804EB00F0E0B8D2
:10472000D4010020454600087469646C65000000EF
:104730005C0100202DE9F04F85B00EAC8046F0CC36
:10474000894692469B46B8F1000F04D1E9220D49F3
:104750000DA0FEF7FBFB24B9EA220A490FA0FEF7E1
:10476000F5FB4A4601214046FFF7D0F98DE8F000FD
:104770005B46524649464046FDF71AFA05B0BDE889
:10478000F08F0000D65900087468726561642021BA
:104790003D2052545F4E554C4C00000073746163D1
:1047A0006B5F737461727420213D2052545F4E55CB
:1047B0004C4C000010B500F0EDF9BDE8104000F0E1
:1047C0004DB8000070B50446002C05D140F2F72228
:1047D000184919A0FEF7BAFB2046FFF77DF901281A
:1047E00005D04FF43E7213491848FEF7AFFB94F81A
:1047F000340000F00F00022802D04FF0FF3070BDEF
:10480000FBF732FD054604F114010A684868506060
:104810004A68086810604960096004F1440000F0CB
:1048200085FC2846FBF724FD2046FFF71BFA0020F5
:1048300070BD0000635A00087468726561642021CD
:104840003D2052545F4E554C4C000000D05C000897
:1048500001480068704700008000002031B5FBF778
:1048600003FD0546164804682CB940F2FB121549B1
:1048700015A0FEF76BFB2046FFF72EF9012805D0A7
:104880004FF4FE720F491548FEF760FB204600F01A
:1048900087F86A46002104F1440000F02BFA04F185
:1048A000440000F067FB2846FBF7E2FCFFF7A2F9A3
:1048B000206B10F1020F01D100202063002038BDD1
:1048C00080000020195A0008746872656164202114
:1048D0003D2052545F4E554C4C000000D05C000807
:1048E00010B50446002C05D140F20D12174918A04E
:1048F000FEF72CFB94F8340010F00F0F05D04FF4A6
:104900008772124917A0FEF721FB2046FFF7E4F853
:10491000012805D040F20F120C492048FEF716FB83
:1049200094F8360084F83500012101FA00F0A06304
:10493000022084F834002046FFF744FFFFF788FF89
:1049400008B1FFF757F9002010BD0000E559000835
:1049500074687265616420213D2052545F4E554C4D
:104960004C000000287468726561642D3E737461A8
:104970007420262052545F5448524541445F53549A
:1049800041545F4D41534B29203D3D2052545F54CB
:1049900048524541445F494E49540000D05C0008EC
:1049A00070B50446002C05D140F2CD22174918A05D
:1049B000FEF7CCFA2046FFF78FF8012805D040F229
:1049C000CE2212491748FEF7C1FA94F8340000F0DD
:1049D0000F00012802D04FF0FF3070BDFBF744FC00
:1049E00005462046FFF77AF994F8340020F00F00CE
:1049F00040F0020084F8340004F1440000F096FB1B
:104A00002846FBF735FC002070BD0000515A000815
:104A100074687265616420213D2052545F4E554C8C
:104A20004C000000D05C000810B50446002C05D1F5
:104A300040F22332174918A0FEF788FA94F83400A0
:104A400000F00F00022805D04FF44972114917A059
:104A5000FEF77CFA2046FFF73FF8012805D040F228
:104A600025320C492048FEF771FA6FF001002063EF
:104A700004F114010A68486850604A6808681060C8
:104A8000496009602046FFF7EDF8BDE81040FFF7E8
:104A9000B1B80000745A000874687265616420211E
:104AA0003D2052545F4E554C4C00000028746872F3
:104AB0006561642D3E7374617420262052545F54E6
:104AC00048524541445F535441545F4D41534B2933
:104AD000203D3D2052545F5448524541445F535558
:104AE0005350454E44000000D05C00086FF0004574
:104AF0000FE0FFF7ADFEFFF753FFFFF77BF806E08F
:104B000000F062F8201AA84201D2FFF7F2FCFFF78A
:104B100035FB044800F01AFA0446B4F1FF3FEFD128
:104B2000E7E70000A000002010B5FBF79DFB174948
:104B3000096891F8342002F00F02012A21D1D1F83E
:104B400014C08B699C451CD001F11402CCF80430D0
:104B5000D2F804C01368CCF800305260126091F8AB
:104B600035200B4B143103EBC202536819605368B4
:104B70004B6051600A60FBF77BFBFFF73BF80020BE
:104B800010BDFBF775FB002010BD00008000002069
:104B900074030020002802DA4FF0FF3070474FF412
:104BA0007A7190FBF1F24A4390FBF1F301FB1300A1
:104BB00000EB4003C3EBC0104B1E03EBC00090FBA7
:104BC000F1F0104470470000014800687047000091
:104BD0002400002010B509480168491C0160FFF756
:104BE00037FE016C491E016419B9C16B0164FFF7FE
:104BF0009BFFBDE8104000F003B800002400002037
:104C00002DE9F04182B0684601900090FFF7DCFF8B
:104C10008046FBF729FB074635480168814201D1F0
:104C2000012000E0002000285CD1314D6FF00046EB
:104C30002868A0F11404A06AA8EB0000B04251D289
:104C40002246002002EBC0011431D1F800C04B68AD
:104C5000CCF80430D1F804C00B68CCF800304960BF
:104C60000960401C0128EDDB607A10F0020F02D1D0
:104C700020F001006072694604F11400009A50604F
:104C8000009A026000904160E169206A8847FFF75E
:104C90009BFF804668460099814201D1012000E0D7
:104CA0000020B0B904F11400026841685160426804
:104CB0000168116040600060607A10F0020F08D057
:104CC00010F0010F05D020F001006072204600F0C6
:104CD00051F907480168814201D1012000E000201C
:104CE0000028A5D03846FBF7C3FA02B0BDE8F08132
:104CF0009800002070B504460E461546002C05D1DC
:104D000040F2D9121A491BA0FEF720F92046FEF7FF
:104D1000E3FE0A2805D04FF4ED7215491AA0FEF7FC
:104D200015F9FBF7A1FA052E1DD2DFE806F0060300
:104D3000090E1300616A296015E02968616212E0BA
:104D4000617A21F0020161720DE0617A41F00201A5
:104D5000617208E0617A11F0010F02D0012129602F
:104D600001E000212960FBF783FA002070BD0000FC
:104D7000D15A000874696D657220213D2052545F3C
:104D80004E554C4C0000000072745F6F626A6563A0
:104D9000745F6765745F74797065282674696D65E2
:104DA000722D3E706172656E7429203D3D20525413
:104DB0005F4F626A6563745F436C6173735F5469CC
:104DC0006D6572002DE9F8430E46089C174698461B
:104DD00001460A20FEF78CFD0546280008D0434610
:104DE0003A4631460094FCF73BFF2846BDE8F8837D
:104DF0000020BDE8F883000070B50446002C04D103
:104E0000DD221D491DA0FEF7A1F82046FEF764FE35
:104E10000A2804D0DE2218491DA0FEF797F8204684
:104E2000FEF7CAFE20B9DF22134928A0FEF78EF84C
:104E3000FBF71AFA03462046002200EBC2011431A8
:104E40000D68D1F804C0C5F804C04D68D1F800C0A1
:104E5000C5F800C049600960521C012AEDDB607A88
:104E600020F0010060721846FBF702FA2046FEF7B8
:104E7000F7FD002070BD0000945A000874696D654C
:104E80007220213D2052545F4E554C4C00000000D2
:104E900072745F6F626A6563745F6765745F74796B
:104EA0007065282674696D65722D3E706172656E3D
:104EB0007429203D3D2052545F4F626A6563745FE0
:104EC000436C6173735F54696D65720072745F6FD8
:104ED000626A6563745F69735F73797374656D6F1C
:104EE000626A656374282674696D65722D3E70610F
:104EF00072656E74290000002DE9F8430546089E8E
:104F0000099C894617469846002D04D1C9220949B3
:104F100009A0FEF71BF84A460A212846FEF7F6FDCF
:104F200033464246394628460094FCF799FEBDE8D0
:104F3000F8830000865A000874696D657220213D6F
:104F40002052545F4E554C4C0000000070B5044692
:104F50004FF0FF35FBF788F902462068A04201D1E7
:104F6000012100E0002101B945691046FBF780F9F5
:104F7000284670BD2DE9F8430446002C05D140F2C7
:104F80004112484948A0FDF7E1FF2046FEF7A4FD85
:104F90000A2805D04FF4A172424948A0FDF7D6FF78
:104FA000FBF762F905462246002002EBC0011431EE
:104FB000D1F800C04B68CCF80430D1F804C00B68BD
:104FC000CCF8003049600960401C0128EDDB607AB4
:104FD00020F001006072606A6FF00046B04205D3B5
:104FE00040F251122F4944A0FDF7B0FFFFF7ECFD4E
:104FF000616A4318A362607A10F0040F02D0DFF8F0
:105000001C8101E0DFF81881CDF800800021EC461A
:1050100008EBC1025CF821005768B8420ED05CF87A
:1050200021000068A0EBC10252699A4202D0D21A54
:10503000B24203D34CF82100B842F0D129B15CF858
:10504000210008304A1C4CF82200491C0029DFD0FE
:10505000344E7068401C7060009804F114010268BE
:10506000516002680A6001604860607A40F00100A7
:1050700060722846FBF7FCF8607A10F0040F0ED03F
:10508000307801280BD1284890F8340000F00F0048
:10509000022804D12448FFF795FBFEF7ABFD002062
:1050A000BDE8F883B45A000874696D657220213D2B
:1050B0002052545F4E554C4C0000000072745F6FDC
:1050C000626A6563745F6765745F747970652826CA
:1050D00074696D65722D3E706172656E7429203D34
:1050E0003D2052545F4F626A6563745F436C617325
:1050F000735F54696D65720074696D65722D3E69E8
:105100006E69745F7469636B203C2052545F54492C
:10511000434B5F4D4158202F20320000A00000205B
:1051200098000020900000207404002070B5044610
:10513000002C05D14FF4DB721A491BA0FDF706FFC6
:105140002046FEF7C9FC0A2805D040F2B7121549DF
:105150001AA0FDF7FBFE607A10F0010F1FD0FBF7DD
:1051600083F803462046002200EBC20114310D688B
:10517000D1F804C0C5F804C04D68D1F800C0C5F826
:1051800000C049600960521C012AEDDB607A20F002
:10519000010060721846FBF76BF8002070BD4FF0FD
:1051A000FF3070BDC35A000874696D657220213DDF
:1051B0002052545F4E554C4C0000000072745F6FDB
:1051C000626A6563745F6765745F747970652826C9
:1051D00074696D65722D3E706172656E7429203D33
:1051E0003D2052545F4F626A6563745F436C617324
:1051F000735F54696D6572002DE9FF4F83B00646F9
:105200000F461446F5193046854203D24FF0FF355C
:10521000C6F1FF372178002900F05C816FF02F097B
:105220004FF020084FF0250A2178252905D0A84203
:1052300000D20170401C00F048B90021641C2378A2
:105240002D2B1ED02B2B1FD0202B20D0232B21D059
:10525000302B22D04FF0FF3294F800C0ACF1300C6C
:10526000BCF10A0F1CD20022234602EB82021B78FB
:1052700009EB4202641C1A442378303B0A2BF3D317
:105280001AE041F01001D9E741F00401D6E741F0FE
:105290000801D3E741F02001D0E741F00101CDE75B
:1052A0002A2B09D1641C069B53F8042B0693002A71
:1052B00002DA524241F010014FF0FF3B23782E2BCF
:1052C00022D1641C2378A3F1300CBCF10A0F0FD259
:1052D0004FF0000B23460BEB8B0C1B7809EB4C0CAF
:1052E000641C03EB0C0B2378303B0A2BF2D306E053
:1052F0002A2B04D1641C069B53F804BB0693BBF114
:10530000000F01DA4FF0000B4FF0000E2378682BEE
:1053100001D06C2B01D19E46641C0A2394F800C076
:10532000BCF16F0F7ED011DCBCF1630F27D006DC1F
:10533000BCF1250F77D0BCF1580F13D1ABE0BCF115
:10534000640F71D0BCF1690F0CD1A8E0BCF1700FF3
:105350006BD0BCF1730F35D0BCF1750F66D0BCF1CA
:10536000780F7BD0A84201D280F800A0401C2178A1
:10537000002974D0A84200D20170401CA5E011F0B1
:10538000100F0AD1521E002A07DDA84201D280F870
:105390000080401C521E002AF7DC069911F8043BDD
:1053A0000691D9B2A84200D20170401C511E0029BA
:1053B00053DDA84201D280F80080401C491E00291C
:1053C000F7DC82E0DDF818C05CF8043BCDF818C0CB
:1053D00003B952A34FF0000C01E00CF1010C94450D
:1053E00004D013F80CE0BEF1000FF6D1BBF1000FB2
:1053F00002DDDC4500DDDC4611F0100F0CD111465A
:10540000521E614508DDA84201D280F80080401C90
:105410001146521E6145F6DC0021BCF1000F10DD83
:10542000A84204E035E02EE039E019E039E003D28B
:1054300093F800B080F800B0401C5B1C491C61452B
:10544000EEDB511E624540DDA84201D280F80080AB
:10545000401C0A46491E6245F6DC36E01DE03FE08E
:10546000B2F1FF3F02D1082241F00101CDF804B0B2
:10547000029106990092102351F8042B06912946B7
:10548000FDF782FC21E0A84201D280F800A0401C78
:105490001BE0082305E041F04001102301E041F04A
:1054A0000201BEF16C0F1DD0BEF1680F21D0DDF8F6
:1054B00018E05EF804CBCDF818E000920291CDF828
:1054C00004B062462946FDF75FFC641C2178002980
:1054D0007FF4AAAEEFB10021A84218D2017018E003
:1054E000641EF2E7DDF818E05EF804CBCDF818E0B2
:1054F000E3E7DDF818C03CF804EBCDF818C01FFA5C
:105500008EFC11F0020FD8D00FFA8CFCD5E705F80D
:10551000011C07B0801BBDE8F08F0000284E554CE1
:105520004C29000000207047002070470020704781
:105530000020704710B5FAF797FEFDF7C1FEFEF7A1
:10554000C5FDFEF771FFFEF73DFFFDF7D5FCFEF749
:1055500077FFFFF7CFF8FEF753FF002010BD0000E4
:1055600010B5044609A0FEF759F8FDF72BFB0128FA
:1055700002D12046FDF734FAFCF718FC224601461A
:10558000BDE8104002A0FEF749B800000A00000084
:10559000257325730000000070B505462C68AC42E9
:1055A0000DD0A4F1140106A0FEF738F82068A84237
:1055B00002D004A0FEF732F82468AC42F1D170BDED
:1055C000257300002F000000024601E0521C491C18
:1055D00092F800C0BCF1000F03D00B780BB19C45D2
:1055E000F4D0101A7047000010B50B48094901604B
:1055F0004FF4E131416000218160C16001610C2202
:1056000042618161C161FBF76CFE00B1FEE70020E1
:1056100010BD000000100140EC42002010B51BA09E
:10562000FDF7FCFF1D4C21881DA0FDF7F7FF20882A
:1056300010F0010F02D020A0FDF7F0FF208810F03D
:10564000020F02D01FA0FDF7E9FF208810F0040F21
:1056500002D01FA0FDF7E2FF208810F0080F02D053
:105660001DA0FDF7DBFF208810F4807F02D01CA076
:10567000FDF7D4FF208810F4007F02D01BA0FDF7B7
:10568000CDFFBDE8104004A0FDF7C8BF757361678A
:1056900065206661756C743A0A0000002AED00E02E
:1056A0005343425F434653525F554653523A307814
:1056B0002530325820000000554E444546494E538F
:1056C00054522000494E5653544154452000000086
:1056D000494E5650432000004E4F435020000000DA
:1056E000554E414C49474E454420000044495642DE
:1056F000595A45524F20000010B5FEF7E7FC002034
:1057000010BD4FF04070E1EE100A7047000000003D
:105710000000000001020304060708090000000061
:105720000102030472745F7468726561645F696486
:105730006C655F6578637574650072745F73656D21
:105740005F696E69740072745F73656D5F64657420
:105750006163680072745F73656D5F637265617425
:10576000650072745F73656D5F64656C6574650078
:1057700072745F73656D5F74616B650072745F73E3
:10578000656D5F72656C656173650072745F7365EA
:105790006D5F636F6E74726F6C0000000100020039
:1057A00001000300010002000100040001000200EA
:1057B00001000300010002000100050001000200D9
:1057C00001000300010002000100040001000200CA
:1057D00001000300010002000100060001000200B8
:1057E00001000300010002000100040001000200AA
:1057F0000100030001000200010005000100020099
:105800000100030001000200010004000100020089
:105810000100030001000200010007000100020076
:105820000100030001000200010004000100020069
:105830000100030001000200010005000100020058
:105840000100030001000200010004000100020049
:105850000100030001000200010006000100020037
:105860000100030001000200010004000100020029
:105870000100030001000200010005000100020018
:105880000100030001000200010004000100020009
:1058900001000300010002000100303132333435D1
:1058A00036373839616263646566003031323334CB
:1058B00035363738394142434445460072745F6695
:1058C00072656500706C75675F686F6C65730072F8
:1058D000745F73797374656D5F686561705F696E1D
:1058E00069740072745F6D616C6C6F630072745FD9
:1058F0007265616C6C6F630072745F6F626A65637E
:10590000745F696E69740072745F6F626A65637454
:105910005F6465746163680072745F6F626A656377
:10592000745F616C6C6F636174650072745F6F6249
:105930006A6563745F64656C6574650072745F6F3B
:10594000626A6563745F69735F73797374656D6FA1
:10595000626A6563740072745F6F626A6563745F24
:105960006765745F747970650072745F6F626A65F1
:1059700063745F66696E64005F72745F7363686509
:1059800064756C65725F737461636B5F6368656394
:105990006B0072745F7363686564756C655F696ED4
:1059A000736572745F7468726561640072745F73AA
:1059B00063686564756C655F72656D6F76655F744D
:1059C0006872656164005F72745F746872656164B7
:1059D0005F696E69740072745F7468726561645F98
:1059E000696E69740072745F7468726561645F7374
:1059F0007461727475700072745F7468726561644A
:105A00005F6465746163680072745F746872656175
:105A1000645F64656C6574650072745F7468726558
:105A200061645F736C6565700072745F7468726541
:105A300061645F64656C61795F756E74696C007236
:105A4000745F7468726561645F636F6E74726F6CAB
:105A50000072745F7468726561645F7375737065FA
:105A60006E640072745F7468726561645F726573FE
:105A7000756D650072745F7468726561645F7469E6
:105A80006D656F75740072745F74696D65725F69BE
:105A90006E69740072745F74696D65725F646574B9
:105AA0006163680072745F74696D65725F64656CD0
:105AB0006574650072745F74696D65725F7374619B
:105AC00072740072745F74696D65725F73746F7065
:105AD0000072745F74696D65725F636F6E74726F6C
