:020000040800F2
:1000000078070020290200088F1400083D1300081B
:100010008D140008B10400089519000800000000C4
:1000200000000000000000000000000011170008A0
:10003000B304000800000000911400081317000822
:10004000430200084302000843020008430200087C
:10005000430200084302000843020008430200086C
:10006000430200084302000843020008430200085C
:10007000430200084302000843020008430200084C
:10008000430200084302000843020008430200083C
:10009000430200084302000843020008430200082C
:1000A000430200084302000843020008430200081C
:1000B000430200084302000843020008430200080C
:1000C0004302000843020008430200089514000898
:1000D00043020008430200084302000843020008EC
:1000E00043020008430200084302000843020008DC
:1000F00043020008430200084302000843020008CC
:1001000043020008430200084302000843020008BB
:1001100043020008430200084302000843020008AB
:10012000430200084302000843020008430200089B
:10013000430200084302000843020008430200088B
:10014000430200084302000843020008430200087B
:10015000430200084302000843020008430200086B
:10016000430200084302000843020008430200085B
:100170004302000843020008430200080000000098
:10018000430200084302000800F002F800F03CF8C7
:100190000AA090E8000C82448344AAF10107DA45E2
:1001A00001D100F031F8AFF2090EBAE80F0013F0F8
:1001B000010F18BFFB1A43F001031847DC180000B9
:1001C000FC180000103A24BF78C878C1FAD852074A
:1001D00024BF30C830C144BF04680C6070470000C1
:1001E0000023002400250026103A28BF78C1FBD840
:1001F000520728BF30C148BF0B6070471FB501F0E0
:1002000039FC1FBD10B510BD00F00CF91146FFF709
:10021000F5FF01F001FC00F03EF903B4FFF7F2FF37
:1002200003BC01F0C8FB00000948804709480047AB
:10023000FEE7FEE7FEE7FEE7FEE7FEE7FEE7FEE796
:10024000FEE7FEE704480549054A064B70470000F3
:10025000B117000889010008780100207807002004
:100260007803002078030020704753EA020C00F066
:1002700069802DE9F04B4FF00006002B1FBFB3FA49
:1002800083F503FA05F424FA05F65E4012BF16431F
:10029000B2FA82F502FA05F4C5F120051EBF22FA72
:1002A00005FC44EA0C04203556EA044C4FEA144499
:1002B00018BF641C4FF000084FF00009904271EB2A
:1002C000030C39D3002919BFB1FA81F701FA07F6F7
:1002D000B0FA80F700FA07F6C7F120071EBF20FA30
:1002E00007FC46EA0C062037B6FBF4FCA7EB050733
:1002F000103F07F01F0BCBF120060CFA0BFB2CFA7A
:1003000006F644BFB3460026202FA4BF5E464FF03A
:10031000000B5BEA060C08BF4FF0010B19EB0B0951
:10032000ABFB027C48EB0608C01B06FB02CC0BFBB8
:1003300003CC71EB0C01C1E70B460246414648462F
:10034000BDE8F08B13B54FF000004FF00001AFF3A4
:100350000080BDE81C4070470FB4044910B503AAE3
:10036000029800F031F810BC5DF814FB0C0000207E
:100370004FF0000200B5134694469646203922BF3E
:10038000A0E80C50A0E80C50B1F12001BFF4F7AF89
:10039000090728BFA0E80C5048BF0CC05DF804EB6B
:1003A000890028BF40F8042B08BF704748BF20F8D9
:1003B000022B11F0804F18BF00F8012B70477047D7
:1003C0007047704770470000074B70B50D467B447F
:1003D00000F011F80446284600F020F810B14FF064
:1003E000FF3070BD204670BD3316000001694A1C05
:1003F00002610878704700B58FB0CDE90131002166
:10040000059105497944CDE903101146684600F08D
:100410002EF80FB000BD0000E5FFFFFF007B00F0ED
:1004200080007047754600F03FF8AE46050069460B
:10043000534620F00700854618B020B5FFF702FFAD
:10044000BDE820404FF000064FF000074FF00008D5
:100450004FF0000B21F00701AC46ACE8C009ACE856
:10046000C009ACE8C009ACE8C0098D4670472DE969
:10047000F04106460024D6E90170F5688046304612
:1004800003E04146B847641C3046A8470028F8D12D
:100490002046BDE8F08110B50446AFF30080204649
:1004A000BDE81040FFF7B9BE0048704718010020B2
:1004B000FEE7704772B6FEE790F83510022903D0C8
:1004C0008021416501207047052180F835100068C2
:1004D000016821F001010160002070472DE9F84F0B
:1004E000DFF8BCA1002201250AF1040B03264FF01E
:1004F0000F090BF1040E00BF0B6805FA02F423404C
:10050000A34270D10F7907F00307012F01D0022F0A
:1005100016D187684FEA420806FA08FC27EA0C075A
:10052000D1F80CC00CFA08FC4CEA070CC0F808C063
:100530004768A7430C79C4F3001494403C434460DB
:100540000C79E443A4070AD0C4684FEA420C06FAC7
:100550000CF7BC438F6807FA0CF72743C7600C7988
:1005600004F00304022C12D1D40800EB840CDCF854
:1005700020405707FF0E09FA07F824EA0804D1F8CB
:10058000108008FA07F848EA0408CCF820800468CC
:100590004FEA420C06FA0CF7BC430F7907F0030749
:1005A00007FA0CF7274307604C6814F4403F70D0FB
:1005B0003C4C276847F480472760246822F00307F3
:1005C00004F480440094384C07EB040CDCF8084831
:1005D00097074FEA177809FA08F7BC43334FB84238
:1005E00002D1002724E054E0314FB84201D1012765
:1005F0001EE0304FB84201D1022719E02E4FB84219
:1006000001D1032714E02D4FB84201D104270FE098
:100610002B4FB84201D105270AE02A4FB84201D139
:10062000062705E0284FB84201D1072700E0082738
:1006300007FA08F72743CCF80878DAF8004057465D
:10064000D1F804C09C435FEACC3C00D51C433C601D
:10065000DBF800405F46D1F804C09C435FEA8C3C65
:1006600000D51C433C60DEF800407746D1F804C05A
:100670009C435FEACC2C00D51C433C60084F0C37F0
:100680003C68D1F804C09C435FEA8C2C00D51C4325
:100690003C60521C102AFFF42FAFBDE8F88F000019
:1006A000003C01404438024000300140000002405C
:1006B0000004024000080240000C0240001002400A
:1006C0000014024000180240001C0240426921EA66
:1006D00002030A4043EA0241816170470AB1816125
:1006E00070470904FBE7000001488068704700007C
:1006F0001000002002488168027811448160704730
:10070000100000200B4810B5016841F40071016031
:10071000016841F480610160016841F48071016009
:10072000032000F06FF80F2000F006F800F024F826
:10073000002010BD003C024070B50D4D04464FF442
:100740007A712878B1FBF0F00A490968B1FBF0F042
:1007500000F0A0FC48B9102C07D200222146501E00
:1007600000F030F800206C6070BD012070BD00000A
:10077000100000201C0000200A4808B5016841F460
:1007800080410160006800F4804000900548001F2F
:10079000016841F080510160006800F080500090D5
:1007A00008BD000044380240002809DB00F01F02A9
:1007B000012191404009800000F1E020C0F80011C3
:1007C00070470000F0B40E4B1B680C46C3F30223C5
:1007D000C3F10705042D00D90425191D072901D2ED
:1007E000002300E0DB1E012606FA05F1491E214028
:1007F00099409E40761E16403143F0BC01F0CBB8C4
:100800000CED00E0064900F0070208684FF6FF0310
:10081000184040EA0220034A104308607047000075
:100820000CED00E00000FA052DE9F0470E4605004A
:1008300065D0DFF81481D8F80000F7B200F00700A7
:10084000B04207D288F80070D8F8000000F0070026
:10085000B04254D128683D4C810712D5400703D5DA
:10086000206840F4E05020602878000703D5206815
:1008700040F4604020602068A96820F0F000084340
:1008800020602878C0072DD03049686808390128D1
:1008900012D0022813D0032811D009688907002933
:1008A0002DDA216821F0030101432160FFF71CFFCD
:1008B000814641F2883A0EE009688903EFE709684A
:1008C0008901ECE7FFF710FFA0EB0901514502D9C0
:1008D0000320BDE8F0872068696800F00C00B0EBE9
:1008E000810FEFD1D8F80010404601F00701B14266
:1008F00007D90770006800F00700B04201D001205E
:10090000E7E72878400705D52068E96820F4E0503B
:10091000084320602878000706D52068296920F45C
:10092000604040EAC100206000F038F82168084AC1
:10093000C1F30311515CC8400649086006480068CD
:10094000FFF7FAFE0020C4E7003C024008380240EE
:100950007E1A00081C0000201400002004480549ED
:1009600000680968044AC1F38221515CC84070479D
:100970001C000020083802408E1A0008044805496F
:1009800000680968044AC1F34231515CC8407047AD
:100990001C000020083802408E1A0008154810B5C7
:1009A000006810F00C02144813D04110042A0FD034
:1009B000082A0ED10F4C241F2268236802F03F0240
:1009C0005B0207D52068C0F38810A0FB010106E098
:1009D000084610BD2168C1F38811A1FB0001002366
:1009E000FFF743FC2168C1F30141491C4900B0FBFA
:1009F000F1F010BD083802400024F4002DE9F84F52
:100A000004006ED02078DFF84C93C007A9F10405EC
:100A10004AD009F104000168C1F38101012908D01D
:100A20000068C0F3810002280AD1D9F80000400212
:100A300006D52868800337D560680028E1D033E008
:100A40006068B0F5803F10D0B0F5A02F286810D0B6
:100A500020F480302860286820F4802028606068B6
:100A6000A8B1FFF741FE06460DE0286840F480304B
:100A7000F4E740F480202860F7E700BFFFF734FE7A
:100A8000801B642873D828688003F7D50CE0FFF733
:100A90002BFE064605E000BFFFF726FE801B6428FC
:100AA000F0D828688003F7D42078DFF8AC8280077C
:100AB0004FF0000A3ED5A748001D016811F00C0F49
:100AC00008D00068C0F3810002280BD1D9F80000DB
:100AD000400207D42868800716D5E068012800D1B5
:100AE00012E033E1E068B8B10120C8F80000FFF778
:100AF000FBFD064605E000BFFFF7F6FD801B022860
:100B0000C0D828688007F7D52868216920F0F80048
:100B100040EAC10028600DE0C8F800A0FFF7E4FD3E
:100B2000064604E0FFF7E0FD801B02281FD8286876
:100B30008007F7D42078000722D5864F874861695F
:100B4000703771B101210160FFF7CEFD064604E068
:100B5000FFF7CAFD801B022809D838688007F7D53F
:100B60000EE0C0F800A0FFF7BFFD064605E082E0FA
:100B7000FFF7BAFD801B02287DD838688007F7D4BC
:100B80002078400768D5DFF8CCB100270BF13C0B8B
:100B9000DBF80000C0000BD4DBF8001041F08051FE
:100BA000CBF80010DBF80000012700F08050009027
:100BB0006B4E3068C00510D4306840F480703060EF
:100BC000FFF792FD009005E0FFF78EFD0099401AB7
:100BD000022850D83068C005F6D55E4EA0686C3645
:100BE00001280FD00528306810D020F001003060B7
:100BF000306820F004003060A068B8B1FFF774FDE1
:100C000000900FE0306840F00100F4E740F004008D
:100C10003060F7E7FFF768FD0099411A41F288302C
:100C2000814266D830688007F4D50EE0FFF75CFD9E
:100C3000009007E0FFF758FD0099411A41F2883013
:100C4000814256D830688007F4D42FB1DBF8001009
:100C500021F08051CBF80010A069C8B33D49091DAF
:100C60000968C1F3810102294AD00228504607D001
:100C7000C8F8600000E03CE0FFF736FD04463BE0CA
:100C80004746C8F86000FFF72FFD064605E000BFA5
:100C9000FFF72AFD801B02282BD828688001F7D493
:100CA000D4E907010843A16A2E4A490802EB014131
:100CB000626A41EA8211084394F82C1040EA01610B
:100CC000C9F8001001203866FFF70EFD044606E063
:100CD0003EE000BFFFF708FD001B022809D8286886
:100CE0008001F7D534E000BFFFF7FEFC001B0228AF
:100CF00002D90320BDE8F88F28688001F4D427E0EA
:100D00000128F7D0D9F80000E26900F4800191428F
:100D10001CD1226A00F03F01914217D147F6C07101
:100D2000626A0140B1EB821F10D1A26A4FF0FF331B
:100D300000F4403103EB5202B1EB024F06D194F8BC
:100D40002C1000F07060B0EB016F01D00120D1E7F2
:100D50000020CFE70438024000004742800E47429F
:100D6000007000400000FFFF7047000038B50168C8
:100D700004464A688868C043430606D5C30704D1C1
:100D8000D3435B0601D4216C05E0830708D4D34329
:100D90001B0605D4616C01B02046BDE83040084711
:100DA000830603D5430601D5C30551D4D3439B061F
:100DB0004ED443060AD494F85130032B49D0636DC6
:100DC00043F004036365CB688B680093830609D402
:100DD000636D43F0010363658B6800930B6823F038
:100DE00040030B60C00506D4606D40F008006065EC
:100DF000206880680090606D002829D020684168D4
:100E000021F0E0014160012084F85100900701D4F5
:100E1000D00722D02068416821F003014160114DC4
:100E2000E06C40B10565E06CFFF746FB18B1606D02
:100E300040F040006065A06C002809D00565A06CFA
:100E4000FFF73AFB002803D0606D40F0400060657A
:100E500038BDC8688868009038BD2046FFF784FF19
:100E600038BD0000F115000870B5040009D0606AB3
:100E7000002540B125616561A56294F8510040B13B
:100E80000CE0012070BD6068B0F5827FF4D0E561B0
:100E9000F2E784F85050204600F044F8022084F82D
:100EA00051002068016821F040010160A08821897B
:100EB00000F4827001F404410843A18901F4006147
:100EC0000843217C01F002010843217D01F001016A
:100ED0000843218B01F400710843217F01F03801A0
:100EE000084394F8201001F080010843218D01F49B
:100EF0000051084321680860A069042101EA1040FC
:100F000094F8241001F0100108432168486020681B
:100F1000C16921F40061C1616565012084F8510057
:100F2000002070BDF0B587B0044614216846FFF775
:100F30001FFA2049206888423AD11F4800240168DE
:100F400041F480510160006800F4805005901A4817
:100F50001438016841F001010160016801F00101EC
:100F60000591016841F0020101600068022500F06E
:100F7000020005901020CDE9000502AA03260527EE
:100F800082E8D00069460D48FFF7A8FA3820CDE97D
:100F9000000502AA694682E8D0000948FFF79EFAD8
:100FA000002211462320FFF70DFC2320FFF7FCFB56
:100FB00007B0F0BD0030014044380240000002405C
:100FC0000004024070470000F0B590F85050002433
:100FD000012D0CD0012580F8505090F8515000267A
:100FE0004768012D0BD0B7F5827F06D101E00220C2
:100FF000F0BD87680FB9042D01D0022429E0A9B102
:10100000A2B19BB190F85150042D02D0052580F873
:101010005150466501638386C38682638387C38795
:10102000C16829B10D4901640D4904E0012410E0B3
:101030000C4901640C49416401684A6842F0E002CD
:101040004A6001680A68520603D40A6842F0400206
:101050000A6080F850602046F0BD0000A11400082E
:1010600001150008D114000831150008074A064987
:1010700013680B6053684B6012890A810A23034A84
:101080000349FFF7A1BF00002A0000202000002034
:101090000000002010B5401EB0F1807F01D3012078
:1010A00010BD4FF0E02460610F21601700F073FC69
:1010B0000020A06107202061002010BD70B590F8CD
:1010C0003C20012A32D0012480F83C40022280F8E2
:1010D0003D2003685A689D6822F070060A68324312
:1010E0005A60134B02689A4214D0B2F1804F11D06B
:1010F000104B9A420ED0104B9A420BD00F4B9A4293
:1011000008D00F4B9A4205D00E4B9A4202D00E4B9C
:101110009A4204D1496825F080031943916080F810
:101120003D40002180F83C10084670BD022070BD93
:10113000000001400004004000080040000C004096
:1011400000040140004001400018004010B50400B8
:1011500003D094F83D0010B107E0012010BD00203D
:1011600084F83C00204600F01FF8022084F83D007F
:10117000211D206800F024FB012084F8460084F83B
:101180003E0084F83F0084F8400084F8410084F871
:10119000420084F8430084F8440084F8450084F851
:1011A0003D00002010BD000008B5006806498842D7
:1011B00008D10648016841F020010160006800F094
:1011C0002000009008BD000000140040403802409C
:1011D00090F83D10012901D001207047022180F8CC
:1011E0003D1000681149884214D0B0F1804F11D0F1
:1011F0000F4988420ED00F4988420BD00E498842D1
:1012000008D00E49884205D00D49884202D00D49C8
:10121000884204D1816801F00701062903D00168E2
:1012200041F0010101600020704700000000014012
:101230000004004000080040000C00400004014091
:10124000004001400018004001680A6A41F2111391
:101250001A4207D10A6A9B101A4203D10A6822F087
:1012600001020A60012180F83D100020704770B52E
:10127000040004D094F83D00002510B106E00120E0
:1012800070BD84F83C50204600F022F8242084F8F9
:101290003D002068C16821F40051C160204600F083
:1012A000F3FA2068016921F49041016120684169E5
:1012B00021F02A0141612068C16841F40051C160F8
:1012C0002564202084F83D0084F83E00002070BD95
:1012D00010B586B0044614216846FFF749F8144952
:1012E0002068884221D113480021026842F0100290
:1012F0000260006800F0100005900E481438026883
:1013000042F001020260006800F0010005904FF415
:10131000C06000900220CDE9010103200390072066
:10132000049069460448FFF7D9F806B010BD0000E4
:10133000001001404438024000000240FEE7000077
:1013400030B587B014216846FFF712F81948002419
:10135000016841F010010160016801F01001059180
:10136000016841F080010160016801F08001059190
:10137000016841F001010160016801F0010105917E
:10138000016841F00201016000680B4D00F00200AD
:101390000590002218212846FFF7A0F91820009098
:1013A0000120CDE90104694628460394FFF796F829
:1013B00007B030BD30380240001002400D4810B573
:1013C0000B490160002141608160C16001614161A0
:1013D00081610162416281620A21C162FFF744FDBD
:1013E000002803D0BDE81040FFF764B810BD00002E
:1013F00000300140340000203EB51348002401684D
:1014000041F0200101600068009400F02000CDE967
:1014100001400F480D4901605321C0E901144FF606
:10142000FF718461C160FFF791FE08B1FFF742F8D8
:101430000094694606480194FFF740FE002801D059
:10144000FFF738F83EBD000040380240001400406D
:101450008C0000200C4810B50A4901604FF4E131BE
:101460004160002181600C22C160C0E904128161E9
:10147000C161FFF7FCFE002803D0BDE81040FFF774
:1014800019B810BD00100140D4000020FEE7FEE7AF
:10149000704700000148FFF769BC000034000020DD
:1014A0000168C968826B1180816B891C8163C18F5F
:1014B000491EC187C18F002909D101684A6822F0FD
:1014C00040024A60C18E002901D100F049B870473E
:1014D0000168097B826B1170816B491C8163C18F2C
:1014E000491EC187C18F002909D101684A6822F0CD
:1014F00060024A60C18E002901D100F031B8704706
:10150000016B02680988D160016B891C0163C18E7F
:10151000491EC186C18E002909D101684A6822F09E
:1015200080024A60C18F002901D100F019B87047CC
:10153000016B026809781173016B491C0163C18E4C
:10154000491EC186C18E002909D101684A6822F06E
:1015500080024A60C18F002901D100F001B87047B4
:1015600038B50446214845F6C0510068B0FBF1F09B
:10157000642148430090FFF7B7F8024620684168AD
:1015800021F020014160009888B1401E0090206841
:1015900080688007F7D56421204600F031F818B143
:1015A000606D40F020006065A06828B108E0606DC3
:1015B00040F020006065EEE72068C1688068009018
:1015C000616D012029B184F851002046FFF7CCFB62
:1015D00038BD94F8511084F851000429204602D0F7
:1015E000FFF744FD38BDFFF7EDFC38BD1C000020BF
:1015F00010B5806B0021C187C186FFF7B5FB10BD18
:1016000038B504461248134B0068B0FBF3F04FF4B2
:101610007A73584300906068B0F5827F0DD10B4615
:10162000009200228021204600F016F870B1606D13
:1016300040F020006065032038BD009830B1401EA6
:10164000009020688068C0430006F6D5002038BDB1
:101650001C00002000366E012DE9F8431E4691461D
:1016600088460446089DFFF73FF8401B351AFFF7F0
:101670003BF8074625480068C0F3CB30684338E0A4
:10168000701C37D0FFF730F8C01BA84203D215B149
:10169000009860B32CE02068416821F0E0014160CF
:1016A0006068B0F5827F0BD1A068B0F5004F02D022
:1016B000B0F5806F04D12068016821F0400101601D
:1016C000A06AB0F5005F09D12068016821F40051DB
:1016D00001602068016841F400510160012084F834
:1016E0005100002084F850000320BDE8F883002555
:1016F000401E00902068816838EA010004D0002173
:101700004945BDD10020F0E70121F9E71C00002088
:101710007047FEF7EFBF000030B593B03021684648
:10172000FEF726FE14210CA8FEF722FE1E48002517
:10173000016841F080510160006800F08050119014
:101740001A48016841F4804101600068022400F4F5
:101750008040119001200090000401908001CDE9AB
:101760000640082008904FF4A870CDE90904042031
:101770000B906846FFF742F908B172B6FEE70CA974
:101780000F2081E831004FF4A0500F904FF48050AB
:10179000109005210CA8FFF747F8002801D072B679
:1017A000FEE713B030BD000040380240007000403A
:1017B0000248016841F470010160704788ED00E063
:1017C000F0B50268254C264D264E274F274B4FF08B
:1017D000804CA04209D0604507D0A84205D0B04255
:1017E00003D0B84201D0984204D122F0700E4A686A
:1017F00042EA0E02A0421BD0604519D0A84217D081
:10180000B04215D0B84213D0984211D0184DA8421A
:101810000ED0184DA8420BD0174DA84208D0174D36
:10182000A84205D0164DA84202D0164DA84203D1B9
:1018300022F44075CA682A434D6922F080022A4387
:1018400002608A68C2620A688262A04201D098423D
:1018500001D10969016301214161F0BD000001402E
:101860000004004000080040000C0040000401405B
:101870000040014000440140004801400018004081
:10188000001C00400020004070B50446006801695B
:10189000E26821F44051114301612169A068E269C5
:1018A00008436169114308432168CA6849F20C631F
:1018B0009A430243CA6020684169A26921F44071D9
:1018C0001143416131492068884202D03049884241
:1018D00002D1FFF753F801E0FFF740F8E269002377
:1018E000192164253226B2F5004F626828D0A0FB8A
:1018F0000101930F9200FEF7B8FC0146B0FBF5F032
:101900006FF01802504301EB800006EB0010B0FBB3
:10191000F5F000F0F002B1FBF5F002EB0012B1FBC4
:10192000F5F06FF01803584301EB800006EB001050
:10193000B0FBF5F000F00F0021681044886070BD26
:10194000A0FB010192185B41FEF78FFC0146B0FB42
:10195000F5F00201B1FBF5F06FF01803584301EB0D
:10196000800006EBC000B0FBF5F000F0F80002EBE1
:101970004002B1FBF5F0584301EB800006EBC000DC
:10198000B0FBF5F000F00700D6E7000000100140C2
:1019900000140140FEE70907090E002804DB00F1EE
:1019A000E02080F80014704700F00F0000F1E02004
:1019B00080F8141D7047704770B5054600244FF439
:1019C0007A7604E0304600F005F8641CA4B2AC421C
:1019D000F8D370BD70B54FF6FA75281A84B208486E
:1019E000FFF7F6FB064801684C62006801E0416AB7
:1019F0008CB2AC42FBD3BDE870400148FFF724BC79
:101A00008C00002003490A685206FCD5C2B24A6025
:101A10007047000000100140FEF774FEFFF77CFEE7
:101A2000FFF78EFCFFF7CAFCFFF714FDFFF7E4FC9D
:101A30000A230B4A0B490C48FFF7C6FA0B4C4FF42C
:101A40007A7508212046FEF741FE10212046FEF758
:101A50003DFE2846FFF7B0FF05A0FEF77DFCF0E74E
:101A60002000002000000020340000200010024070
:101A7000730D0A004FF04070E1EE100A704700004D
:101A8000000000000000010203040607080900002E
:101A90000000010203040000B81A00080000002042
:101AA00020000000C4010008D81A0008200000200F
:101AB00058070000E00100080102030405060708BA
:101AC000090A0000000000000100000010000000F2
:081AD000000000000024F400F6
:040000050800018965
:00000001FF
