:020000040800F2
:10000000106F002071020008271E0008251C000840
:10001000251E0008A908000825210008000000008E
:100020000000000000000000000000002B1E00087F
:10003000AB08000800000000291E00082D1E000863
:100040008B0200088B0200088B0200088B0200085C
:100050008B0200088B0200088B0200088B0200084C
:100060008B0200088B0200088B0200088B0200083C
:100070008B0200088B0200088B0200088B0200082C
:100080008B0200088B0200088B0200088B0200081C
:100090008B0200088B0200088B0200088B0200080C
:1000A0008B0200088B0200088B0200088B020008FC
:1000B0008B0200088B0200088B0200088B020008EC
:1000C0008B0200088B0200088B0200088B020008DC
:1000D0008B0200088B0200088B0200088B020008CC
:1000E0008B0200088B0200088B0200088B020008BC
:1000F0008B0200088B0200088B0200088B020008AC
:100100008B0200088B0200088B0200088B0200089B
:100110008B0200088B0200088B0200088B0200088B
:100120008B0200088B0200088B0200088B0200087B
:100130008B0200088B0200088B0200088B0200086B
:100140008B0200088B0200088B0200088B0200085B
:100150008B0200088B0200088B0200088B0200084B
:100160008B0200088B0200088B0200088B0200083B
:100170008B0200088B0200088B02000800000000C0
:100180008B0200088B02000800F002F800F046F82D
:100190000AA090E8000C82448344AAF10107DA45E2
:1001A00001D100F03BF8AFF2090EBAE80F0013F0EE
:1001B000010F18BFFB1A43F00103184730C30000BA
:1001C00050C30000103A24BF78C878C1FAD852074B
:1001D00024BF30C830C144BF04680C6070470000C1
:1001E0000023002400250026103A28BF78C1FBD840
:1001F000520728BF30C148BF0B607047642900F028
:100200003981732900F0EB82002070471FB50CF094
:1002100053F800F080F91FBD10B510BD00F016FBBB
:100220001146FFF7F3FF04F093FA00F034FB03B438
:10023000FFF7F2FF03BC01F086FF00000B49D1F885
:1002400000C04A685CF8043B1068184442F8040B8C
:100250008C4528BFA1F1DC0C8A4228BFA1F1DC0249
:10026000C1F800C04A6020F000407047A868002034
:100270000948804709480047FEE7FEE7FEE7FEE73A
:10028000FEE7FEE7FEE7FEE7FEE7FEE70448054976
:10029000054A064B70470000C91E00088901000886
:1002A00010690020106F0020106B0020106B0020E0
:1002B000704753EA020C00F069802DE9F04B4FF0D3
:1002C0000006002B1FBFB3FA83F503FA05F424FAE6
:1002D00005F65E4012BF1643B2FA82F502FA05F443
:1002E000C5F120051EBF22FA05FC44EA0C042035A6
:1002F00056EA044C4FEA144418BF641C4FF000083F
:100300004FF00009904271EB030C39D3002919BF5B
:10031000B1FA81F701FA07F6B0FA80F700FA07F6AA
:10032000C7F120071EBF20FA07FC46EA0C0620375B
:10033000B6FBF4FCA7EB0507103F07F01F0BCBF152
:1003400020060CFA0BFB2CFA06F644BFB346002637
:10035000202FA4BF5E464FF0000B5BEA060C08BFDF
:100360004FF0010B19EB0B09ABFB027C48EB0608C5
:10037000C01B06FB02CC0BFB03CC71EB0C01C1E7ED
:100380000B46024641464846BDE8F08B13B54FF098
:1003900000004FF00001AFF30080BDE81C40704743
:1003A0000FB4044910B503AA029800F01DFA10BC5E
:1003B0005DF814FB000000202DE9F0410E460446D4
:1003C000002020622046E168884730B3252805D008
:1003D000D4E901219047206A401CF2E7E1682046F9
:1003E00000278847050018D0A5F14100192802D838
:1003F00020354FF400673246294620462760FFF734
:10040000FDFE40B1012804D0F61D26F0070608368F
:10041000D8E7361DD6E72846DAE7206ABDE8F0813E
:1004200070B50C460546012A05D02878800600D50F
:10043000EA69002302E0012305E05B1C934202D23B
:10044000E05C0028F9D1A869E618C01AA861286AFA
:10045000184428622846AFF3008004E0D5E9012162
:1004600014F8010B9047B442F8D32846AFF300804C
:1004700070BD00002DE9F041064600241068752982
:10048000314616A510D0AFF30080002802DA4042B2
:1004900013A507E031688A0701D512A502E04907D4
:1004A00004D511A5012401E0AFF3008000210A2248
:1004B00006F1240709E0B0FBF2FCB0FBF2F302FB0B
:1004C0001C00303078541846491C0028F3D12346CC
:1004D0002A463046BDE8F04100F016B900000000A1
:1004E0002D0000002B000000200000000B4910B57B
:1004F000A1F17C020A4CC2E93712372106E000EB79
:10050000104342F82130074B00FB03400B1EA1F1C2
:100510000101F4DC10BD0120E8E70000486800207C
:10052000E119D666CD0D010040EA010310B59B0725
:100530000FD1042A0DD310C808C9121F9C42F8D04D
:1005400020BA19BA884201D9012010BD4FF0FF30FE
:1005500010BD1AB1D30703D0521C07E0002010BD14
:1005600010F8013B11F8014B1B1B07D110F8013BA0
:1005700011F8014B1B1B01D1921EF1D1184610BD81
:10058000032A40F2308010F0030C00F0158011F8BF
:10059000013BBCF1020F624498BF11F801CB00F897
:1005A000013B38BF11F8013BA2F1040298BF00F8EB
:1005B00001CB38BF00F8013B11F0030300F02580A8
:1005C000083AC0F0088051F8043B083A51F804CBCF
:1005D000A0E80810F5E7121D5CBF51F8043B40F895
:1005E000043BAFF30080D20724BF11F8013B11F8A0
:1005F00001CB48BF11F8012B24BF00F8013B00F8E4
:1006000001CB48BF00F8012B704710B5203AC0F06D
:100610000B80B1E81850203AA0E81850B1E8185003
:10062000A0E81850BFF4F5AF5FEA027C24BFB1E840
:100630001850A0E8185044BF18C918C0BDE81040B1
:100640005FEA827C24BF51F8043B40F8043B08BFBA
:100650007047D20728BF31F8023B48BF11F8012B81
:1006600028BF20F8023B48BF00F8012B70474FF02D
:1006700000020429C0F0128010F0030C00F01B806F
:10068000CCF1040CBCF1020F18BF00F8012BA8BF7D
:1006900020F8022BA1EB0C0100F00DB85FEAC17C41
:1006A00024BF00F8012B00F8012B48BF00F8012BF4
:1006B00070474FF0000200B5134694469646203925
:1006C00022BFA0E80C50A0E80C50B1F12001BFF40B
:1006D000F7AF090728BFA0E80C5048BF0CC05DF871
:1006E00004EB890028BF40F8042B08BF704748BFBF
:1006F00020F8022B11F0804F18BF00F8012B704733
:1007000070477047704770472DE9F0470D4699468E
:100710009246044600F124080168880604D5E06981
:1007200021F01001216000E00120A84201DD471BFB
:1007300000E00027A1697A1902EB0900081AA061FC
:100740002078C00602D42046AFF30080002608E0DF
:10075000D4E901211AF806009047206A401C761C53
:1007600020624E45F4DB2078C0060AD52046AFF360
:10077000008006E0D4E9012130209047206A401C27
:100780002062381EA7F10107F4DC07E0D4E901215B
:1007900018F805009047206A401C2062281EA5F129
:1007A0000105F3DC2046AFF300802078000602D577
:1007B0000220BDE8F0870120FBE710B5436913B1C3
:1007C000AFF3008001E0FFF72BFE012010BD12788F
:1007D00000F124010A7000224A700122EDE711683D
:1007E0004FF0FF32E9E70000074B70B50D467B4440
:1007F00000F015F80446284600F024F810B14FF038
:10080000FF3070BD204670BD5F2A00000048704771
:10081000B068002001694A1C02610878704700B581
:100820008FB0CDE901310021059105497944CDE929
:10083000031011466846FFF7BFFD0FB000BD000072
:10084000E5FFFFFF007B00F0800070477546FFF773
:10085000DDFFAE4605006946534620F00700854699
:1008600018B020B5FFF712FDBDE820404FF000069C
:100870004FF000074FF000084FF0000B21F0070188
:10088000AC46ACE8C009ACE8C009ACE8C009ACE8CB
:10089000C0098D46704710B50446AFF3008020466E
:1008A000BDE81040FFF7C3BCFEE77047064908B536
:1008B00009684FF4FA52B1FBF2F14143009100BFD5
:1008C000491E0091FBD208BD2800002038B504461F
:1008D000006800F58050816941F4801181612068D1
:1008E00000F58050806900900120FFF7DFFF20684D
:1008F000009900F58050816138BD00002DE9F0417C
:10090000044621B14FF40060E060C000A060E069DF
:100910000025002861D028462368402619683A4AF5
:100920001140D4E902273A43024342F400700843DD
:10093000186020680768012000F074F820680760DC
:100940002068466020684668012000F06BF8206847
:100950004660206885602068C560216888694FF618
:100960004172104040F08000886120688669012053
:1009700000F058F8206886612068C5612068C56964
:10098000012000F04FF82068C561226802F580520E
:1009900090691E4908401E4901439161206800F595
:1009A00080508569012000F03DF8206800F58050F6
:1009B00085612068174900F580500160206800F5C6
:1009C00080500568012000F02DF8206800F5805067
:1009D0000560A069012803D009E04FF480609BE71F
:1009E000206800F58050C1690B4A1143C1616069FC
:1009F0000A4982880A640278D0F8010042EA00209D
:100A00004864BDE8F08100000F8120FF233FDEF83D
:100A1000040020028020C10240000100008002404A
:100A200072B6FEE770B5044600F048FD0546601C4E
:100A300002D004480078044400F040FD401BA0426E
:100A4000FAD370BD1C0000202DE9F041054690F856
:100A500045000C46012875D0012685F84560022026
:100A600085F84400002C70D02A6811684148014084
:100A7000D4E900031843D4E902373B431843AB6879
:100A800018432369184363691843EB681843A36943
:100A90001843E3691843236A1843636A1843A36A37
:100AA000184308431060286807680120FFF7BAFF61
:100AB00028680760D4E90B010843D4E90D121143FB
:100AC0000843E16B0843216C0843616C0843A16C47
:100AD000084329684860286847680120FFF7A2FF9B
:100AE000286847602968E06C88602968206DC860C4
:100AF0002A6891694FF641700140D4E91603184302
:100B0000B4F85470236E43EA07431843636E1843E6
:100B1000A36E184308439061286887690120FFF796
:100B200081FF28688761D4E91B0108432968C861EF
:100B30002868C4690120FFF775FF2868C46114E0C4
:100B400000E002E00220BDE8F0812968086820F496
:100B50009042D5E9020318431043086028680468EE
:100B60000120FFF75FFF2868046005F8446F00204C
:100B70006870E8E70F8120FF2DE9F04390F84540C9
:100B80000025012C0DD04FF0010C80F845C0022447
:100B900080F8444044F2F4574FF000495E1E8162F1
:100BA00017E00220BDE8F08301EB4514C4F8009083
:100BB000C5EBC51808EB480802EB8808C4E90178C2
:100BC000B54204D204F12008C4F80C8000E0E160D2
:100BD0006D1C9D42E8D3026802F58052D16080F816
:100BE00044C0002180F845100846DBE72DE9F043BA
:100BF000914690F845200024012A0AD0012680F869
:100C00004560022280F844204FF4801C5D1EC162C2
:100C10001BE00220BDE8F08301EB4412C2F800C0E3
:100C2000C4EBC41707EB470809EB88079760C7694F
:100C30001FB9176847F440071760AC4203D202F1AE
:100C40002007D76000E0D160641C9C42E4D30268B6
:100C500002F58052116180F84460002180F845104F
:100C60000846D7E710B590F84510012913D00122A6
:100C700080F84520022180F84410816A0C68002326
:100C8000002C27DB0C68E40518D5846B641C846396
:100C9000012C02D002E0022010BD016341630C6808
:100CA000C4F30D44241FC463046BA4680464C968BE
:100CB00040F8281F02774377002010BD0C68A40578
:100CC00003D58263C0E90C1302E0846B641C846367
:100CD000C968816200F8442F4370012010BD0000F4
:100CE0002DE9FC474FF000060400B146009603D002
:100CF00094F8440018B107E00120BDE8FC8784F8AF
:100D00004560204600F0E2F86648016841F4804101
:100D10000160006800F4804001906348016821F49C
:100D2000000101600168226A11430160206800F53A
:100D30008050016841F00101016000F0BFFB0546F1
:100D40004FF4FA7709E000BF00F0B8FB401BB8424F
:100D500003D9032004F8440F67E0206800F58050B1
:100D60000068C007F0D12068006920F01C0500F081
:100D7000D1FC4E494E4A0144914202D245F0080549
:100D800016E04C494C4A0144914202D245F00C0510
:100D90000EE04A494A4A0144914209D3494908446C
:100DA0004949884202D245F0040501E045F01005AA
:100DB000206805614FF400420021204600F03CFA13
:100DC0000125A8BBFF20FFF72DFE606888B300F067
:100DD00075FB804641F288376A460121204600F0C3
:100DE000E1F800F06BFBA0EB0800B84217D80098C0
:100DF0004007F1D54FF480520021204600F01CFA44
:100E0000B0B900F05BFB80466A460121204600F045
:100E1000C9F800F053FBA0EB0800B8420AD9012141
:100E20002046FFF76BFD04F8445F0320667064E71B
:100E300024E018E000988006E6D56A461021204696
:100E400000F0B0F8D0B90098410703D54FF4006125
:100E5000E16000E0E660800701D5A66019E04FF48C
:100E60008040A06015E0E068A168C00840EA510039
:100E700082B20021204600F0DFF930B10121204686
:100E8000FFF73CFD84F8445036E740F6FF70FFF76B
:100E9000C9FD49462046FFF731FD84F84450002043
:100EA0002BE70000443802400438014000D3CEFE56
:100EB000C0E1E40040F1E9FD40787D0100796CFC7F
:100EC000005A6202001F0AFA80F0FA02F0B587B0F9
:100ED000044614216846FFF7ECFB2D492068884240
:100EE00053D12C480024016841F000710160016871
:100EF00001F000710591016841F0806101600168B5
:100F000001F080610591016841F0006101600168B4
:100F100001F000610591016841F004010160016880
:100F200001F004010591016841F0010101600168CF
:100F300001F001010591016841F040010160006884
:100F4000022500F0400005903220CDE9000502AAFC
:100F500003260B2782E8D00069460F4800F0A8F965
:100F60008620CDE9000502AA694682E8D0000B4838
:100F700000F09EF94FF4D040CDE9000502AA694681
:100F800082E8D000064800F093F907B0F0BD0000F9
:100F90000080024030380240000802400000024059
:100FA000001802402DE9F047044690F844009146AD
:100FB00082281DD0822084F84400226810694FF6F0
:100FC000FF7500F01C03208A05EAC02018434FF487
:100FD000F86303EA8111014321F0020040F00105AA
:100FE000156100F06BFA064601274FF4803810E0D7
:100FF0000220BDE8F08700BF00F060FA801B40458A
:1010000005D304F8447F002060700320F1E72068D6
:101010000569E807F0D12068406981B2C9F800107D
:1010200084F844700020E4E7F8B5044690F84500E1
:10103000012839D0012584F84550022084F8440065
:1010400020680026016841F00801016020680068FE
:1010500000902846FFF72AFC216800980860206865
:10106000016841F0040101602068006800900120DF
:10107000FFF71CFC2168009808602046FFF726FC5B
:10108000206800F58050816941F400518161206839
:1010900000F58050816941F00201816184F844507B
:1010A00084F845600020F8BD0220F8BDF8B504467C
:1010B00090F84500012839D0012584F845500220D8
:1010C00084F84400206800F58050816921F40051C3
:1010D0008161206800F58050816921F00201816101
:1010E00020680026016821F0040101602068006882
:1010F00000900120FFF7DAFB216800980860204685
:10110000FFF7E4FB2068016821F008010160206816
:10111000006800900120FFF7C9FB21680098086073
:1011200084F8445084F845600020F8BD0220F8BDE2
:10113000F0B590F845200023012A11D0012780F84E
:101140004570022280F84420002459B1C66A3268F2
:10115000002A0ADA122100F8441F44700120F0BD71
:101160000220F0BD00F8447FF7E740F2F455A942B1
:101170000BD9B1FBF5FCB1FBF5F205FB1C1CBCF176
:10118000000F00D0521C012A43D1326842F0405275
:101190003260C26AC1F30C015160C16A0A6842F050
:1011A00000420A60C16AC968C16234E0D6F800C072
:1011B0002CF0405CC6F800C033B9C66AD6F800C04F
:1011C0004CF0805CC6F800C0C66A7560561EB3421B
:1011D00014D1C66AD6F800C04CF0005CC6F800C056
:1011E000C2F10106C6EBC61606EB4606D0F82CC0C7
:1011F00001EB8606C6F30C06CCF80460C66AD6F886
:1012000000C04CF0004CC6F800C0C66A5B1CF66813
:10121000C6629342CAD3016801F580514A695207F8
:1012200005D504224A61016801F580514C6000F83F
:10123000447F44700020F0BD2DE9F041044690F851
:10124000440042281ED0422084F8440023681869D4
:101250004FF6FF7600F01C05208A06EAC0202843DE
:101260004FF4F86505EA8111014390B241F003059E
:1012700058612068056100F021F9064601274FF406
:10128000803810E00220BDE8F08100BF00F016F9C0
:10129000801B404505D304F8447F00206070032084
:1012A000F1E720680569E807F0D184F84470EAE7BF
:1012B0002DE9F84FDFF8BCA1002201250AF1040B4B
:1012C00003264FF00F090BF1040E00BF0B6805FA5F
:1012D00002F42340A34270D10F7907F00307012FD6
:1012E00001D0022F16D187684FEA420806FA08FC9F
:1012F00027EA0C07D1F80CC00CFA08FC4CEA070CE2
:10130000C0F808C04768A7430C79C4F300149440A0
:101310003C4344600C79E443A4070AD0C4684FEA14
:10132000420C06FA0CF7BC438F6807FA0CF7274308
:10133000C7600C7904F00304022C12D1D40800EB2E
:10134000840CDCF820405707FF0E09FA07F824EA5E
:101350000804D1F8108008FA07F848EA0408CCF825
:10136000208004684FEA420C06FA0CF7BC430F7960
:1013700007F0030707FA0CF7274307604C6814F4DB
:10138000403F70D03C4C276847F480472760246872
:1013900022F0030704F480440094384C07EB040C5B
:1013A000DCF8084897074FEA177809FA08F7BC43B2
:1013B000334FB84202D1002724E054E0314FB84205
:1013C00001D101271EE0304FB84201D1022719E0B8
:1013D0002E4FB84201D1032714E02D4FB84201D15E
:1013E00004270FE02B4FB84201D105270AE02A4F0E
:1013F000B84201D1062705E0284FB84201D107279E
:1014000000E0082707FA08F72743CCF80878DAF84D
:1014100000405746D1F804C09C435FEACC3C00D55D
:101420001C433C60DBF800405F46D1F804C09C439D
:101430005FEA8C3C00D51C433C60DEF800407746F8
:10144000D1F804C09C435FEACC2C00D51C433C601F
:10145000084F0C373C68D1F804C09C435FEA8C2CE1
:1014600000D51C433C60521C102AFFF42FAFBDE88E
:10147000F88F0000003C0140443802400030014039
:10148000000002400004024000080240000C02403C
:10149000001002400014024000180240001C0240EC
:1014A000426921EA02030A4043EA0241816170472E
:1014B0000AB1816170470904FBE7000001488068B8
:1014C000704700001C000020024881680278114427
:1014D000816070471C0000200B4810B5016841F482
:1014E00000710160016841F480610160016841F4AC
:1014F00080710160032000F061F80F2000F006F811
:1015000000F024F8002010BD003C024070B50D4DE5
:1015100004464FF47A712878B1FBF0F00A49096863
:10152000B1FBF0F000F002FB48B9102C07D200220A
:101530002146501E00F022F800206C6070BD012092
:1015400070BD00001C000020280000200A4808B5DB
:10155000016841F480410160006800F4804000901F
:101560000548001F016841F080510160006800F0EB
:101570008050009008BD000044380240F0B40E4B8B
:101580001B680C46C3F30223C3F10705042D00D9E1
:101590000425191D072901D2002300E0DB1E0126C6
:1015A00006FA05F1491E214099409E40761E1640DC
:1015B0003143F0BC00F0B7BD0CED00E0064900F08F
:1015C000070208684FF6FF03184040EA0220034A6A
:1015D00010430860704700000CED00E00000FA05C1
:1015E0002DE9F0470E46050065D0DFF81481D8F8E4
:1015F0000000F7B200F00700B04207D288F8007090
:10160000D8F8000000F00700B04254D128683D4CE3
:10161000810712D5400703D5206840F4E0502060D0
:101620002878000703D5206840F4604020602068D7
:10163000A96820F0F000084320602878C0072DD06A
:10164000304968680839012812D0022813D00328CD
:1016500011D00968890700292DDA216821F00301DA
:1016600001432160FFF72AFF814641F2883A0EE0EC
:1016700009688903EFE709688901ECE7FFF71EFFB6
:10168000A0EB0901514502D90320BDE8F08720688D
:10169000696800F00C00B0EB810FEFD1D8F80010B2
:1016A000404601F00701B14207D90770006800F019
:1016B0000700B04201D00120E7E72878400705D5B0
:1016C0002068E96820F4E05008432060287800078B
:1016D00006D52068296920F4604040EAC1002060F6
:1016E00000F03EF82168084AC1F30311515CC8407C
:1016F0000649086006480068FFF708FF0020C4E7B5
:10170000003C024008380240C2C200082800002005
:1017100020000020014800687047000028000020D9
:101720000448054900680968044AC1F38221515CF4
:10173000C84070472800002008380240D2C2000884
:101740000448054900680968044AC1F34231515C04
:10175000C84070472800002008380240D2C2000864
:10176000154810B5006810F00C02144813D0411051
:10177000042A0FD0082A0ED10F4C241F2268236898
:1017800002F03F025B0207D52068C0F38810A0FB7F
:10179000010106E0084610BD2168C1F38811A1FBD4
:1017A00000010023FEF785FD2168C1F30141491CBA
:1017B0004900B0FBF1F010BD083802400024F400ED
:1017C0002DE9F84F04006ED02078DFF84C93C00765
:1017D000A9F104054AD009F104000168C1F38101AF
:1017E000012908D00068C0F3810002280AD1D9F885
:1017F0000000400206D52868800337D560680028BD
:10180000E1D033E06068B0F5803F10D0B0F5A02F94
:10181000286810D020F480302860286820F48020C8
:1018200028606068A8B1FFF749FE06460DE0286809
:1018300040F48030F4E740F480202860F7E700BFF0
:10184000FFF73CFE801B642873D828688003F7D517
:101850000CE0FFF733FE064605E000BFFFF72EFE63
:10186000801B6428F0D828688003F7D42078DFF83C
:10187000AC8280074FF0000A3ED5A748001D0168E2
:1018800011F00C0F08D00068C0F3810002280BD1C2
:10189000D9F80000400207D42868800716D5E06810
:1018A000012800D112E033E1E068B8B10120C8F8A6
:1018B0000000FFF703FE064605E000BFFFF7FEFD50
:1018C000801B0228C0D828688007F7D528682169BE
:1018D00020F0F80040EAC10028600DE0C8F800A040
:1018E000FFF7ECFD064604E0FFF7E8FD801B022849
:1018F0001FD828688007F7D42078000722D5864FA4
:1019000087486169703771B101210160FFF7D6FD29
:10191000064604E0FFF7D2FD801B022809D838688C
:101920008007F7D50EE0C0F800A0FFF7C7FD064618
:1019300005E082E0FFF7C2FD801B02287DD83868F1
:101940008007F7D42078400768D5DFF8CCB10027AE
:101950000BF13C0BDBF80000C0000BD4DBF80010EF
:1019600041F08051CBF80010DBF80000012700F0B7
:10197000805000906B4E3068C00510D4306840F441
:1019800080703060FFF79AFD009005E0FFF796FD4C
:101990000099401A022850D83068C005F6D55E4E2E
:1019A000A0686C3601280FD00528306810D020F0D0
:1019B00001003060306820F004003060A068B8B1E9
:1019C000FFF77CFD00900FE0306840F00100F4E785
:1019D00040F004003060F7E7FFF770FD0099411A0E
:1019E00041F28830814266D830688007F4D50EE035
:1019F000FFF764FD009007E0FFF760FD0099411AD2
:101A000041F28830814256D830688007F4D42FB133
:101A1000DBF8001021F08051CBF80010A069C8B3AA
:101A20003D49091D0968C1F3810102294AD00228F4
:101A3000504607D0C8F8600000E03CE0FFF73EFDEC
:101A400004463BE04746C8F86000FFF737FD06460E
:101A500005E000BFFFF732FD801B02282BD8286865
:101A60008001F7D4D4E907010843A16A2E4A490846
:101A700002EB0141626A41EA8211084394F82C109A
:101A800040EA0161C9F8001001203866FFF716FD31
:101A9000044606E03EE000BFFFF710FD001B0228F1
:101AA00009D828688001F7D534E000BFFFF706FDAC
:101AB000001B022802D90320BDE8F88F28688001A6
:101AC000F4D427E00128F7D0D9F80000E26900F447
:101AD000800191421CD1226A00F03F01914217D14E
:101AE00047F6C071626A0140B1EB821F10D1A26A51
:101AF0004FF0FF3300F4403103EB5202B1EB024FE1
:101B000006D194F82C1000F07060B0EB016F01D09A
:101B10000120D1E70020CFE704380240000047420F
:101B2000800E4742007000400000FFFF10B5401ECD
:101B3000B0F1807F01D3012010BD4FF0E02460613F
:101B40000F21601700F0EFFA0020A061072020614C
:101B5000002010BD70B5040004D094F83D000025AD
:101B600010B106E0012070BD84F83C50204600F022
:101B700023F8242084F83D002068C16821F4005136
:101B8000C160204600F048FA2068016921F49041C4
:101B900001612068416921F02A0141612068C16822
:101BA00041F40051C1602564202084F83D0084F890
:101BB0003E00002070BD000010B586B00446142120
:101BC0006846FEF776FD14492068884221D1134803
:101BD0000021026842F010020260006800F010006C
:101BE00005900E481438026842F001020260006855
:101BF00000F0010005904FF4C06000900220CDE994
:101C00000101032003900720049069460448FFF770
:101C10004FFB06B010BD00000010014044380240E8
:101C200000000240FEE700002DE9F04186B01421DB
:101C30006846FEF73EFD26480024016841F0100189
:101C40000160016801F010010591016841F0800117
:101C50000160016801F080010591016841F0040113
:101C60000160016801F004010591016841F0010182
:101C70000160016801F001010591016841F0400136
:101C800001600068134F00F0400005900022182109
:101C90003846FFF70DFCDFF840807E150022314604
:101CA0004046FFF705FC182000900125CDE90154BE
:101CB000694638460394FFF7FBFA0096CDE90154D4
:101CC000694640460394FFF7F3FA06B0BDE8F08199
:101CD000303802400010024000180240FEB5394C76
:101CE000C023A822237062700120A0707321E170CC
:101CF000251DFF2129706970A97000272E1DEF7026
:101D000033707270B070F07002F014FD2068E178EA
:101D100003BA0A0603F47F4342EA032203BA00BA75
:101D200003F47F03084342EA1322A4F10C0142EAC0
:101D3000106008602868E97803BA0A0603F47F4354
:101D400042EA032203BA00BA03F47F03084342EADB
:101D50001322A4F1080142EA106008603068F178AB
:101D600003BA0A0603F47F4342EA032203BA03F4E8
:101D70007F0300BA42EA1322084342EA1060211F9F
:101D8000231F0860104811490097CDE901101A1F60
:101D9000111F0F4803F0C8F80D4803F0D7FA0C489C
:101DA00090F82D0040070A4802D503F02DFB01E012
:101DB00003F0D2FA03B00749BDE8F040044803F04D
:101DC0001FBB000010000020512F0008ED3000085C
:101DD000F0310020A131000810B5034801F0CEF920
:101DE000BDE8104004F0B0BAF03100200C4810B546
:101DF0000A4901604FF4E1314160002181600C2209
:101E0000C160C0E904128161C161FFF7A3FE00282F
:101E100003D0BDE81040FEF703BE10BD0010014026
:101E2000C4000020FEE7FEE770477047FFF74CBB99
:101E300030B593B030216846FEF73BFC14210CA866
:101E4000FEF737FC1E480025016841F08051016013
:101E5000006800F0805011901A48016841F48041F8
:101E600001600068022400F480401190012000907D
:101E7000000401908001CDE90640082008904FF44D
:101E8000A870CDE9090404200B906846FFF798FC80
:101E900008B172B6FEE70CA90F2081E831004FF4BB
:101EA000A0500F904FF48050109005210CA8FFF720
:101EB00097FB002801D072B6FEE713B030BD0000DA
:101EC00040380240007000400248016841F470014F
:101ED0000160704788ED00E038B506F0B9FA0446B5
:101EE0000D4800900DA0FEF75BFA124B41F28932CB
:101EF0006946204604F04AFF607A40F008006072AC
:101F00000DA0FEF74DFA1549204605F065FA14A01C
:101F1000FEF746FA38BD0000C0A80132E5AEA2E6E1
:101F200088B7E7ABAFE5BC80E5A78BE8BF9EE68E40
:101F3000A5210A0049210008E5B7B2E7BB8FE8B048
:101F400083E794A8E4BA867463705F636F6E6E650E
:101F50006374E587BDE695B00A00000081210008A2
:101F6000E5B7B2E7BB8FE6B3A8E5868CE5BC82E5B2
:101F7000B8B8E5A484E79086E587BDE695B00A0089
:101F800010B506F065FA04460CA0FEF709FA41F216
:101F900089321149204604F0B3FC10A0FEF700FA84
:101FA000FF21204606F00AF9044614A0FEF7F8F9CE
:101FB0002046BDE81040174904F0BDBBE5889BE50D
:101FC000BBBAE4BA86E4B880E4B8AAE68EA7E5888E
:101FD000B6E59D970A000000D4C30008E5B7B2E754
:101FE000BB8FE7BB91E5AE9AE4B880E4B8AAE68E71
:101FF000A7E588B6E59D970A00000000E8BF9BE5CD
:1020000085A5E79B91E590ACE78AB6E680815C6E9A
:1020100000000000D5C1000870B5044600680169E1
:10202000E26821F44051114301612169A068E2692D
:1020300008436169114308432168CA6849F20C6387
:102040009A430243CA6020684169A26921F4407141
:102050001143416131492068884202D030498842A9
:1020600002D1FFF76DFB01E0FFF75AFBE2690023A5
:10207000192164253226B2F5004F626828D0A0FBF2
:102080000101930F9200FEF714F90146B0FBF5F041
:102090006FF01802504301EB800006EB0010B0FB1C
:1020A000F5F000F0F002B1FBF5F002EB0012B1FB2D
:1020B000F5F06FF01803584301EB800006EB0010B9
:1020C000B0FBF5F000F00F0021681044886070BD8F
:1020D000A0FB010192185B41FEF7EBF80146B0FB53
:1020E000F5F00201B1FBF5F06FF01803584301EB76
:1020F000800006EBC000B0FBF5F000F0F80002EB4A
:102100004002B1FBF5F0584301EB800006EBC00044
:10211000B0FBF5F000F00700D6E70000001001402A
:1021200000140140FEE70907090E002804DB00F156
:10213000E02080F80014704700F00F0000F1E0206C
:1021400080F8141D7047704710B50C4606A0FEF7C6
:1021500027F902220849204607F050F9074920468E
:1021600008F018F9002010BD636F6E6E656374652A
:1021700064206F6B210A0000692200080D2200080C
:1021800010B508A0FEF70CF90AA0FEF709F90DA09A
:10219000FEF706F916A0FEF703F9BDE81040FFF7B9
:1021A0009BBE0000E8BF9EE68EA5E99499E8AFAF1C
:1021B00021210A00E5B09DE8AF95E9878DE8BF9E33
:1021C00021210A00E585B3E997ADE8BF9EE68EA51B
:1021D000EFBC8CE9878AE694BE544350E68EA7E5AF
:1021E00088B6E59D97E58685E5AD985C6E000000B4
:1021F000E9878DE696B0E5889DE5A78BE58C96E5A9
:10220000AEA2E688B7E7ABAF0A00000070B51400D5
:102210000D4611D02189284608F066F9228901234C
:102220002846616809F020FB21896068FEF71FFAE3
:10223000204603F097FD08E03BB905A0FEF7B0F893
:10224000284604F003FCFFF747FE002070BD0000A5
:10225000E69C8DE58AA1E599A8E696ADE5BC80E807
:10226000BF9EE68EA5210A007FB507A2084692E828
:102270003A008DE83A0001230E22694609F0F4FA8B
:1022800004B0002070BD0000E5A4A9E9A9ACE5A454
:102290008DE5B7A50A00000070B505460C46880715
:1022A00006D006A34FF4B67210A118A0FEF778F876
:1022B000A86800682060A868046070BD2E2E2F4DAD
:1022C0006964646C6577617265732F5468697264C0
:1022D0005F50617274792F4C7749502F7372632F5E
:1022E000636F72652F6D656D702E63006D656D7027
:1022F0005F667265653A206D656D2070726F7065FE
:10230000726C7920616C69676E65640041737365F6
:102310007274696F6E2022257322206661696C6574
:1023200064206174206C696E6520256420696E20CC
:1023300025730A0010B580680468002C0CD0216851
:102340000160A00706D005A34FF48C720FA118A05E
:10235000FEF726F8204610BD002010BD2E2E2F4D72
:102360006964646C6577617265732F54686972641F
:102370005F50617274792F4C7749502F7372632FBD
:10238000636F72652F6D656D702E63006D656D7086
:102390005F6D616C6C6F633A206D656D702070725B
:1023A0006F7065726C7920616C69676E656400009E
:1023B000417373657274696F6E20222573222066E3
:1023C00061696C6564206174206C696E65202564A8
:1023D00020696E2025730A0070B5094D0646002459
:1023E00004EB440005EBC000017D29B18068B042D8
:1023F00002D1204600F036F9641C0A2CF0DB70BDD7
:10240000DC6600202DE9F74F84B04FF00A0B002462
:102410000646DA465F46D94602940194CDF800405C
:10242000514904EB440001EBC008039098F81450A4
:102430000A2F1DD0002D2AD0012D08D0022D06D242
:102440004AA340F2231257A166A0FDF7A9FF9EB14F
:102450003168D8F8040081420ED1069820B1D8F82E
:1024600008100698814207D1204607B0BDE8F08FDA
:10247000002DE1D127460AE0012D16D0022D06D30A
:10248000B8F812000099884201D3A2460090641C5B
:1024900024B20A2CC4DB059881074FF0FF30E4D446
:1024A0000A2F16D018DA3C463EE02F49039851F81F
:1024B00030000028B8F8120005D002998842E6D30F
:1024C000A1460290E3E701998842E0D3A346019038
:1024D000DDE70599C907C8D05146BAF10A0F0EDAEF
:1024E0000C46214801EB440150F8310080B11FA394
:1024F00040F26D1245A13BA0FDF752FF08E059469E
:10250000BBF10A0F03DB4946B9F10A0FADDA0C46FD
:102510000A2C06DB15A340F27F1242A131A0FDF781
:102520003FFF204600F09EF80A2C06DB0FA340F286
:1025300083123CA12BA0FDF733FF0B4804EB4401B1
:1025400000EBC105287D30B108A34FF4C2723AA157
:1025500024A0FDF725FF0EB1306868600020688276
:102560000698A86080E70000DC6600202E2E2F4D24
:102570006964646C6577617265732F54686972640D
:102580005F50617274792F4C7749502F7372632FAB
:10259000636F72652F697076342F6574686172702D
:1025A0002E6300007374617465203D3D20455448DE
:1025B0004152505F53544154455F50454E44494E3B
:1025C00047207C7C207374617465203E3D20455417
:1025D000484152505F53544154455F535441424C1B
:1025E00045000000417373657274696F6E20222587
:1025F0007322206661696C6564206174206C696E69
:102600006520256420696E2025730A006172705F61
:102610007461626C655B695D2E71203D3D204E5595
:102620004C4C000069203C204152505F5441424CC8
:10263000455F53495A4500006172705F7461626C76
:10264000655B695D2E7374617465203D3D20455462
:10265000484152505F53544154455F454D50545981
:102660000000000070B5074C00EB4005002654F850
:10267000350018B103F076FB44F8356004EBC50073
:10268000067570BDDC6600202DE9F04385B00D00B5
:10269000074609D07C684FF480782088404539D1BE
:1026A0002079062836D109E01CA340F28A2229A10C
:1026B0002CA0FDF775FE05B0BDE8F0836079042815
:1026C00028D16088082825D1D4F80E000490A1698B
:1026D000686820B1814202D10126334601E000261C
:1026E000022304F10802914604A9284600F0A2FB47
:1026F000E08840450ED16EB1022204ABCDE9023232
:10270000291DCDE9001905F1260319464A46284638
:1027100000F090FA384603F025FBCCE72E2E2F4D23
:102720006964646C6577617265732F54686972645B
:102730005F50617274792F4C7749502F7372632FF9
:10274000636F72652F697076342F6574686172707B
:102750002E6300006E6574696620213D204E554C45
:102760004C000000417373657274696F6E202225FE
:102770007322206661696C6564206174206C696EE7
:102780006520256420696E2025730A00FEB5154674
:102790000E46040006D143A340F21E324FA153A0BF
:1027A000FDF7FEFD36B93FA340F21F3259A14FA0FD
:1027B000FDF7F6FD35B93BA34FF4487258A14BA085
:1027C000FDF7EEFD2146286800F0D0FE08B1584B19
:1027D0003FE02868C0F303110E2925D0A168636883
:1027E00000EA01020B409A4208D080B2A0F57E4177
:1027F000A93903D0E068B0B304F10C054D4B4E4845
:102800001A7802EB420100EBC1010F7D022F2ED39B
:102810008F68A7422BD12F6849688F4227D1314654
:10282000204600F08BF8FEBD01208DF8040000204A
:102830008DF805005E208DF80600687801AB00F089
:102840007F008DF80700A8788DF80800E8788DF8EB
:1028500009004FF40060009004F126023146204642
:1028600000F0C8FBFEBDFFE76FF00300FAE70022AF
:1028700002EB420100EBC1010F7D022F08D38F68EC
:10288000A74205D12F6849688F4201D11A70C6E767
:10289000521CD2B20A2AEBD332462946204600F017
:1028A000D5F8DFE72E2E2F4D6964646C6577617271
:1028B00065732F54686972645F50617274792F4C2C
:1028C0007749502F7372632F636F72652F6970762B
:1028D000342F6574686172702E6300006E657469D0
:1028E0006620213D204E554C4C000000417373651D
:1028F0007274696F6E2022257322206661696C658F
:1029000064206174206C696E6520256420696E20E6
:1029100025730A007120213D204E554C4C000000CB
:1029200069706164647220213D204E554C4C00005A
:10293000DAC20008B8000020DC6600202DE9F84368
:102940000646154688461C4802EB450100EBC104CB
:10295000207D022806D219A340F2EE2225A131A043
:10296000FDF71EFD144A05EB4501207D02EBC10574
:102970000C35022813D1608A0327B0F58E7F04D965
:10298000211D304600F010FA07E0B0F5877F06D32E
:102990002A46211D304600F00DFA00B927754FF484
:1029A000006000902B4606F126024146304600F0BA
:1029B00021FBBDE8F8830000DC6600202E2E2F4DA1
:1029C0006964646C6577617265732F5468697264B9
:1029D0005F50617274792F4C7749502F7372632F57
:1029E000636F72652F697076342F657468617270D9
:1029F0002E6300006172705F7461626C655B61726E
:102A0000705F6964785D2E7374617465203E3D204B
:102A10004554484152505F53544154455F535441CB
:102A2000424C4500417373657274696F6E202225B4
:102A30007322206661696C6564206174206C696E24
:102A40006520256420696E2025730A002DE9FC5F4E
:102A50008246263001900E46086814464FF0FF3734
:102A60004FF0000B514600F081FD80B93068C0F393
:102A700003110E290BD056B148B152460121304600
:102A8000FFF7C0FC050005D540B2BDE8FC9F6FF024
:102A90000F00FAE77F2D06D337A340F2C13244A1DD
:102AA00047A0FDF77DFC05F0FF094F4909EB4908F8
:102AB00001EBC805287D00280ED0012808D0022887
:102AC00006D22DA340F2CD3248A13DA0FDF768FC0F
:102AD000BBF1000F06D104E001202875C5F808A05D
:102AE00000E034B93146504600F05EF90746002C4C
:102AF000CBD0287D3C4E02280ED346494FF40060CF
:102B000005F10C0381F80090009021465046019A8F
:102B100000F070FA07462DE001282BD1254640F23F
:102B2000F13768892989884207D1286828B112A31A
:102B30003A4639A122A0FDF733FC287B400607D591
:102B400022464FF420710E2002F042FF044605E0B9
:102B50002D68002DE5D1204603F072FA44B156F8F5
:102B6000380008B103F0FEF846F83840002701E0CD
:102B70004FF0FF37384688E72E2E2F4D6964646C7E
:102B80006577617265732F54686972645F50617212
:102B900074792F4C7749502F7372632F636F72656E
:102BA0002F697076342F6574686172702E6300002F
:102BB00074797065206F766572666C6F77000000BF
:102BC000417373657274696F6E20222573222066CB
:102BD00061696C6564206174206C696E6520256490
:102BE00020696E2025730A00DC6600206172705F28
:102BF0007461626C655B695D2E7374617465203D00
:102C00003D2050454E44494E47206F722053544159
:102C1000424C4500B80000206E6F207061636B6508
:102C2000742071756575657320616C6C6F77656470
:102C3000210000002DE9FF4F81B09846DDE90FA982
:102C4000DDF838B006004FF0000706D12CA340F2A3
:102C5000574239A13CA0FDF7A3FB4FF420721C2181
:102C60000E2002F085FC050046D068891C2806D29B
:102C700023A340F262423EA133A0FDF791FB6C68B2
:102C8000119801F055FDE08096F82C00062806D03A
:102C90001BA340F2694243492BA0FDF781FBD8F802
:102CA0000010A160B8F80400A081DAF80010C4F8A0
:102CB0001210BAF80400E082DBF80000C4F80E003D
:102CC000D9F80000A0614FF4807020800820608057
:102CD000062020710420607140F60600DDE9022321
:102CE00000902946304600F085F9284603F03AF86E
:102CF000384605B0BDE8F08F4FF0FF30F9E700002F
:102D00002E2E2F4D6964646C6577617265732F5444
:102D1000686972645F50617274792F4C7749502FE3
:102D20007372632F636F72652F697076342F6574C9
:102D3000686172702E6300006E6574696620213DC3
:102D4000204E554C4C000000417373657274696FDE
:102D50006E2022257322206661696C65642061748F
:102D6000206C696E6520256420696E2025730A0039
:102D7000636865636B20746861742066697273743C
:102D800020706275662063616E20686F6C642073CA
:102D90007472756374206574686172705F686472C0
:102DA00000000000A8C40008014A00F003B80000B9
:102DB000DAC200087FB5064D031D0124CDE90035B8
:102DC000CDE9021422331946FFF734FF04B070BD79
:102DD000E0C2000870B5164D002400BF04EB4400AB
:102DE00005EBC002117DF1B1508A401C80B25082C7
:102DF000B0F5967F0AD2012906D003290AD004290A
:102E00000AD001290BD00EE0052808D32046FFF791
:102E100029FC08E0042000E00220107503E0111DE9
:102E20009068FFF7C1FF641C0A2CD7DB70BD00005F
:102E3000DC660020F8B5044690F82C001F461646C4
:102E40000D46062806D020A340F2A9122CA135A0D9
:102E5000FDF7A6FA9DB1286888B1214600F086FBEF
:102E600068B92878C0F303100E2808D022463946E6
:102E70002846FFF7C7FA002804DA40B2F8BD6FF021
:102E80000F00F8BD00EB40013048022300EBC10207
:102E9000137594603368D360B38813820023538220
:102EA00050F8315075B140F831304FF40060009067
:102EB000334604F126022946204600F09BF82846B6
:102EC00002F050FF0020F8BD2E2E2F4D6964646C77
:102ED0006577617265732F54686972645F506172BF
:102EE00074792F4C7749502F7372632F636F72651B
:102EF0002F697076342F6574686172702E630000DC
:102F00006E657469662D3E6877616464725F6C6596
:102F10006E203D3D204554485F4857414444525F30
:102F20004C454E00417373657274696F6E202225A3
:102F30007322206661696C6564206174206C696E1F
:102F40006520256420696E2025730A00DC66002058
:102F50002DE9F041044640890E270D460E283CD944
:102F6000E07B18B995F83000401CE0736068017888
:102F70008689CA0714D0012905D006221C49FDF70D
:102F8000D3FA48B10CE0417851B980785E2807D176
:102F9000607B40F0100002E0607B40F0080060734E
:102FA000082E03D0B6F5C16F17D10DE095F82D00AE
:102FB000000712D53946204603F088F868B929463B
:102FC000204600F01BFC10E095F82D00000704D50A
:102FD0003946204603F07AF818B1204602F0C2FEC6
:102FE00003E029462046FFF74FFB0020BDE8F081B3
:102FF000DAC200082DE9F04104461F4690460E460D
:10300000069801F095FB05460E21304602F04CFA79
:1030100018B16FF00100BDE8F081706885813968F2
:103020000160B9888180D8F80020C0F80620B8F87F
:103030000410418194F82C00062806D006A34FF412
:10304000997213A11FA0FDF7ABF931462046A26982
:10305000BDE8F041104700002E2E2F4D6964646CCE
:103060006577617265732F54686972645F5061722D
:1030700074792F4C7749502F7372632F6E65746982
:10308000662F65746865726E65742E6300000000BB
:103090006E657469662D3E6877616464725F6C6505
:1030A0006E206D757374206265203620666F722005
:1030B00065746865726E65745F6F75747075742180
:1030C00000000000417373657274696F6E202225E1
:1030D0007322206661696C6564206174206C696E7E
:1030E0006520256420696E2025730A0010B5040050
:1030F00006D10BA340F20E2210A114A0FDF750F947
:10310000732084F82E00742084F82F001948606121
:103110001948A061204601F0B3F9002010BD00005D
:103120002E2E2F4C5749502F5461726765742F65AE
:10313000746865726E657469662E63006E65746985
:103140006620213D204E554C4C00000041737365B4
:103150007274696F6E2022257322206661696C6526
:1031600064206174206C696E6520256420696E207E
:1031700025730A008D2700084946000870B50546EA
:1031800001F002FA040009D02A6929469047002874
:1031900004D02046BDE8704002F0E4BD70BD704729
:1031A0002DE9FC41002506460195009590F82D007B
:1031B000400742D5254C606868B34FF48052002127
:1031C0002046FEF739F8FEF779F94FF47A77019047
:1031D0006A4601211D48FDF7E5FEFEF76FF90199EA
:1031E000401AB84217D800988006F1D56A461021D7
:1031F0001648FDF7D7FE0098410703D54FF400614C
:10320000E16000E0E560800701D5A5600DE04FF4C6
:103210008040A06009E0E068A168C00840EA510071
:1032200082B200210948FEF707F800210748FDF7A0
:103230000BFC0648FDF7F8FE02E00448FDF736FFF8
:103240003046FFF7ACFFBDE8FC810000A83100204C
:1032500003490A685206FCD5C2B24A6070470000B2
:10326000001001400A46032100F0F4B82DE9FE4F9A
:103270008A4644490446D1F8088098F800000007BF
:10328000850E142D79D36089042876D36068007880
:10329000002872D0082870D1486901F11407C0F3E2
:1032A00003120E2A69D08946096800F05FF90028E8
:1032B00063D12089082860D305F10E010E4620460F
:1032C00002F0F2F8002830D02089411989B28842F2
:1032D00053D84FF420720E2002F04AF906004CD069
:1032E000718905F10800814216D32A46414670686B
:1032F000FDF746F92946304602F0E8FE002806D0E0
:1033000021A3B6222EA13CA0FDF74AF804E02146F5
:10331000304602F0ABFB18B1304602F023FD2CE042
:10332000204602F01FFD34460CE03146204602F0F4
:10333000CDFE002806D014A3C72239A12EA0FDF788
:103340002FF81AE029462046666802F0ADF8A0B9C9
:1033500060683968FF22C160D9F81010016100214E
:10336000317071800272418101228DE806040A46A3
:10337000FF233946204600F00BFB2046BDE8FE4FF8
:1033800002F0F0BC243200202E2E2F4D6964646CB4
:103390006577617265732F54686972645F506172FA
:1033A00074792F4C7749502F7372632F636F726556
:1033B0002F697076342F69636D702E6300000000F2
:1033C00069636D705F696E7075743A206D6F7669B0
:1033D0006E6720722D3E7061796C6F616420746F2E
:1033E0002069636D7020686561646572206661693B
:1033F0006C65640A00000000417373657274696F44
:103400006E2022257322206661696C6564206174D8
:10341000206C696E6520256420696E2025730A0082
:1034200069636D705F696E7075743A20726573744C
:103430006F72696E67206F726967696E616C207068
:103440002D3E7061796C6F6164206661696C6564A2
:103450000A0000002DE9FF479146884606464FF4D2
:1034600020722421222002F083F8050031D06889DF
:10347000242806D218A34FF4B47225A12FA0FCF77C
:103480008FFF6C6877681C2284F8008084F80190B4
:103490004FF00008A4F80480A4F8068068687168FA
:1034A0000830FDF76DF8F868039003A800F080FC81
:1034B00060B1A4F802800122CDF80080CDE901209E
:1034C000FF2303AA0021284600F062FA284602F0F2
:1034D00049FCBDE8FF8700002E2E2F4D6964646C07
:1034E0006577617265732F54686972645F506172A9
:1034F00074792F4C7749502F7372632F636F726505
:103500002F697076342F69636D702E6300000000A0
:10351000636865636B207468617420666972737494
:1035200020706275662063616E20686F6C6420692C
:10353000636D70206D6573736167650041737365BA
:103540007274696F6E2022257322206661696C6532
:1035500064206174206C696E6520256420696E208A
:1035600025730A000A460B21FFF774BF421C12D0D4
:1035700088B191F82D2092070BD54B68834208D073
:10358000896800EA01020B409A4202D10143491CBA
:1035900001D0002070470120704700002DE9F74F4F
:1035A00088B00446099800251426808CAF1F143873
:1035B000C11700EB5170C0F3CF0003906068069014
:1035C000017801F00F01052903D038460BB0BDE8A2
:1035D000F08F6189142907D25BA34FF43F7269A170
:1035E0006FA0FCF7DDFEF0E7C08801F0A1F8C0F3A2
:1035F0000C0100F4005002910790208914381FFA42
:1036000080F88EE003984FF6FF7101EAC000414652
:10361000404500D9084604904FF4207214210E2032
:1036200001F0A6FF5FEA000A7ED0BAF80A0014286B
:1036300006D245A34FF4497263A159A0FCF7B0FE2E
:103640001422DAF804000699FCF79AFFDAF804006D
:103650000590049F35E06089811B8DB2B04206D28F
:1036600039A340F22D3260A14DA0FCF799FEAF4284
:1036700000D23D461DB3042001F004FC5FEA0009BE
:1036800057D060684B463044CDE9000541222946B9
:10369000002002F0DFF85FEA000B50D0204602F075
:1036A000CFFC5549C9E904145946504602F0EEF8DA
:1036B000781B07043F0C06D000262468CBE724685B
:1036C0000026002FC7D1701986B20998808C143853
:1036D00040450298C0F30C0001DB079909B140F4A2
:1036E000005001F025F80599C8800498143080B284
:1036F00001F01EF80599488005980021418109983C
:1037000051460A9A43699847504602F02BFB0499A8
:10371000A8EB01001FFA80F8DDE90201084480B23D
:103720000290B8F1000F00E006E07FF46BAF0020DC
:103730004CE7504602F016FB4FF0FF3046E7484694
:1037400000F066FBF5E700002E2E2F4D6964646CD7
:103750006577617265732F54686972645F50617236
:1037600074792F4C7749502F7372632F636F726592
:103770002F697076342F6970345F667261672E63CB
:10378000000000006970345F6672616728293A2082
:103790007062756620746F6F2073686F72740000BA
:1037A000417373657274696F6E20222573222066DF
:1037B00061696C6564206174206C696E65202564A4
:1037C00020696E2025730A0074686973206E656530
:1037D00064732061207062756620696E206F6E656B
:1037E0002070696563652100702D3E6C656E203E1A
:1037F0003D20706F66660000E94300082DE9F04740
:10380000456807460E4628780421B1EB101F03D007
:10381000384602F0A7FA75E000074FEA906868881A
:1038200000F086FF04463889A04203D92146384675
:1038300002F06CFB79894145EAD33889A042E7D38D
:10384000B8F1140FE4D32969DFF81091C1F3031024
:103850000E28C9F81410EA68C9F8102005D03046BF
:1038600000F080F850B1344619E096F82D00C007FA
:1038700002D070680028F6D1002410E099F81400F6
:1038800000247F280BD03648046806E0B44203D0F9
:10389000204600F067F810B92468002CF6D13146B4
:1038A000D9F81000FFF762FE0028B1D199F8100096
:1038B000C0F303100E28ABD0002CA9D0E88830F05C
:1038C000C00005D0384600F02FF907001AD07D68F7
:1038D000C9F80850C9E90046297838460907890E11
:1038E000A9F80C10414602F0F1FB687A012811D0CA
:1038F00006280AD04D462146D9F81400FFF736FEB7
:1039000068B119E00020BDE8F0873146384603F081
:10391000FBFE14E031463846FFF7A8FC0FE0287D97
:10392000C0F303100E2807D04146384602F0D6FAFD
:1039300002213846FFF796FC384602F013FA0021C0
:10394000C9F80010C9F80410C9F80810A9F80C103B
:10395000C9F81010C9F81410D4E700002432002070
:103960005C00002010B590F82D10C9070CD04168FC
:1039700051B1064A52698A4204D001461046FFF707
:10398000F5FD08B1012010BD002010BD243200203B
:10399000FEB5DDE90954089E1AB109B10F6807B9EF
:1039A000211D0096CDE9015400F002F8FEBD000093
:1039B0002DE9F84F0546DDE90BA8807BDDF828B03E
:1039C0001F4616468946012806D02FA34FF455728C
:1039D0003AA13DA0FCF7E4FC6FF00104002E35D0C5
:1039E0001421284601F060FD002832D168896C68F6
:1039F000142806D224A34FF462723DA132A0FCF732
:103A0000CFFC277284F809A030682061452020701F
:103A100084F801B0288900F08BFE414F60804FF0A0
:103A2000000AA4F806A0388800F082FEA08038883A
:103A3000401C3880B9F1000F05D0D9F80000E060D3
:103A4000A4F80AA00CE037480068F8E76889142851
:103A500002D22046BDE8F88F68686E460069009083
:103A6000B8F8240040B12989814205D9324641463F
:103A70002846FFF793FDEDE7D8F81430404632466C
:103A800029469847E6E700002E2E2F4D6964646CA6
:103A90006577617265732F54686972645F506172F3
:103AA00074792F4C7749502F7372632F636F72654F
:103AB0002F697076342F6970342E6300702D3E723A
:103AC0006566203D3D203100417373657274696FF6
:103AD0006E2022257322206661696C656420617402
:103AE000206C696E6520256420696E2025730A00AC
:103AF000636865636B2074686174206669727374AF
:103B000020706275662063616E20686F6C6420733C
:103B100074727563742069705F68647200000000DD
:103B2000BA000020D4C300082DE9F05F4568834641
:103B3000287800F00F0005287DD1E88800F0F8FD16
:103B4000C004070C688800F0F3FD29780907890E86
:103B5000814270D8401A1FFA80F8584601F02EFFB3
:103B60006A4C0646208830440A2809D9314628463E
:103B700000F0E4FB00285ED0208830440A28E8D812
:103B8000A14664684FF0000A0CE06069E968884269
:103B900007D1A0692969884203D1A089A9888842F0
:103BA00003D02468002CF0D106E02CB1E88800F0A6
:103BB000BFFDC0041BD025E0032001F063F9040021
:103BC0000AD13146284600F0B9FBB04233DB03206E
:103BD00001F058F90400CED02021FCF76AFD0F2037
:103BE000E077D9F804102160C9F8044004E0E089C6
:103BF00000F09EFDC00405D01422294604F10800FF
:103C0000FCF7BEFCA87940F340156D1C08D007EB0B
:103C1000080080B2B84263D34FF6EB7188425FD898
:103C20002A465946204600F03BF9411C58D0B9F8C5
:103C30000020324400E064E0A9F8002035B107EB31
:103C40000801A183A17F41F00101A177012845D19D
:103C5000A08B1422143087B2606804F10801456813
:103C600028462E68FCF78CFC384600F061FD688021
:103C7000A5F806A0A5F80AA0656809E01421304659
:103C8000776802F023FA3146284601F0FFFD3E68CE
:103C9000002EF3D1D9F804104E468C4205D10021F4
:103CA00005E00868A04202D001460029F9D120466B
:103CB00000F01AFA284601F081FE04463088A0423E
:103CC00006D213A340F29B2220A127A0FCF768FB99
:103CD0003088001B30802846BDE8F09F0020FBE7BD
:103CE000606870B9D9F80400844206D008A340F295
:103CF000AB2227A11CA0FCF753FB0021204600F0BB
:103D0000F3F9584602F02EF8E8E70000BC00002066
:103D10002E2E2F4D6964646C6577617265732F5424
:103D2000686972645F50617274792F4C7749502FC3
:103D30007372632F636F72652F697076342F6970A9
:103D4000345F667261672E630000000069705F7205
:103D5000656173735F70627566636F756E74203E24
:103D60003D20636C656E0000417373657274696F0A
:103D70006E2022257322206661696C65642061745F
:103D8000206C696E6520256420696E2025730A0009
:103D90006E6F74206669727374616C74686F756796
:103DA00068206A75737420656E7175657565640049
:103DB00070B50146144813E090F82D20D3070FD0BA
:103DC00053070DD543685BB184680D68234005EA4D
:103DD00004069E4216D0920702D4C268954211D0C2
:103DE00000680028E8D10948006850B190F82D20FB
:103DF000D30706D0520704D5426812B109787F294B
:103E000000D1002070BD00005C0000206000002098
:103E100010B5040006D106A34FF4317213A116A009
:103E2000FCF7BEFA2146BDE81040042000F0B6BF02
:103E30002E2E2F4D6964646C6577617265732F5403
:103E4000686972645F50617274792F4C7749502FA2
:103E50007372632F636F72652F697076342F697088
:103E6000345F667261672E63000000007020213DA0
:103E7000204E554C4C000000417373657274696F9D
:103E80006E2022257322206661696C65642061744E
:103E9000206C696E6520256420696E2025730A00F8
:103EA0002DE9F05F4C68064693460F4600254FF01B
:103EB0000108608800F03CFC21784FF0FF3A0907C8
:103EC000890E814231D8A0EB0109E08800F030FC76
:103ED000C0047C68010C0020206001EB090083B263
:103EE000A180E3808B4220D3726829E05068B0F84B
:103EF00004C0614515D222606DB1B5F806C06145B8
:103F000013D38088834210D82F60A088844506D0C0
:103F10004FF0000803E08088834206D877608AB1BA
:103F20002EE002D0C288914202D25046BDE8F09FF6
:103F300025B1EA88624501D04FF0000802680546C5
:103F4000002AD3D195B1E888A188884206D92AA34E
:103F50004FF4DB7237A13FA0FCF722FA2F60E8880C
:103F6000A18888420CD04FF0000809E0706830B199
:103F700021A34FF4DF7241A136A0FCF711FA77605C
:103F8000BBF1000F02D1B07FC007CFD0B8F1000F56
:103F900030D07268002A2DD050688088002829D13E
:103FA0002168204629B14C68C088A1888842F7D092
:103FB00020E0B8F1000F1DD032B90FA340F2DF129C
:103FC0003CA124A0FCF7ECF970684068A04206D13F
:103FD00009A34FF4F07237A11EA0FCF7E1F92068A5
:103FE00030B105A34FF4F17236A11AA0FCF7D8F94D
:103FF00001209BE7002099E72E2E2F4D6964646C09
:104000006577617265732F54686972645F5061727D
:1040100074792F4C7749502F7372632F636F7265D9
:104020002F697076342F6970345F667261672E6312
:1040300000000000636865636B20667261676D65F0
:104040006E747320646F6E2774206F7665726C6176
:1040500070000000417373657274696F6E202225D1
:104060007322206661696C6564206174206C696EDE
:104070006520256420696E2025730A006E6F20700C
:10408000726576696F757320667261676D656E74AF
:104090002C2074686973206D7573742062652074B8
:1040A000686520666972737420667261676D656EFB
:1040B0007421000073616E69747920636865636BB5
:1040C0000000000076616C69646174655F6461740E
:1040D000616772616D3A6E6578745F7062756621B2
:1040E0003D4E554C4C00000070B504460C480D4642
:1040F0004168A14202D1216841600AE0002D06D149
:1041000008A340F2451216A11CA0FCF749F920684B
:1041100028602146BDE87040032000F03FBE00004B
:10412000BC0000202E2E2F4D6964646C657761728F
:1041300065732F54686972645F50617274792F4C93
:104140007749502F7372632F636F72652F69707692
:10415000342F6970345F667261672E63000000005F
:1041600073616E69747920636865636B206C696E36
:104170006B6564206C6973740000000041737365A3
:104180007274696F6E2022257322206661696C65E6
:1041900064206174206C696E6520256420696E203E
:1041A00025730A002DE9F047054600240F46A94271
:1041B00005D12FA3AB223DA13FA0FCF7F1F8002FC2
:1041C00008D03868A84205D029A3AD2244A13AA05E
:1041D000FCF7E6F86E684FF4803870688188002933
:1041E0001AD100686860142205F108017068FCF7B4
:1041F000C7F901213046FFF7B5F9304601F0DEFB83
:104200000446404505D31AA3BC223AA12AA0FCF7D4
:10421000C7F8304601F0A6FD6E6812E07068B1463E
:104220000668484601F0CAFB0444444505D310A380
:10423000CC2230A120A0FCF7B3F8A4B2484601F08C
:1042400091FD002EEAD139462846FFF74DFF314D4A
:104250002888A04205D206A3D2222FA116A0FCF7DF
:104260009FF82888001B28802046BDE8F0870000C2
:104270002E2E2F4D6964646C6577617265732F54BF
:10428000686972645F50617274792F4C7749502F5E
:104290007372632F636F72652F697076342F697044
:1042A000345F667261672E6300000000707265768D
:1042B00020213D2069707200417373657274696FCB
:1042C0006E2022257322206661696C65642061740A
:1042D000206C696E6520256420696E2025730A00B4
:1042E000707265762D3E6E657874203D3D20697054
:1042F0007200000070627566735F667265656420A7
:104300002B20636C656E203C3D20307866666666C7
:1043100000000000BC00002069705F72656173736B
:104320005F70627566636F756E74203E3D207062CB
:104330007566735F66726565640000002DE9F0477D
:104340001D4F894606460024002213461146154695
:10435000786822E0D0F814C0D6F80C80C4450BD1A0
:10436000D0F818C0D6F81080C44505D1B0F80CC0FC
:10437000B6F80480C44509D06D1C2AB190F81FC05E
:1043800092F81F80C44501D802461946D0F800C0F3
:10439000BCF1000F00D0034660460028DAD11AB104
:1043A0001046FFF7FFFE04444C4501DA012DCBDC3B
:1043B0002046BDE8F0870000BC00002070B5094829
:1043C000002544680BE0E07F20B1401EE0772546E1
:1043D000246804E0204624682946FFF7E3FE002C09
:1043E000F1D170BDBC00002010B5040006D108A3B7
:1043F00040F2CE2215A118A0FBF7D2FF606908B1E8
:1044000001F0B0FC2046BDE81040FFF701BD000000
:104410002E2E2F4D6964646C6577617265732F541D
:10442000686972645F50617274792F4C7749502FBC
:104430007372632F636F72652F697076342F6970A2
:10444000345F667261672E63000000007063722043
:10445000213D204E554C4C00417373657274696F59
:104460006E2022257322206661696C656420617468
:10447000206C696E6520256420696E2025730A0012
:104480003EB504463D4D00203B4900902960012186
:104490008A03C5E90112CA02EA6029828DF8040084
:1044A00080218DF80510E1218DF806108DF80800A7
:1044B0008DF807008DF8090001A9C5E90510E8612C
:1044C000100328622846FCF70BFC28B994F82D004D
:1044D00040F0040084F82D000423294A2949274884
:1044E000FCF784FB274A04238032A2F5807123481D
:1044F000FCF742FB062084F82C006869007884F8F9
:1045000026006869407884F827006869807884F814
:1045100028006869C07884F829006869007984F8FF
:104520002A006869407984F82B0040F2DC5024F8B6
:10453000240F607A40F00A0060721048FCF774FDA6
:104540006A4611210D48FCF72DFD0098112140F01D
:1045500003020A480092FCF76FFE6A4612210748E0
:10456000FCF720FD0098122140F020020348009241
:10457000FCF762FE3EBD000000800240A831002032
:10458000D8190020880100202DE9F84F00200446AA
:1045900000902C48FCF766FB10B10020BDE8F88FB6
:1045A0002848818FD0F840900904090C2FD04FF48F
:1045B000C172002000F0DCFF009040B32148009D54
:1045C00040F2F45BD0F830806E89002710E000BF25
:1045D000A4F2F4525242FBF7D3FFD8F80C00804605
:1045E000D0F808903F1BAAF2F456002407F2F457C3
:1045F000686806EB040ADA4509EB04013844E7D899
:104600003246FBF7BDFF2D683444002DDCD10D4848
:104610000022016B05E00B6843F000430B60C968A2
:10462000521C836B9342F6D800218163006800F529
:1046300080504269120602D5802242618160009852
:10464000ACE70000A83100202DE9F05F27480D46B7
:10465000C66A002083460446D6F808A031E03068D8
:1046600000280CDB6F894FF0000818E0A4F2F45228
:104670005242FBF785FFF6683068002802DA6FF0D7
:10468000070025E0D6F808A0A8EB040000F2F458D3
:10469000ABEB0400A9F2F45700F2F45B002407EB43
:1046A000040940F2F451894569680AEB0400414469
:1046B000DCD83A46FBF764FF0BEB07002D683C445F
:1046C0008346002DCBD101460848FCF731FD002080
:1046D0000649096801F580514A69920603D52022EE
:1046E0004A6100224A60BDE8F09F0000A831002026
:1046F00010B504464068804701F050FE094A216821
:1047000052688B181A1AB2F1004F03D3084422469C
:10471000054902E0044922461846BDE8104001F070
:10472000A1BE0000AC000020F146000800BA7047AE
:1047300040BA704710B500F00DF900F07DFB00F0B5
:104740006FFD02F0D5FFBDE8104001F007BF00008B
:10475000FCF7C2FEFDF76CFBFDF766FAFDF746FBC2
:10476000FDF7BCFA3220FCF75DF90CA0FBF718FE50
:10477000FDF7B2FBFDF704FC0D4C08212046FCF7C9
:104780008FFEC820FCF74EF9FDF726FB10212046CE
:10479000FCF786FEC820FCF745F9EEE7E5889DE5C5
:1047A000A78BE58C96E68890E58A9F5C720A0000EC
:1047B000001002402DE9F04100284DD0810704D0BF
:1047C00026A340F2732231A132E0394DA0F1080452
:1047D00029688C4203D36A680C30904204D91FA325
:1047E00040F27F2233A123E02079002825D0601AEF
:1047F00086B2208801F0A2FD0746608801F09EFD88
:1048000021884FF4C863002299420DD861889942EB
:104810000AD8B14202D00088B04205D16868874208
:1048200010D07888B0420DD00CA340F2952228A178
:10483000BDE8F04133A0FBF7B3BD08A34FF42372EA
:104840003AA1F5E72271A868844200D2AC60204604
:10485000BDE8F04101F0A2BCBDE8F0812E2E2F4D45
:104860006964646C6577617265732F5468697264FA
:104870005F50617274792F4C7749502F7372632F98
:10488000636F72652F6D656D2E6300006D656D5FE2
:10489000667265653A2073616E6974792063686534
:1048A000636B20616C69676E6D656E74000000005B
:1048B0002C0000206D656D5F667265653A20696C3D
:1048C0006C6567616C206D656D6F7279000000002A
:1048D0006D656D5F667265653A20696C6C656761D0
:1048E0006C206D656D6F72793A206E6F6E2D6C69FC
:1048F0006E6B65643A20646F75626C6520667265E4
:1049000065000000417373657274696F6E20222523
:104910007322206661696C6564206174206C696E25
:104920006520256420696E2025730A006D656D5F22
:10493000667265653A20696C6C6567616C206D65AF
:104940006D6F72793A20646F75626C65206672656E
:104950006500000070B50B480B4C20F003014FF4CC
:10496000C86521600D80002048800871284601F04C
:10497000E5FC012160600171058045802068A06030
:1049800070BD00003F3200202C0000202DE9F047D0
:1049900000286FD0C41C4FF6FC710C404FF4C8695E
:1049A0000C2C01D20C2401E04C457CD884427AD3F3
:1049B0004148C4F5C867824601890288891A8EB2C7
:1049C00076E0304601F0BAFC0546007900286CD14B
:1049D0002888801B0838A04267D3288804F1140176
:1049E000801B08384FF0010888421DD33019083069
:1049F00087B24F4506D131A340F287323BA140A098
:104A0000FBF7CEFC384601F099FC002101712988A2
:104A1000018046802F8085F804800088484505D0B5
:104A200001F08CFC478001E085F80480DAF808008A
:104A30005646854203D014E0008801F07FFC0179DE
:104A400011B171688842F7D1B0607168884208D0AE
:104A5000007930B119A340F2B53233A128A0FBF799
:104A60009FFC281971680830884208D913A340F2C6
:104A7000B93200E015E033A121A0FBF791FCA807B3
:104A80000DD00EA340F2BB323AA11DA0FBF788FC6B
:104A90000AA340F2BD3243A119A0FBF781FC05F146
:104AA0000800BDE8F08705E0FFE7DAF80000865B64
:104AB000B74286D80020F4E72C0000202E2E2F4D80
:104AC0006964646C6577617265732F546869726498
:104AD0005F50617274792F4C7749502F7372632F36
:104AE000636F72652F6D656D2E630000696E766170
:104AF0006C6964206E657874207074720000000028
:104B0000417373657274696F6E202225732220666B
:104B100061696C6564206174206C696E6520256430
:104B200020696E2025730A006D656D5F6D616C6C88
:104B30006F633A20216C667265652D3E75736564FE
:104B4000000000006D656D5F6D616C6C6F633A20F5
:104B5000616C6C6F6361746564206D656D6F7279F3
:104B6000206E6F742061626F76652072616D5F6583
:104B70006E642E006D656D5F6D616C6C6F633A20C5
:104B8000616C6C6F6361746564206D656D6F7279C3
:104B90002070726F7065726C7920616C69676E65E8
:104BA000642E00006D656D5F6D616C6C6F633A2003
:104BB00073616E69747920636865636B20616C69E9
:104BC000676E6D656E74000002490988401A80B2F4
:104BD000704700002C0000202DE9F05F0646CC1C39
:104BE0004FF6FC7004404FF4C86A0C2C01D20C2420
:104BF00001E054452AD88C4228D33E4F386886427B
:104C000002D37868864206D33BA340F2D12246A164
:104C10004BA0FBF7C5FB3868864249D379688E42C2
:104C200046D2A6F10805BB46281A87B22888C01BC1
:104C300008381FFA80F94C4506D92FA34FF4397272
:104C400049A13FA0FBF7ACFB4C4503D94FF0000056
:104C5000BDE8F09F2CD0288801F070FB80460079D9
:104C6000002827D004F11400484521D8381908300D
:104C700084B22888504506D11FA340F2163242A1C3
:104C80002FA0FBF78DFB204601F058FBDBF8082036
:104C9000904201D2CBF808000021017129880180DF
:104CA00047802C800088504502D001F047FB4480AB
:104CB0003046CDE72888504506D10FA340F2F522B3
:104CC00031A11FA0FBF76CFB38190830DBF8081086
:104CD000B8F8009084B2414504D1204601F02EFB83
:104CE000CBF80800204601F029FB00210171A0F853
:104CF0000090D5E72C0000202E2E2F4D6964646CA7
:104D00006577617265732F54686972645F50617270
:104D100074792F4C7749502F7372632F636F7265CC
:104D20002F6D656D2E6300006D656D5F7472696D2A
:104D30003A206C6567616C206D656D6F727900005B
:104D4000417373657274696F6E2022257322206629
:104D500061696C6564206174206C696E65202564EE
:104D600020696E2025730A006D656D5F7472696D30
:104D70002063616E206F6E6C7920736872696E6B50
:104D8000206D656D6F727900696E76616C69642063
:104D90006E6578742070747200000000082806D3D5
:104DA00007A34FF4D57212A118A0FBF7F9BA002996
:104DB00004D0204A52F82000FDF76EBA7047000078
:104DC0002E2E2F4D6964646C6577617265732F5464
:104DD000686972645F50617274792F4C7749502F03
:104DE0007372632F636F72652F6D656D702E630034
:104DF0006D656D705F667265653A207479706520C7
:104E00003C204D454D505F4D415800004173736546
:104E10007274696F6E2022257322206661696C6549
:104E200064206174206C696E6520256420696E20A1
:104E300025730A0048C3000830B5064D002400BFA2
:104E400055F8240000F008F8641CA4B2082CF7D32D
:104E500030BD000048C3000882680021116041682D
:104E6000C91C21F00301002207E08368521C1B6863
:104E70000B60836819600388194443889342F4DC0B
:104E80007047000010B5082808D308A340F2571255
:104E900012A11AA0FBF784FA002010BD214951F895
:104EA0002000BDE81040FDF745BA00002E2E2F4D22
:104EB0006964646C6577617265732F5468697264A4
:104EC0005F50617274792F4C7749502F7372632F42
:104ED000636F72652F6D656D702E63006D656D700B
:104EE0005F6D616C6C6F633A2074797065203C2053
:104EF0004D454D505F4D41580000000041737365B2
:104F00007274696F6E2022257322206661696C6558
:104F100064206174206C696E6520256420696E20B0
:104F200025730A0048C300082DE9F0470400DDE9B5
:104F30000970089D03D03FB100290DD00DE035A3C5
:104F400040F2271240A103E032A34FF4947245A12E
:104F50004DA0FBF725FA1DE0554902B9544A03B9A3
:104F6000534B00266660A660DFF848C1C4F814C041
:104F7000E660A68484F82D60C4E907654E4D95F877
:104F800000C084F830C02061204600F0AFF9204610
:104F9000B84710B10020BDE8F087B24640F28B1848
:104FA00040F28D1994F83000FF2801D184F830A028
:104FB00000276E681EE0A64205D116A342463FA117
:104FC00031A0FBF7EDF97F1CFF2F05DD11A34A4649
:104FD0003FA12DA0FBF7E4F996F8300094F83010CB
:104FE000884206D1C8B2401C84F83000002ED9D1C6
:104FF00002E03668002EDED194F83000FE2806D09C
:10500000401C28706868206020466C60C3E785F803
:1050100000A0F7E72E2E2F4D6964646C65776172EE
:1050200065732F54686972645F50617274792F4C94
:105030007749502F7372632F636F72652F6E65749B
:1050400069662E63000000006E657469665F6164C6
:10505000643A20696E76616C6964206E6574696675
:10506000000000006E657469665F6164643A204EFA
:105070006F20696E69742066756E6374696F6E2047
:10508000676976656E000000417373657274696FBD
:105090006E2022257322206661696C65642061742C
:1050A000206C696E6520256420696E2025730A00D6
:1050B000D4C30008E5520008580000206E657469EA
:1050C0006620616C72656164792061646465640066
:1050D000746F6F206D616E79206E65746966732CD4
:1050E000206D61782E20737570706F727465642006
:1050F0006E756D626572206973203235350000006F
:1051000003F020B90A68C3689A4204D001B90022AA
:10511000C26001207047002070470000F8B51546B6
:105120000C00064606D113A340F2CB121EA122A00A
:10513000FBF736F935B90FA34FF4E6721AA11EA09A
:10514000FBF72EF921687068814210D00091286029
:1051500069462846FFF7D4FF3CB120687060012102
:10516000304600F05FF80120F8BD0020F6E700208F
:10517000F8BD00002E2E2F4D6964646C6577617256
:1051800065732F54686972645F50617274792F4C33
:105190007749502F7372632F636F72652F6E65743A
:1051A00069662E6300000000696E76616C69642098
:1051B000706F696E74657200417373657274696FA4
:1051C0006E2022257322206661696C6564206174FB
:1051D000206C696E6520256420696E2025730A00A5
:1051E0000A6883689A4204D001B9002282600120D3
:1051F000704700207047000001000CD0074840684D
:1052000007E000BF90F83020521CD2B28A4203D08F
:1052100000680028F6D100207047000058000020E8
:105220007047000070B50D46040006D10DA340F292
:105230006D3219A121A0FBF7B3F894F82D004107B6
:105240000ED5C1070CD0E9070AD06168002907D044
:10525000000705D5211D2046BDE87040FDF7A4BD1F
:1052600070BD00002E2E2F4D6964646C65776172ED
:1052700065732F54686972645F50617274792F4C42
:105280007749502F7372632F636F72652F6E657449
:1052900069662E63000000006E657469665F69735D
:1052A0007375655F7265706F7274733A20696E769C
:1052B000616C6964206E6574696600004173736592
:1052C0007274696F6E2022257322206661696C6595
:1052D00064206174206C696E6520256420696E20ED
:1052E00025730A006FF00B00704700002DE9F84F9E
:1052F0004FF000091D4616460C008246C84600D1F4
:10530000114C06B9104E05B90F4DACB1206898B1DB
:1053100000274A4631465046FFF762FF424629467B
:105320005046FFF7EFFE002F04D16A462146504653
:10533000FFF7F4FEBDE8F88F01276A462146504684
:10534000FFF7ECFEE5E70000D4C3000801498860E0
:10535000704700005800002058B190F82D10CA077F
:105360000ED001F0FE0180F82D10090708D5FDF7D9
:1053700033B804A340F29B320FA117A0FBF710B87B
:10538000704700002E2E2F4D6964646C6577617242
:1053900065732F54686972645F50617274792F4C21
:1053A0007749502F7372632F636F72652F6E657428
:1053B00069662E63000000006E657469665F736540
:1053C000745F646F776E3A20696E76616C696420F1
:1053D0006E65746966000000417373657274696F6D
:1053E0006E2022257322206661696C6564206174D9
:1053F000206C696E6520256420696E2025730A0083
:10540000002800D0C161704750B190F82D10CA0734
:105410000DD141F0010180F82D100321FFF702BFEB
:1054200003A34FF454720FA115A0FAF7B9BF704748
:105430002E2E2F4D6964646C6577617265732F54ED
:10544000686972645F50617274792F4C7749502F8C
:105450007372632F636F72652F6E657469662E6356
:10546000000000006E657469665F7365745F757037
:105470003A20696E76616C6964206E6574696600B5
:10548000417373657274696F6E20222573222066E2
:1054900061696C6564206174206C696E65202564A7
:1054A00020696E2025730A00002200F001B8000078
:1054B00070B5A8B1B1F5803F26D2002918D0048973
:1054C0008BB214FA81F5ADB29D421DD3057B2D063A
:1054D00010D54268511A00F11002914214D30CE029
:1054E0000AA340F2DF1215A117A0FAF759FF0BE04B
:1054F000002070BD42B14268511A4160418919448F
:105500004181E1180181F3E7012070BD2E2E2F4D5E
:105510006964646C6577617265732F54686972643D
:105520005F50617274792F4C7749502F7372632FDB
:10553000636F72652F706275662E63007020213D67
:10554000204E554C4C000000417373657274696FB6
:105550006E2022257322206661696C656420617467
:10556000206C696E6520256420696E2025730A0011
:105570002DE9FC5F054690460F461046012A0FD0E4
:1055800041280DD0B0F5C17F10D0B2F5207F55D0A5
:1055900042A340F227124DA153A0FAF701FF5CE0AD
:1055A0000246002000F0FEF8044674E00024A14604
:1055B0000720FFF767FC060036D005F1030B2BF040
:1055C0000300C0F51470B84200D938468246002066
:1055D000CDE900807019133020F0030153463A469C
:1055E000304600F085FC3079800706D02BA34FF4BD
:1055F000807247A13CA0FAF7D3FE9421B1EB9B0F38
:1056000006D126A34FF481724DA137A0FAF7C8FE48
:1056100094B1C9F80060A7EB0A000704B1463F0C3B
:105620004FF00005C4D136E0524901200870A4B102
:10563000204600F097FB10E03446ECE7E81C20F031
:105640000301F81C20F00302881880B200F1100159
:1056500089B2824201D88A4202D90020BDE8FC9F6B
:105660000846FFF793F9041EF8D00020CDE900802A
:105670006019133020F003013B461A46204600F023
:1056800037FC2079800706D004A34FF491723AA129
:1056900015A0FAF785FE2046E0E700002E2E2F4DDC
:1056A0006964646C6577617265732F5468697264AC
:1056B0005F50617274792F4C7749502F7372632F4A
:1056C000636F72652F706275662E63007062756617
:1056D0005F616C6C6F633A206572726F6E656F7597
:1056E0007320747970650000417373657274696F1B
:1056F0006E2022257322206661696C6564206174C6
:10570000206C696E6520256420696E2025730A006F
:10571000706275665F616C6C6F633A20706275666B
:1057200020712D3E7061796C6F61642070726F70B2
:1057300065726C7920616C69676E656400000000B9
:10574000504255465F504F4F4C5F42554653495A61
:1057500045206D75737420626520626967676572A4
:10576000207468616E204D454D5F414C49474E4D58
:10577000454E540064000020706275665F616C6C79
:105780006F633A20706275662D3E7061796C6F614F
:10579000642070726F7065726C7920616C69676EDD
:1057A000656400002DE9FC4114460E460746412A77
:1057B00008D0012C06D00CA34FF4A57216A11BA093
:1057C000FAF7EEFD0620FFF75DFB05004FF0000045
:1057D00008D0CDE9004033461A463946284600F045
:1057E00087FB2846BDE8FC812E2E2F4D6964646C32
:1057F0006577617265732F54686972645F50617276
:1058000074792F4C7749502F7372632F636F7265D1
:105810002F706275662E6300696E76616C69642014
:10582000706275665F74797065000000417373651E
:105830007274696F6E2022257322206661696C651F
:1058400064206174206C696E6520256420696E2077
:1058500025730A007CB51C46DDE90635C01C20F026
:1058600003004618AE4201D900207CBD0BB118449C
:1058700000E000200223CDE900230B4601461A4632
:10588000204600F035FB20467CBD000070B50D467B
:1058900008B1002D08D1BDE8704014A340F2593280
:1058A0001EA12CA0FAF77CBD0446006820B1218916
:1058B0002A8911442181F7E72089618988420FD024
:1058C0000AA340F262322DA122A0FAF769FD2068F6
:1058D00030B106A340F2633234A11EA0FAF760FD96
:1058E0002089298908442081256070BD2E2E2F4DE6
:1058F0006964646C6577617265732F54686972645A
:105900005F50617274792F4C7749502F7372632FF7
:10591000636F72652F706275662E630028682021A0
:105920003D204E554C4C2920262620287420213D10
:10593000204E554C4C29202870726F6772616D6D36
:1059400065722076696F6C617465732041504929D6
:1059500000000000417373657274696F6E20222528
:105960007322206661696C6564206174206C696EC5
:105970006520256420696E2025730A00702D3E7411
:105980006F745F6C656E203D3D20702D3E6C656EC2
:1059900020286F66206C61737420706275662069C0
:1059A0006E20636861696E2900000000702D3E6EF4
:1059B000657874203D3D204E554C4C00002102E09E
:1059C000491C006889B20028FAD1084670470000D7
:1059D00070B5154613890A461946FFF7C9FD04003C
:1059E0000CD0294600F042F830B105A340F2245211
:1059F0000FA114A0FAF7D4FC204670BD002070BDA2
:105A00002E2E2F4D6964646C6577617265732F5417
:105A1000686972645F50617274792F4C7749502FB6
:105A20007372632F636F72652F706275662E6300E9
:105A3000706275665F636F7079206661696C65641A
:105A400000000000417373657274696F6E20222537
:105A50007322206661696C6564206174206C696ED4
:105A60006520256420696E2025730A002DE9F04722
:105A70004FF000070C4605003E466FF00F0904D0BA
:105A80001CB128892189884204D232A340F2C9324C
:105A90003CA145E06FF0050A6889C11B6089801B45
:105AA000814201D3804600E0884660684246811901
:105AB00068683844FAF764FD688947444644B84248
:105AC00006D224A340F2D9323AA140A0FAF768FCEA
:105AD0006089B04206D21FA340F2DA3245A13BA052
